:10000000021E16008F828E83E0540100000070F8FB
:100010002278FFE4F6D8FD021E740203DBE8648058
:10002000F8E933E83360110460F0ED33EC33700924
:10003000E8FCE9FDEAFEEBFF220460DED3EB9FEA79
:100040009EE99DE8C2E78CF0C2F795F0400CE8CC41
:10005000F8E9CDF9EACEFAEBCFFB1203A685D0F092
:100060005804700320D5B3E80470075002B2D502DB
:1000700003E592D5EC0460F7E4CCC0E0C398F860E7
:100080003B94186008400DD0E0FB0203BDE4FBFA8E
:10009000C9FC8028E830E406E4C9FBE4CAFCE83087
:1000A000E305E4C9CACBFCE854076010F8C3E913C0
:1000B000F9EA13FAEB13FBEC13FCD8F130F52FC37C
:1000C000E49CFCEF9BFFEE9AFEED99FDD0E0FBEF88
:1000D0004E4D4C701222DB030203E2EC2CFCEF339A
:1000E000FFEE33FEED33FDED30E7EB0203BDEF2B0A
:1000F000FFEE3AFEED39FDD0E0FB50130BBB0003E1
:100100000203E5ED13FDEE13FEEF13FFEC13FC020B
:1001100003BDEC4D6011E8497017ED33EC3304601A
:100120000DE4FCFFFEFD22E933E8330470F802031E
:10013000DB1203A658046009E4CC24815006285041
:10014000090203E52840030203E2C0E0EB4A7044E1
:10015000B98006D0E0FB0203D1EF4E701CBD8008D1
:10016000EBFFEAFEE9FD80EBE98DF0A4FEE5F0028D
:1001700001FBE9CDF9EAFEEBFFEF89F0A4FCE5F025
:10018000CE89F0A42EFFE435F0CD89F0A42DFEE455
:1001900035F08067EF4E7005BD80D780C3EF8BF0E0
:1001A000A4ACF0EE8BF0A42CFCE435F0F8EF8AF070
:1001B000A42CE5F038FCE433CB8DF0A42CFCE5F066
:1001C0003BF8EE8AF0A42CFCE5F038F8E433CF8954
:1001D000F0A42CFCE5F038CF3400CE89F0A42FFF3A
:1001E000E5F03EFEE433C98DF0A42EFEE5F039CDF6
:1001F0008AF0A42FFFE5F03EFEE43DFD33D0E0FBA6
:1002000050070BBB000F0203E5EC2CFCEF33FFEEB5
:1002100033FEED33FD0203BD0203E5EC5D04600532
:10022000E8590470030203DB1203A6580460F6ECDD
:100230004860F2EC7004FDFEFF22C860DB2481C838
:100240005009C398600250060203E29850CAF58232
:10025000E9294B4A7005AB820203D175F0007C1A84
:100260007880C3EF9BEE9AED99400DC3EF9BFFEEB4
:100270009AFEED99FDE842F0DC23ACF0D0E0FFD02F
:10028000E0FED0E0FDAB8220E7101BEB60BAEC2C67
:10029000FCEF33FFEE33FEED33FD0203BDE803F860
:1002A00030E705C0F075F000EF2FFFEE33FEED33C1
:1002B000FD40B830E7C280AA74F8CC6480CCC86432
:1002C00080C8F58204604FC3EB9FF5F0EA9E42F0D0
:1002D000E99D42F0E89C45F0603C501DE5825FFFDF
:1002E000E582D313CB5BCBF42B5582FB50280ABAA3
:1002F000002409B9002008801DE5825BFBE582D35C
:1003000013CF5FCFF4C3132F5582FF50090EBE00E9
:10031000050DBD00010CC3EB9FF5F0EA9E42F0E92C
:100320009D42F0E89C45F06007CC4820E701B3EC23
:100330002275F020800E75F010800575F0087D00A4
:100340007E007F003392D530D5031207BCEC3340DA
:1003500010EF33FFEE33FEED33FDEC33FCD5F0ED63
:1003600022E5F0247EA2D513CC92E7CDCEFF22ED7C
:10037000D2E7CD33EC3392D524814006E4FFFEFD75
:10038000FC22FCE4CFCECDCC24E0501174FF80EDF4
:10039000C3CC13CCCD13CDCE13CECF13CF0470F07E
:1003A00030D5DE0207BCE9D2E7C933E833F892D58D
:1003B000EDD2E7CD33EC33FC5002B2D522EC30E77E
:1003C000100FBF000C0EBE00080DBD00040BEB604B
:1003D00014A2D5EB13FCED92E7FD2274FFFCFDFEA9
:1003E000FF22E480F8A2D574FF13FC7D80E480EF47
:1003F000F920E73624F950037907E4F42402FBE5F9
:1004000082158270021583DBF6E024FB501BE96045
:1004100014E4F0E582158270021583E004F0B40A5A
:1004200008E4F0D9EE7401F00A22C2D522ED33ECD3
:100430003392D5FA602AB4FF33EDC2E77BFF600642
:100440007A047952E4227A04795B20D5047A04791B
:1004500056224E614E002B494E46002D494E460015
:10046000E47A08F0A3DAFC7B00740722C083C08220
:10047000ECC0E0EDC0E0EEC0E0EFC0E0EA75F010E7
:10048000A4CAABF075F04DA42BFBE435F0FCEA24D4
:1004900010FAEB34C5FBEC34D9FCEDC2E7FF75F084
:1004A00056A4F42411C5F0F434C58FF0A42AE5F065
:1004B0003BE43CF020E714120562D0E0FFD0E0FE00
:1004C000D0E0FDD0E0FC12021B8014F4041205629F
:1004D000D0E0FFD0E0FED0E0FDD0E0FC120112D071
:1004E00082D083E0FAEDD2E7CD33EC332482FBE413
:1004F000C3CF33CFCE33CECD33CD33DBF37B0775D4
:10050000F00A846004F0A31B0AE5F0F0A38FF074F6
:100510000AA4FFACF08EF0740AA42CFEACF05001DB
:100520000C8DF0740AA42CFDE435F0F0A3DBDE742E
:1005300007223F8000004120000042C80000447AAA
:100540000000461C400047C35000497424004B186B
:1005500096804CBEBC205A0E1BCA6753C21C749DA9
:10056000C5AEFB60065407601C2323120590EB54B4
:1005700038600912057C12058B120112ECF8EDF9B6
:10058000EEFAEFCB22EB12058B80F1543803241CDA
:10059000900532FE93FC0EEE93FD0EEE930ECE937D
:1005A000FF22BB010689828A83E0225002E722BB38
:1005B000FE02E32289828A83E49322BB010CE58256
:1005C00029F582E5833AF583E0225006E92582F891
:1005D000E622BBFE06E92582F8E222E58229F582C1
:1005E000E5833AF583E49322BB010689828A83F08E
:1005F000225002F722BBFE01F322EF8DF0A4A8F0F7
:10060000CF8CF0A428CE8DF0A42EFE22BC000BBE11
:100610000029EF8DF084FFADF022E4CCF875F008EE
:10062000EF2FFFEE33FEEC33FCEE9DEC984005FC23
:10063000EE9DFE0FD5F0E9E4CEFD22EDF8F5F0EEEB
:100640008420D21CFEADF075F008EF2FFFED33FDD6
:100650004007985006D5F0F222C398FD0FD5F0EA76
:1006600022C5F0F8A3E028F0C5F0F8E58215827005
:10067000021583E038F022EF2BFFEE3AFEED39FD54
:10068000EC38FC22C3EF9BFFEE9AFEED99FDEC984F
:10069000FC22E88FF0A4CC8BF0A42CFCE98EF0A413
:1006A0002CFC8AF0EDA42CFCEA8EF0A4CDA8F08BF3
:1006B000F0A42DCC3825F0FDE98FF0A42CCD35F039
:1006C000FCEB8EF0A4FEA9F0EB8FF0A4CFC5F02ECA
:1006D000CD39FEE43CFCEAA42DCE35F0FDE43CFC33
:1006E0002275F008758200EF2FFFEE33FECD33CD7B
:1006F000CC33CCC58233C5829BED9AEC99E58298C8
:10070000400CF582EE9BFEED9AFDEC99FC0FD5F0C6
:10071000D6E4CEFBE4CDFAE4CCF9A88222B800C13D
:10072000B90059BA002DEC8BF084CFCECDFCE5F0AA
:10073000CBF97818EF2FFFEE33FEED33FDEC33FCF1
:10074000EB33FB10D703994004EB99FB0FD8E5E49A
:10075000F9FA227818EF2FFFEE33FEED33FDEC337C
:10076000FCC933C910D7059BE99A4007EC9BFCE90B
:100770009AF90FD8E0E4C9FAE4CCFB2275F010EF47
:100780002FFFEE33FEED33FDCC33CCC833C810D78A
:10079000079BEC9AE899400AED9BFDEC9AFCE899DE
:1007A000F80FD5F0DAE4CDFBE4CCFAE4C8F922EF97
:1007B0004BFFEE4AFEED49FDEC48FC22C3E49FFFEF
:1007C000E49EFEE49DFDE49CFC22EB9FF5F0EA9E96
:1007D00042F0E99D42F0E89C45F022E8600FEFC34B
:1007E00033FFEE33FEED33FDEC33FCD8F122E0FCB9
:1007F000A3E0FDA3E0FEA3E0FF22E0F8A3E0F9A35D
:10080000E0FAA3E0FB22ECF0A3EDF0A3EEF0A3EFFF
:10081000F022E0FBA3E0FAA3E0F922F8E0FBA3A3B7
:10082000E0F925F0F0E582158270021583E0FA38D0
:10083000F022EBF0A3EAF0A3E9F022E493FB7401C9
:1008400093FA740293F922D083D082F8E493701261
:10085000740193700DA3A393F8740193F5828883B8
:10086000E4737402936860EFA3A3A380DFE51B2504
:1008700082F582E51A3583F583B51A0485821B2239
:1008800010AF0685821BF51A2285821BF51AD2AF9E
:1008900022EC8EF0A4CCC5F0CCCDF8EFA4CEC5F000
:1008A0002DFDE43CFCE8A42EC8C5F03DFDE43CFC75
:1008B000EFA4FFE5F028FEE43DFDE43CFC22E7095F
:1008C000F608DFFA8046E709F208DFFA803E888200
:1008D0008C83E709F0A3DFFA8032E309F608DFFA38
:1008E000806EE309F208DFFA806688828C83E30970
:1008F000F0A3DFFA805A89828A83E0A3F608DFFA40
:10090000804E89828A83E0A3F208DFFA804280D297
:1009100080FA80C680D4805580F28029801080A61D
:1009200080EA809A80A880DA80E280CA8029888460
:100930008C8589828A83E493A30586F0A30586DFEC
:10094000F5DEF3800B89828A83E493A3F608DFF94E
:10095000ECFAA9F0EDFB2288848C8589828A83E0F9
:10096000A30586F0A30586DFF6DEF480E389828A9C
:1009700083E493A3F208DFF980D688F0EF60010EDC
:100980004E60CD88F0ED2402B4040050C3F582EB34
:100990002402B4040050B9232345822390090E7326
:1009A000E508246EF582E43400F583E00508229022
:1009B000006B30070390006EE475F00112081B0213
:1009C00005A22000E97F2ED2008018EF540F24905A
:1009D000D43440D4FF30040BEF24BFB41A005003CA
:1009E0002461FFE50960021509050CE50C7002059C
:1009F0000B30070E90006BE475F00112081BEF023C
:100A000005E80233287403D2078003E4C207F5081F
:100A100090006B120832E4F509F50BF50CE509605E
:100A2000077F201209E380F5750AFFC201C200C2E8
:100A300002C203C205C206C2081209AFFF700D3020
:100A400007057F001209F4AF0CAE0B22B4255FC27C
:100A5000D5C2041209AFFF24D0B40A00501A75F0B1
:100A60000A780930D50508B6FF0106C6A426F62087
:100A7000D5047002D20380D924CFB41A00EF5004F9
:100A8000C2E5D204020CE6D20180C6D20080C0D2F8
:100A90000280BCD2D580BAD20580B47F201209E38F
:100AA0002002077401B5090040F11209A0FF1209E4
:100AB000E3020A1DD208D20680951209A0FB120992
:100AC000A0FA1209A0F94A4B700679E47A0D7BFF6F
:100AD00020022EE509602A7E008E827583001205B1
:100AE000BB60060EEE650A70F0C2D5EBC0E0EAC04E
:100AF000E0E9C0E0EE120D47D0E0F9D0E0FAD0E036
:100B0000FB1205A2FF60AAEBC0E0EAC0E0E9C0E08A
:100B10001209E3D0E02401F9D0E03400FAD0E0FB80
:100B2000E50A0460DCD50AD98087D20280A2120DC2
:100B30002960F7E50A7001041203F0A90A600DE5C7
:100B40000A600914F50A120DD1EF60F3EA30E702EA
:100B5000F404C3995079EAF4250A0430E701E40467
:100B6000F50A800D120D2960C1EA050A250A120353
:100B7000F0EA90009AF030E701E4250A04D50A046F
:100B800020050114120D47E4C0E0120DD190009A27
:100B9000E0601320E70714F01209CB802204F0D0A4
:100BA000E014C0E07F001209CBE50A60071209C219
:100BB000150A800B3005031209C2D0E0020A1DD0CD
:100BC000E00480C4120D29609EE50A041203F0902F
:100BD000009AEAF0E50A2005026001042404120DDF
:100BE0004774FF04C0E0120DD11209CBE50A2005BD
:100BF0000260031209C2D0E0B50AE87F451209D5A8
:100C000090009AE07F2B30E7047F2DF404C0E012BF
:100C100009E3D0E075F00A84C0F01209CCD0E012EC
:100C200009CC020A1D791080027908C206C2088028
:100C300008D2D5790A8004790AC2D5E50A0470027F
:100C4000F50AE4FAFDFEFF1209A0FC7B082001135F
:100C50001209A0FD7B1030000A1209A0FE1209A0A3
:100C6000FF7B20EC3382D592D55013C3E4300006CD
:100C70009FFFE49EFEE42001039DFDE49CFCE4CB89
:100C8000F8C201EC700CCFCECDCCE824F8F870F3AC
:100C90008017C3EF33FFEE33FEED33FDEC33FCEB97
:100CA00033FB994002FB0FD8E9EB300105F8D0E0A7
:100CB000C448B201C0E00AEC4D4E4F78207B007072
:100CC000C2EAB50A0040BCC0E0120D49D0F0D0E045
:100CD000200104C4C0E0C4B201C0F01209CCD0F0BD
:100CE000D5F0EB020A1D1208470ABA530C25580A20
:100CF0008B4C0A87420C294F0C31440C31490AA015
:100D0000430C37550B64460BC4450B2E470E04505D
:100D10000A8F2D0A932E0AB62B0A97230AB4200DA8
:100D2000ED2A0A4F4800000AAEE50AB4FF03750A2F
:100D3000061209A0FC1209A0FD1209A0FE1209A0CA
:100D4000FF90009302042D790AA2D52003143005E8
:100D500009B910020404B9080104A2D52006025002
:100D600001042002689202B509005034C0E07F20DF
:100D70003003197F30A20272067205500F120DA0C7
:100D8000C202C206C205C2087F30800F300503E9E7
:100D9000C0E01209E3300503D0E0F9D0E0B509CC9A
:100DA0003005177F30B9100C1209E37F5830040763
:100DB0007F788003B908031209E33002057F2D0212
:100DC00009E37F202008F87F2B2006F3229202807F
:100DD000CF7F00B40700500B2493F582E43400F574
:100DE00083E0FF22286E756C6C2900D2011209A0E5
:100DF0003001F8C201780930D50108F6020A4F2DFA
:100E0000504349581209A02403B405004001E4905E
:100E10000DFF931209D4743A1209D4D20375090450
:100E2000020C25C0E0C0F0C083C082C085C084C071
:100E300086758600C093759300C0D075D000C00041
:100E4000C001C002C003C004C005C006C0079001B5
:100E500003E475F001120661123BA0E41203319025
:100E600000E01208069000DC1207FA9000E012077A
:100E7000EE12021B9001151208069000E01207FA0C
:100E80009000DC1207EE12021B9001291208069056
:100E900000B51207FA9001291207EE12021B90000A
:100EA000CD1208069000F01207EE9000001208061E
:100EB0009000CD1207FA9000B91207EE12001D90B3
:100EC00000F01208069001111207EEC004C005C020
:100ED00006C0079001151207EE9000F01207FA12F3
:100EE0000112A804A905AA06AB07D007D006D005B1
:100EF000D00412002190011112080690011112076E
:100F0000EE90010D1207FA120112C004C005C006CE
:100F1000C0079000F01207EE9001191207FA1201B3
:100F200012A804A905AA06AB07D007D006D005D0A1
:100F3000041200219001071208067F007E007D0048
:100F40007C009000CD1207FA1202B8702290011DA9
:100F50001207EE12036F900105EEF0A3EFF07F0091
:100F60007E007D007C0090011112080602100E7FA9
:100F7000007E007D807CBF9001311207FA120021B3
:100F8000C004C005C006C0079001071207EE90011B
:100F90001D1207FA120021A804A905AA06AB07D062
:100FA00007D006D005D0041202B86020401E7F0092
:100FB0007E007D807CBF9001311207FA1200211261
:100FC000036F900105EEF0A3EFF08042900107124D
:100FD00007EE90011D1207FA1200217B007A0079BA
:100FE0000078001202B8600C400A900105E4F0A3FA
:100FF000E4F0801A9001071207EE90011D1207FA23
:1010000012002112036F900105EEF0A3EFF07D06B0
:101010007F00122BC09000E6E0FEA3E0FF121D1B34
:10102000900103E0FEA3E0FFC3EF941CEE940040A8
:101030004E9000CBE0FEA3E0FF9000E6E0FCA3E0D2
:10104000FDEDB5073AECB50636900004E4F07FE814
:101050007E037D007C00900005120806900004E0ED
:10106000FF123A95900103E4F0A3E4F0123949909D
:101070000135E0FEA3E0FF9000E6EEF0A3EFF09074
:101080000103E0FEA3E0FFC3EF9469EE9400407219
:10109000900121E0FEA3E0FF9000E6E0FCA3E0FD6C
:1010A000ED6F7002EC6E705A900004E4F090000452
:1010B000E0FF123A957D007F01122BC07BFF7A3250
:1010C00079DA122CBF7D017F01122BC07BFF7A32AF
:1010D00079DC122CBF7F647E0012362390000474EA
:1010E00002F0900004E0FF123A95900103E4F0A3AF
:1010F000E4F09000BDE0FEA3E0FF9000E6EEF0A378
:10110000EFF0900103E0FEA3E0FFC3EF941FEE9425
:1011100000404E9000BDE0FEA3E0FF9000E6E0FC42
:10112000A3E0FDEDB5073AECB50636900004740275
:10113000F07F987E00123623900004E0FF123A956B
:10114000900103E4F0A3E4F09000E4E0FEA3E0FFEC
:101150009000E6EEF0A3EFF09000E6E4F0A3740553
:10116000F0900103E0FEA3E0FFC3EF9464EE94006F
:1011700040259000E4E0FEA3E0FF9000E6E0FCA341
:10118000E0FDEDB50711ECB5060D900004E4F0901C
:101190000004E0FF123A95900105E0FEA3E0FF1283
:1011A0003539123C2ED007D006D005D004D003D05C
:1011B00002D001D000D0D0D093D086D084D085D0BA
:1011C00082D083D0F0D0E0327B007A4679E8123BBF
:1011D00088EF4405FD7B007A4679E8123B94751947
:1011E00000E519C3940B503AAF19EF75F005A4242C
:1011F00047F582E4343CF583AF82AE838E0D8F0ECB
:10120000AE0DAF0E8F828E8312083BAE0DAF0E8FE8
:10121000828E83740393FC740493FD12368B05193C
:1012200080BF751900E519C394025078AF19EF75A6
:10123000F008A4247EF582E4343CF583AF82AE83CB
:101240008E0F8F10AE0FAF108F828E8312083B8BE4
:10125000118A128913AE0FAF108F828E83A3A3A3BE
:1012600012083B8B148A158916AE0FAF108F828E31
:1012700083740693F517740793F518AB14AA15A990
:1012800016C003C002C001AB11AA12A9139000A797
:10129000120832D001D002D003AF18AE1712313B82
:1012A000051980817B087A0079001232297B007A47
:1012B0005879487D037C00123B017B007A58794ABB
:1012C0007D037C01123B017B007A58794C7D037CC5
:1012D00002123B017B007A58794E7D037C03123B5E
:1012E000017B017A507903123B88EF4402FD7B01B8
:1012F0007A507903123B947B017A507913123B8820
:10130000EF4402FD7B017A507913123B949043A085
:10131000E0FFEF4440FF9043A0EFF09043C2E0FFB6
:10132000EF4410FF9043C2EFF07B087A0779E4C0E6
:1013300003C002C0017B007A5179129000A7120805
:1013400032D001D002D0037F087E0012313B7B08EF
:101350007A0779ECC003C002C0017B007A5179C2E0
:101360009000A7120832D001D002D0037F087E007F
:1013700012313B7B087A0779F4C003C002C0017BBD
:10138000007A5179229000A7120832D001D002D001
:10139000037F087E0012313B7B087A0779FCC0038B
:1013A000C002C0017B007A5179429000A712083236
:1013B000D001D002D0037F087E0012313B7B087A37
:1013C000087904C003C002C0017B007A51795290B1
:1013D00000A7120832D001D002D0037F087E00128D
:1013E000313B7B087A08790CC003C002C0017B0046
:1013F0007A5179629000A7120832D001D002D0034E
:101400007F087E0012313B7B017A0279DB7D8412FA
:101410003B949044F47401F09046ECE0FFEFC394E9
:10142000055006904689743AF090480074F1F01225
:10143000167190480074B1F01223597B007A4379F9
:10144000A0C003C002C0017B007A4379B09000A71E
:10145000120832D001D002D0037F0E7E0012313B41
:101460009043B0E0FFEF54FDFF9043B0EFF02290C7
:10147000009EEFF090009FECF0A3EDF09000A1EA49
:10148000F0A3EBF090009EE0FFEF120847149D04DC
:1014900014CA0714F50815200A0000154B9000A384
:1014A000E0FFEFD3940F40117B0C7A017918123BC7
:1014B000889000A4EFF00215507B0C7A01791C1281
:1014C0003B889000A4EFF00215509000A3E0FFEFDE
:1014D000D3940F40107B0C7A017919123B8890004D
:1014E000A4EFF0806B7B0C7A01791D123B88900091
:1014F000A4EFF0805B9000A3E0FFEFD3940F4010C7
:101500007B0C7A01791A123B889000A4EFF080409E
:101510007B0C7A01791E123B889000A4EFF080309A
:101520009000A3E0FFEFD3940F40107B0C7A017979
:101530001B123B889000A4EFF080157B0C7A017998
:101540001F123B889000A4EFF080059000A4E4F007
:1015500090009EE0FFEF603B90009EE0FFEF640193
:10156000603190009EE0FFEF6402602790009EE0F3
:10157000FFEF6403601D90009EE0FFEF64056013C1
:1015800090009EE0FFEF6406600990009EE0FFEF90
:10159000B4090A9000A5E4F0A3E4F0801D9000A433
:1015A000E0FFEF3395E0FEEF7805C333CE33CED8BE
:1015B000F9FF9000A5EEF0A3EFF09000A5E0FEA3E8
:1015C000E0FF90009FE0FCA3E0FDED2FFFEC3EFE6E
:1015D0009000A7EEF0A3EFF09000A1E0FEA3E0FFE3
:1015E0009000A7E0FCA3E0FD1208919000A912086A
:1015F000067B007A80790078009000A91207EE122D
:10160000071D9000A7EEF0A3EFF09000A3E0FFEF1E
:10161000C3940E50379000A7E0FEA3E0FF9000A314
:10162000E0FDC3740E9DFDEFA805088005CEC31331
:10163000CE13D8F9FF9000A7EEF0A3EFF09000A32F
:10164000E0FFEF04FF904E0EEFF08006904E0E7418
:101650000FF09000A7E0FEA3E0FF904E0CEFF0909B
:1016600000A7E0FEA3E0FFEEFF7E00904E0DEFF03E
:10167000227E007F9B90009FEEF0A3EFF07B007A2C
:101680004079807F0C7E007D187C00123A337B000D
:101690007A4079847F1D7E007D197C00123A337B6D
:1016A000007A4079887F1D7E007D197C00123A33D4
:1016B0007B007A40798C7F2F7E757D197C00123AF1
:1016C000337B007A4079907F2F7E757D197C0012E4
:1016D0003A337B087A087914C003C002C0017B004A
:1016E0007A4179009000A7120832D001D002D003CD
:1016F0007F047E0012313B9043007402F090400062
:101700007408F09042007403F07B0C7A017908129F
:101710003B889046A1EFF07B007A4279227D087CDD
:1017200000123B017B007A4279207D517C10123BF4
:10173000019000A1E4F07F197E007D007C00900004
:101740009B12080690009FE0FEA3E0FF8F828E832D
:101750001207EEEC4D4E4F604E9000A1E0FFEF649B
:10176000036044904225E0FFEF5401FF7E009000AB
:10177000A1E0FEEE25E0FEEE4FFFEF5403FF9000E8
:10178000A1EFF07FE07E017D007C0012310090002F
:101790009B1207EE7BFF7AFF79FF78FF12067790A6
:1017A000009B120806809D7B007A4079047D007CB6
:1017B00001123B019040047407F0904006E4F09061
:1017C00040087448F0904004E4F09040017402F046
:1017D00090400B7404F09043A2E0FFEF441FFFEF32
:1017E000F09043A1E0FFEF4401FFEFF09043A0E051
:1017F000FFEF4480FFEFF0224C00BF00000000002C
:10180000000000000000004400DC47C35000440119
:1018100031447A00004400B540F889BA4400CD0054
:101820000000004400E00000000044012900000026
:101830000044012300000000410137004400B93F8B
:10184000C000004400F00000000044010700000058
:101850000044011100000000440115000000004494
:1018600001194496000044010D41F0000044011D9F
:1018700042DC0000420105006E420103000042000C
:10188000EA00004200CB000142013500024200DACA
:10189000000342012100044200BD00054200E400B3
:1018A000064200E800634200E600214100D9004101
:1018B0000102004200F8000042010B00004201005A
:1018C00000004400D50000000044012D000000008D
:1018D0004400EC000000004400D10000000044007F
:1018E000FC000000004201270098410193004101E3
:1018F0009200440177016E360044017200005DC021
:101900004101761844017C2EE00000410194004121
:101910000195004101960041019700410198004165
:1019200001990041019A0041019B0041019C004145
:10193000019D0041019E004101800041018B004159
:1019400001860041018C00410185014401870000AE
:10195000000044018100001F4041019F004101A09F
:10196000FF43018D0000004101A1000090009EEFA7
:10197000F090018BE4F0900186E0FFEF70519058F9
:10198000967407F0905897E4F090589EE4F0905BBE
:1019900007E0FFEF4418FFEFF0905893E4F0905BFE
:1019A00088E4F0905B89E4F0905880740AF09058D5
:1019B00081E4F0905882747AF0905883E4F0905863
:1019C0008DE4F0904E017414F0904E147401F09078
:1019D000009EE0FFEF64016003021AAC904E0074B9
:1019E00038F0904E027405F0904E037408F0904E5B
:1019F00004E4F0904E05E4F0904E06742DF0904E05
:101A00000874DAF0904E09741EF0904E0AE4F090DB
:101A100058847414F09058857409F0905886740AAC
:101A2000F0905887E4F09058887412F090588974B8
:101A300013F090588A7455F090588B745AF090585F
:101A40008C7405F090588E7401F090588F7411F0DA
:101A50009058907419F09058917497F07F4C122F11
:101A6000449058947458F0905895E4F090589A74B3
:101A700005F090589B7401F090589C7401F09058B8
:101A80009D740AF07F011234EA7F407E1F7D007C46
:101A9000009001811208067D077F1D1223F07C1F34
:101AA0007DE37F1D1222247F1D12217B229000B432
:101AB000E4F0905120E0FFEF5480FFEFF0905122CE
:101AC000E0FFEF54F0FF9000B4EFF09000B4E0FFBF
:101AD000EF440FFF905122EFF0905123E0FFEF54BD
:101AE000F0FF9000B4EFF09000B4E0FF905123EFCE
:101AF000F0905124E0FFEF54F0FF9000B4EFF0902D
:101B000000B4E0FF905124EFF0905120E0FFEF543B
:101B1000DFFFEFF0905120E0FFEF4440FFEFF07F58
:101B2000007E001231FC905120E0FFEF4410FFEFE7
:101B3000F07F017E001231FC905121E0FF9000B453
:101B4000EFF0905120E0FFEF54EFFFEFF09000B482
:101B5000E0FFEF5408FF9000B4EFF0905120E0FF59
:101B6000EF4410FFEFF07F017E001231FC90512016
:101B7000E0FFEF54EFFFEFF09000B4E0FFEF709F55
:101B8000905120E0FFEF54BFFFEFF0905120E0FFB5
:101B9000EF5480FFEFF0905122E0FFEF54F0FF9000
:101BA00000B4EFF09000B4E0FF905122EFF09051BC
:101BB00023E0FFEF54F0FF9000B4EFF09000B4E0AA
:101BC000FFEF440FFF905123EFF0905124E0FFEF1F
:101BD00054F0FF9000B4EFF09000B4E0FFEF440F3A
:101BE000FF905124EFF022C0E0C0F0C083C082C05B
:101BF00085C084C086758600C093759300C0D0757B
:101C0000D000C000C001C002C003C004C005C006AF
:101C1000C007123BB49000F8EEF0A3EFF0123BB413
:101C200090010BEEF0A3EFF090010BE0FEA3E0FFBC
:101C30009000F8E0FCA3E0FDC3ED9FFDEC9EFCE40A
:101C40001203369000D51208067F007E007D407C8E
:101C5000C49000D51207FA12002190012D12080637
:101C60009000EC1207EE90012D1207FA120021905D
:101C700000EC1208069000D11207FA90012D12070D
:101C8000EE12001D9000FC12080690012D1207EEC6
:101C90009000D11208067F007E407D1C7C4690009B
:101CA000D51207FA1202B86002504A7FCD7ECC7D71
:101CB000CC7C3D90012D1207FA1201127B007A00B4
:101CC0007918784312002112036F900127EEF0A3D8
:101CD000EFF09000E4E0FEA3E0FF9000E6E0FCA35C
:101CE000E0FDEDB5070FECB5060B900127E0FEA374
:101CF000E0FF123623123C3AD007D006D005D004BC
:101D0000D003D002D001D000D0D0D093D086D084E0
:101D1000D085D082D083D0F0D0E03290009EEEF01B
:101D2000A3EFF09000AAE4F09000ABE4F090009EE6
:101D3000E0FEA3E0FFC3EF940AEE9400404590005C
:101D40009EE0FEA3E0FF7C007D0A12060CAF05EFCB
:101D50002430FF9000AAE0FE74A52EF582E4340042
:101D6000F583EFF090009EE0FEA3E0FF7C007D0A8B
:101D700012060C90009EEEF0A3EFF09000AAE00493
:101D8000F080AA90009EE0FEA3E0FF7C007D0A1296
:101D9000060CAF05EF2430FF9000AAE0FE74A52EDC
:101DA000F582E43400F583EFF09000AAE0FF9000A4
:101DB000ABEFF09000AAE0FFEF64FF603E9000AA56
:101DC000E0FF74A52FF582E43400F583E0FF900076
:101DD000AAE0FEEEFD7C009000ABE0FEEEFB7A0098
:101DE000C3EB9DFDEA9CFC74A02DF58274003CF5CC
:101DF00083EFF09000AAE014F080B89000ABE0FF11
:101E000074A12FF582E43400F583E4F07B017A00BD
:101E100079A0122CBF2275930078007583467582D5
:101E2000E8E04401F0009046ECE0F99046FAE0FA70
:101E3000B903225420B40012B8001AEA901FFFF030
:101E40007401901FFEF09046F6F0901FFEE06005D2
:101E5000901FFFE0FA90480074C0F0758121900057
:101E60000078007920E4F0A3D8FCD9FAEA90017B4D
:101E7000F0020011751A1F751BFD1211C8021EBB5E
:101E8000021F00E493A3F8E493A34003F68001F259
:101E900008DFF48029E493A3F85407240CC8C33363
:101EA000C4540F4420C8834004F456800146F6DF32
:101EB000E4800B01020408102040809017F8E47EB3
:101EC000019360BCA3FF543F30E509541FFEE49327
:101ED000A360010ECF54C025E060A840B8E493A3EE
:101EE000FAE493A3F8E493A3C8C582C8CAC583CA19
:101EF000F0A3C8C582C8CAC583CADFE9DEE780BED1
:101F000090009BE4F090009CE4F0A3E4F0D2AF904A
:101F100044F4E0FFEF54FDFFEFF0123877123B344A
:101F2000123B5812388C1238B61235D512384D1271
:101F300038E01238381239887E0E7F231230E112D1
:101F4000399B7E2B7F691233FB1239AE7E1B7FE7F4
:101F50001234191239C17E2C7F6E1234371238A117
:101F600012363D12390A1239D47E247F8512345537
:101F70001239341239E77E257F09123473123B700F
:101F80001239FA7E227FC112349190011D1207EEA0
:101F900012036F12353990009BE0FF123A95123A06
:101FA0000D7E257F8D1234AF7D007F01122BC090F6
:101FB00000E6E0FEA3E0FF121D1B1236711234CDC5
:101FC0007F1D12217B123B7C90009CE0FEA3E0FF72
:101FD000EFB410F4EEB427F090009CE4F0A3E4F02A
:101FE00080E622C0E0C0F0C083C082C085C084C04B
:101FF00086758600C093759300C0D075D000C00070
:10200000C001C002C003C004C005C006C0077D0EE9
:102010007F01122BC07BFF7A3279EB122CBF7D0738
:102020007F00122BC07BFF7A3279EE122CBF90001A
:10203000E6E0FEA3E0FFEF64214E70657D077F00C0
:10204000122BC07BFF7A3279F2122CBF1229249016
:1020500000531208069000531207EE122AB19000A6
:10206000571208067D007F01122BC07B017A007990
:102070005BC003C002C0017BFF7A3279F690006E2C
:102080001208329000571207EE900071120806D025
:1020900001D002D003120A057B017A00795B122C71
:1020A000BFD007D006D005D004D003D002D001D0D5
:1020B00000D0D0D093D086D084D085D082D083D0A9
:1020C000F0D0E0329043AAE0FFEF4401FFEFF09040
:1020D00043AAE0FFEF4410FFEFF09043BAE0FFEFB8
:1020E0004401FFEFF09043BAE0FFEF4410FFEFF040
:1020F000900185E0FFEF640170499046F8E0FFEF42
:102100004402FFEFF09046F9E0FFEF4402FFEFF0EA
:10211000905891E0FFEF4403FFEFF0905892E0FFFA
:10212000EF4408FFEFF07F037E001231FC9046F889
:10213000E0FFEF54FDFFEFF09046F9E0FFEF54FDB4
:10214000FFEFF0905877E0FFEF4406FFEFF0904389
:10215000A1E0FFEF4401FFEFF09043B1E0FFEF4457
:1021600001FFEFF09043A2E0FFEF4401FFEFF0909A
:1021700043B2E0FFEF4401FFEFF02290FFFF1208AF
:102180006DEFF090FFFE12086D851A83851B82A308
:10219000A3E0FFEFD3941F5003D38001C3402585F4
:1021A0001A83851B82A3A3E0FFEFD3941F500A7FFD
:1021B000017E007D007C0080087F007E007D007C29
:1021C0000012334F851A83851B82A3A3E0FFEF54CF
:1021D0001FFF7E00EF7803CEC313CE13D8F9FFEFB5
:1021E00024C0FFEE3444FE851A83851B82EEF0A3E3
:1021F000EFF0851A83851B82A3A3E0FFEF5407FF4E
:102200007401A807088002C333D8FCFF851A8385B0
:102210001B82E0FCA3E0FD8D828C83EFF090000335
:1022200012086D2290009FEFF09000A0ECF0A3ED5B
:10223000F090009FE0FFEFD3941F5003D38001C3C1
:10224000402090009FE0FFEFD3941F500A7F017E53
:10225000007D007C0080087F007E007D007C0012F5
:10226000334F90009FE0FFEF541FFF7E00EF25E00B
:10227000FFEE33FEEF2400FFEE3444FEAA06A9076A
:102280007B01123AF49000A2EEF0A3EFF090009FD1
:10229000E0FF7E02EF8EF0A4FFAEF0EF2400FFEE31
:1022A0003444FEAA06A9077B019000A0E0FEA3E04B
:1022B000FFAD07AC06123B039000A2E0FEA3E0FFD7
:1022C00022C0E0C0F0C083C082C085C084C08675D3
:1022D0008600C093759300C0D075D000C000C001C7
:1022E000C002C003C004C005C006C007900135E0AD
:1022F000FEA3E0FF9000E6E0FCA3E0FDED6F7002BE
:10230000EC6E70329000DAE0FEA3E0FF9000E6EEA3
:10231000F0A3EFF07D007F00122BC09000E6E0FEFE
:10232000A3E0FF121D1B7D007F01122BC07BFF7AF3
:102330003279E1122CBFD007D006D005D004D003EB
:10234000D002D001D000D0D0D093D086D084D08518
:10235000D082D083D0F0D0E0327B0C7A0179CF12DA
:102360003B8890009BEFF090009BE0FFEF5407FF4D
:1023700090586EEFF090009BE0FFEFC4540FFFEF1A
:10238000540FFF90586FEFF090514D7404F090513E
:102390005D7414F090516D7401F0905A807402F0E5
:1023A000905A907410F0905A987420F0905AC0741B
:1023B00001F0905AC47410F0905AC87401F0905A09
:1023C000CB7440F0905AD07440F0905AD47402F01C
:1023D000905AD87404F07B027A5A79DB7D407C20D5
:1023E000123B03905B007401F09058767444F02225
:1023F00090009FEFF09000A0EDF09000A0E0FFEFC4
:10240000D394075003D38001C340209000A0E0FF85
:10241000EFD39407500A7F017E007D007C00800886
:102420007F007E007D007C0012334F90009FE0FF14
:10243000EFD3941F5003D38001C3402090009FE04E
:10244000FFEFD3941F500A7F017E007D007C008047
:10245000087F007E007D007C0012334F9000A0E0DA
:10246000FFEF5407FF7E00EF75F020A4FFAEF09061
:10247000009FE0FEEE541FFE74802EF582E434448B
:10248000F583EFF022C0E0C0F0C083C082C085C0F9
:1024900084C086758600C093759300C0D075D00047
:1024A000C000C001C002C003C004C005C006C00710
:1024B0009000EAE0FEA3E0FF9000E6E0FCA3E0FD70
:1024C000EDB50722ECB5061E9000367402F09000C0
:1024D00036E0FF123A959000CBE0FEA3E0FF9000BB
:1024E000E6EEF0A3EFF0D007D006D005D004D0037D
:1024F000D002D001D000D0D0D093D086D084D08567
:10250000D082D083D0F0D0E032C0E0C0F0C083C031
:1025100082C085C084C086758600C093759300C054
:10252000D075D000C000C001C002C003C004C00507
:10253000C006C0079000DAE0FEA3E0FF9000E6E0EE
:10254000FCA3E0FDEDB50722ECB5061E90004F742C
:1025500003F090004FE0FF123A95900121E0FEA3B6
:10256000E0FF9000E6EEF0A3EFF0D007D006D00534
:10257000D004D003D002D001D000D0D0D093D086E8
:10258000D084D085D082D083D0F0D0E032C0E0C0FB
:10259000F0C083C082C085C084C086758600C093A9
:1025A000759300C0D075D000C000C001C002C00348
:1025B000C004C005C006C0079000E4E0FEA3E0FF31
:1025C0009000E6E0FCA3E0FDEDB50721ECB5061DAB
:1025D000900051E4F0900051E0FF123A959000E82D
:1025E000E0FEA3E0FF9000E6EEF0A3EFF0D007D00E
:1025F00006D005D004D003D002D001D000D0D0D076
:1026000093D086D084D085D082D083D0F0D0E032F1
:10261000906474E0FFEF54F8FF90009EEFF090009C
:102620009EE0FFEF4401FF906474EFF0906474E06B
:10263000FFEF54E7FF90009EEFF090009EE0FFEF69
:102640004408FF906474EFF0123AC57FFF7EFF7D6F
:10265000FF7C001237887F007E007D007C001237EF
:10266000727F1C123A45123C2E7F807E007D007CDA
:102670000012379E12397390009FEFF0906496E03D
:10268000FFEF4410FFEFF090009FE0FF1236A4220E
:102690007F287E007D007C0012270A7F03122D57C1
:1026A0007F057E007D007C0012270A7F03122D57D4
:1026B0007F0F7E007D007C0012270A7F03122D57BA
:1026C0007F017E007D007C0012270A7F02122D57B9
:1026D0007F057E007D007C0012270A7F06122EBC3B
:1026E0007F0E122EBC7F2C122EBC7F08122EBC7FB8
:1026F00001122EBC7F0C122EBC7F03122EBC7F0554
:102700007E007D007C0012270A2290FFFC12086DDB
:102710001208067F007E807D007C00851A83851B61
:10272000821207FAD31207CA403090017C1207EEDA
:10273000123100851A83851B82C083C0821207EE86
:10274000C3EF9400FFEE9480FEED9400FDEC940046
:10275000FCD082D08312080680B99001721207EE75
:10276000851A83851B821207FA1206921231009095
:10277000000412086D22906471E0FFEF54F8FF909E
:10278000009EEFF090009EE0FF906471EFF0906487
:1027900071E0FFEF54E7FF90009EEFF090009EE0A5
:1027A000FF906471EFF0123AD47F637E0012356DB2
:1027B0007F007E001235537F0C123A55123C347F55
:1027C000317E0012358712397390009FEFF09064CC
:1027D00093E0FFEF4410FFEFF090009FE0FF123610
:1027E000A422904F0CE0FFEF5401FFEFF0904F0E4A
:1027F000E0FFEF54FCFFEFF0904F0CE0FFEF4404DC
:10280000FFEFF0904F0DE0FFEF4401FFEFF0904F2E
:1028100017E0FFEF54CFFFEFF0904F17E0FFEF44CA
:1028200030FFEFF0904F17E0FFEF54F0FFEFF09024
:102830004F17E0FFEF440FFFEFF07FE87E03123603
:10284000577FE87E03122B0E7F08123AA52290656F
:1028500078E0FFEF54C0FF90009EEFF090009EE004
:10286000FFEF4409FF906578EFF0906598E0FFEF87
:102870004401FFEFF0906599E0FFEF4401FFEFF0B6
:102880007FE77E031235057FE77E0312351F7FFA4F
:102890007E00123539906589E4F012397390009FFB
:1028A000EFF0906599E0FFEF4410FFEFF090009F8C
:1028B000E0FF1236A412386222906478E0FFEF54F1
:1028C000C0FF90009EEFF090009EE0FFEF4409FFF4
:1028D000906478EFF0906498E0FFEF4401FFEFF030
:1028E000906499E0FFEF4401FFEFF07FE77E031271
:1028F00035EF7FE77E031236097F987E001236237C
:10290000906488E4F012397390009FEFF09064981F
:10291000E0FFEF4410FFEFF090009FE0FF1236A4BD
:102920001238F522904E12E0FFEF54FFFFEF33957F
:10293000E0FEFDFC90006B12080690006B1207EEA3
:1029400078081207DBA804A905AA06AB07904E1168
:10295000E0FFE4FCFDFE1207AF90006B120806904A
:10296000006B1207EE78081207DBA804A905AA0677
:10297000AB07904E10E0FFE4FCFDFE1207AF9000A5
:102980006B12080690006B1207EE2290009EEFF08B
:1029900090009EE0FFEF5403FF905842E0FEEE549B
:1029A000FCFEEE4FFF905842EFF090009EE0FFEFEC
:1029B000B4011D7B0C7A017912123B88904634EFEA
:1029C000F07B0C7A017916123B88904635EFF022A5
:1029D0007B0C7A0179B1123B88904634EFF07B0C86
:1029E0007A0179B9123B88904635EFF02290009E2B
:1029F000EFF090009EE0FFEF5403FF905841E0FE9F
:102A0000EE54FCFEEE4FFF905841EFF090009EE038
:102A1000FFEFB4011D7B0C7A017911123B889046BF
:102A200032EFF07B0C7A017915123B88904633EF38
:102A3000F0227B0C7A0179AF123B88904632EFF09E
:102A40007B0C7A0179B7123B88904633EFF02290E5
:102A5000009EEFF090009EE0FFEF5403FF9058437C
:102A6000E0FEEE54FCFEEE4FFF905843EFF0900076
:102A70009EE0FFEFB4011D7B0C7A017913123B88B5
:102A8000904636EFF07B0C7A017917123B8890461E
:102A900037EFF0227B0C7A0179B3123B88904636EF
:102AA000EFF07B0C7A0179BB123B88904637EFF050
:102AB0002290006B1208067F007E007D007C009053
:102AC000006F12080690006B1207EE900187120744
:102AD000FA12068490006B1208069001811207EE2C
:102AE000EC120331C004C005C006C00790006B1291
:102AF00007EEEC120331D003D002D001D000120255
:102B00001B90006F12080690006F1207EE229000D3
:102B100009EEF0A3EFF09043A3E0FFEF5402FF7E35
:102B200000EF4E601C9043A3E0FFEF5402FF7E00D5
:102B3000EF4E70047F0180027F00E4FCFDFE123343
:102B40004F9043A3E0FFEF4402FFEFF07B027A4F88
:102B50007912900009E0FCA3E0FD123B039043A32F
:102B6000E0FFEF54FDFFEFF022C0E0C0F0C083C0F3
:102B700082C085C084C086758600C093759300C0EE
:102B8000D075D000C000C001C002C003C004C005A1
:102B9000C006C007900137E004F0123C2ED007D0E9
:102BA00006D005D004D003D002D001D000D0D0D0C0
:102BB00093D086D084D085D082D083D0F0D0E0323C
:102BC00090009EEFF090009FEDF090009EE0FFEFF0
:102BD0001208472BE3002BF0012BFD022C0A030007
:102BE000002C1690009FE0FFEF2480FF122EBC22E5
:102BF00090009FE0FFEF24C0FF122EBC2290009FA8
:102C0000E0FFEF2494FF122EBC2290009FE0FFEF24
:102C100024D4FF122EBC229000B3EFF0121AAD9014
:102C20005120E0FFEF4420FFEFF0905120E0FFEF54
:102C300054BFFFEFF0905120E0FFEF54F0FFEFF0B2
:102C4000905120C083C082E0FF9000B3E0FEEE44CC
:102C500010FEEF4EFFD082D083EFF07F017E001296
:102C600031FC905120E0FFEF54EFFFEFF022C0E085
:102C7000C0F0C083C082C085C084C086758600C095
:102C800093759300C0D075D000C000C001C002C0D1
:102C900003C004C005C006C007123C34D007D006EC
:102CA000D005D004D003D002D001D000D0D0D09332
:102CB000D086D084D085D082D083D0F0D0E032903E
:102CC00000AC1208329000AF7401F09000AC120812
:102CD000121205A2FF9000B0EFF09000B0E0FFEFFD
:102CE000602A9000B0E0FF1230759000AC1208121C
:102CF0009000AFE0FFE92FF9E43AFA1205A2FF9045
:102D000000B0EFF09000AFE004F080CE229000A180
:102D1000EFF09000A1E0FFEFC3940250399000A1C2
:102D2000E0FFEF25E0248EF582E4343CF583E49364
:102D3000FE740193FF8F828E83C083C082E0FF9078
:102D400000A1E0FEEE903C9293FEEEF4FEEF5EFFFB
:102D5000D082D083EFF0229000A2EFF0905120E0DB
:102D6000FFEF549FFFEFF0905120E0FFEF54F0FF92
:102D7000EFF0905120C083C082E0FF9000A2E0FEFF
:102D8000EE4410FEEF4EFFD082D083EFF07F017E45
:102D9000001231FC905120E0FFEF54EFFFEFF022E2
:102DA000905820E0FFEF540CFF7E00EF7802CEC376
:102DB00013CE13D8F9FFEF2406FF90009FEFF09099
:102DC000009FE0FFE4FCFDFEEF2420FFEE3401FE57
:102DD000ED340CFDEC3400FCA907AA06AB05123B50
:102DE00088904608EFF02290582CE0FFEF540CFF3B
:102DF0007E00EF7802CEC313CE13D8F9FFEF24067E
:102E0000FF90009FEFF090009FE0FFE4FCFDFEEFDD
:102E10002438FFEE3401FEED340CFDEC3400FCA947
:102E200007AA06AB05123B8890460BEFF02290589C
:102E300028E0FFEF540CFF7E00EF7802CEC313CEE4
:102E400013D8F9FFEF2406FF90009FEFF090009F4A
:102E5000E0FFE4FCFDFEEF2428FFEE3401FEED343C
:102E60000CFDEC3400FCA907AA06AB05123B8890C8
:102E7000460AEFF0229000A0EFF09000A0E0FFEFF4
:102E8000C3940250369000A0E0FFEF25E0248EF5B9
:102E900082E4343CF583E493FE740193FF8F828EC9
:102EA00083C083C082E0FF9000A0E0FEEE903C92E1
:102EB00093FEEF4EFFD082D083EFF0229000A0EF80
:102EC000F09000A0E0FFEFC4540FFF9000A1EFF0DE
:102ED000121AAD9000A1E0FFEF540FFF9000A1EF98
:102EE000F09000A1E0FF122D579000A0E0FFEF54FA
:102EF0000FFF9000A1EFF09000A1E0FF122D5722EC
:102F0000C2D5E830E70FB2D5E4C39BFBE49AFAE4FC
:102F100099F9E498F8EC30E717B2D5122F3612077A
:102F20001DE4C39BFBE49AFAE499F9E498F8800362
:102F300012071D30D50DE4C39FFFE49EFEE49DFD06
:102F4000E49CFC2290009FEFF09046F8E0FFEF44F5
:102F500003FFEFF09046F9E0FFEF4403FFEFF0903E
:102F6000009FE0FF905892EFF07F037E001231FC4B
:102F70009046F8E0FFEF54FCFFEFF09046F9E0FFD9
:102F8000EF54FCFFEFF0227F0112298B905842E0B2
:102F9000FFEF4420FFEFF0905842E0FFEF54FBFFBB
:102FA000EFF0905842E0FFEF4408FFEFF0905AD75F
:102FB000E0FFEF54E7FFEFF0905AD7E0FFEF44084F
:102FC000FFEFF0227F001229ED905841E0FFEF441F
:102FD00020FFEFF0905841E0FFEF54FBFFEFF0903F
:102FE0005841E0FFEF4408FFEFF0905ACFE0FFEFC9
:102FF00054E7FFEFF0905ACFE0FFEF4408FFEFF007
:10300000227F00122A4F905843E0FFEF4420FFEF49
:10301000F0905843E0FFEF54FBFFEFF0905843E08F
:10302000FFEF4408FFEFF0905ADFE0FFEF54E7FFB7
:10303000EFF0905ADFE0FFEF4408FFEFF0227FFF50
:103040007EFF1235A17FFF7EFF1235BB12397390D0
:10305000009EEFF0906491E0FFEF4410FFEFF090DE
:10306000009EE0FF1236A47F011230AB123AE37FDC
:1030700002123A65229000B1EFF0121AAD9000B141
:10308000E0FFEFC4540FFF9000B2EFF09000B2E009
:10309000FF122C179000B1E0FFEF540FFF9000B229
:1030A000EFF09000B2E0FF122C172290009FEFF09B
:1030B00090009FE0FFEF5403FF90009FEFF09064BB
:1030C00072E0FFEF54FCFFEFF0906472C083C082A7
:1030D000E0FF90009FE0FEEF4EFFD082D083EFF044
:1030E0002290009EEEF0A3EFF07B027A44790890E4
:1030F000009EE0FEA3E0FFAD07AC06123B032232C8
:10310000EC4D4E700D78FCEF24E950032840FD2271
:1031100000007BF178DA0000EF28FF78FFEE38FE40
:10312000ED38FDEC38FC50E7EF2BFFEE38FEED38C4
:10313000FDEC38FC40F22205020304758600EF4ED8
:103140006027EF60010E7593009000A7E0F595A34E
:10315000E0F585A3E0F5848B938A838982E0A3055B
:1031600086F0A31586DFF6DEF4E4F593F59522905C
:10317000009EEFF0905820E0FFEF54F3FFEFF09047
:103180005820C083C082E0FF90009EE0FEEE540C09
:10319000FEEF4EFFD082D083EFF0122DA0229000E0
:1031A0009EEFF090582CE0FFEF54F3FFEFF09058B3
:1031B0002CC083C082E0FF90009EE0FEEE540CFE27
:1031C000EF4EFFD082D083EFF0122DE72290009EC9
:1031D000EFF0905828E0FFEF54F3FFEFF0905828FD
:1031E000C083C082E0FF90009EE0FEEE540CFEEF34
:1031F0004EFFD082D083EFF0122E2E22EEFA9001F5
:1032000076E0F88FF0A4FFAEF0E88AF0A42EFEE599
:10321000F03400FDEF24C9FF78FFEE38FEED38FDF5
:10322000E438FC500302310022ACEAADA08B938A53
:10323000838982E0F96017A3E0F5EAA3E0F5A0A393
:10324000E060F4FAA3E0F8A3E0F2DAF8D9E98DA09F
:103250008CEAE4F5932290009EEFF0905820E0FF76
:10326000EF54FDFFEFF0905820C083C082E0FF9044
:10327000009EE0FEEE5402FEEF4EFFD082D083EFC0
:10328000F02290009EEFF090582CE0FFEF54FDFFED
:10329000EFF090582CC083C082E0FF90009EE0FECB
:1032A000EE5402FEEF4EFFD082D083EFF02290006A
:1032B0009EEFF0905828E0FFEF54FDFFEFF090589C
:1032C00028C083C082E0FF90009EE0FEEE5402FE24
:1032D000EF4EFFD082D083EFF02273006C656570F3
:1032E0000077616974206F76657200283A00686122
:1032F0006900686579004144433A2025312E3466DF
:10330000009000A0E4F09000A0E0FFEFC394025012
:10331000109000A0E0FF122D0D9000A0E004F080BE
:10332000E59001A074FFF022EFB40A07740D123388
:1033300033740A309811A899B8130CC2983098FDCC
:10334000A899C298B811F63099FDC299F5992290C2
:10335000FFFF12086DEFF0851A83851B82E0FF8561
:103360001A83851B82EFF09046EA7401F090000109
:1033700012086D227F0112196C7F101233B97F1071
:103380001233DA9000A3740EF07BE97A777DB67C75
:103390008D7F0112146F229043A3E0FFEF4402FFE0
:1033A000EFF09043B3E0FFEF4402FFEFF0904F0CDB
:1033B000E0FFEF4401FFEFF02290009EEFF090411C
:1033C00002C083C082E0FF90009EE0FEEE54F8FE53
:1033D000EF4EFFD082D083EFF02290009EEFF0906E
:1033E0004082C083C082E0FF90009EE0FEEE54F871
:1033F000FEEF4EFFD082D083EFF02290009EEEF0E1
:10340000A3EFF07B027A44790A90009EE0FEA3E0ED
:10341000FFAD07AC06123B032290009EEEF0A3EF37
:10342000F07B027A44790290009EE0FEA3E0FFADBB
:1034300007AC06123B032290009EEEF0A3EFF07B58
:10344000027A44790090009EE0FEA3E0FFAD07AC55
:1034500006123B032290009EEEF0A3EFF07B027A6F
:1034600044790490009EE0FEA3E0FFAD07AC061295
:103470003B032290009EEEF0A3EFF07B027A4479AA
:103480000690009EE0FEA3E0FFAD07AC06123B03F2
:103490002290009EEEF0A3EFF07B027A4479109028
:1034A000009EE0FEA3E0FFAD07AC06123B032290B6
:1034B000009EEEF0A3EFF07B027A44790C90009E20
:1034C000E0FEA3E0FFAD07AC06123B0322900186AD
:1034D000E0FFEF701190018CE0FFEF700312337486
:1034E0009001867401F01220C42290009FEFF01228
:1034F000330190009FE0FF122E7590009FE0FF9037
:1035000001A0EFF0229000A0EEF0A3EFF07B027A92
:103510006579089000A0E0FCA3E0FD123B03229037
:1035200000A0EEF0A3EFF07B027A6579489000A04E
:10353000E0FCA3E0FD123B03229000A0EEF0A3EF1D
:10354000F07B027A6579289000A0E0FCA3E0FD12F0
:103550003B03229000A0EEF0A3EFF07B027A6479A7
:10356000029000A0E0FCA3E0FD123B03229000A02B
:10357000EEF0A3EFF07B027A6479229000A0E0FCE9
:10358000A3E0FD123B03229000A0EEF0A3EFF07B3E
:10359000027A6479329000A0E0FCA3E0FD123B03C4
:1035A0002290009FEEF0A3EFF07B027A64792090E6
:1035B000009FE0FCA3E0FD123B032290009FEEF091
:1035C000A3EFF07B027A64790090009FE0FCA3E017
:1035D000FD123B0322900199E0FFEF70091238CBF6
:1035E0009001997401F01236D37FC1123A7522907E
:1035F00000A0EEF0A3EFF07B027A6479089000A0BF
:10360000E0FCA3E0FD123B03229000A0EEF0A3EF4C
:10361000F07B027A6479489000A0E0FCA3E0FD1200
:103620003B03229000A0EEF0A3EFF07B027A6479D6
:10363000289000A0E0FCA3E0FD123B032290019C37
:10364000E0FFEF700912391F90019C7401F01237EE
:10365000017FC8123A8522900009EEF0A3EFF07BBB
:10366000027A4F7910900009E0FCA3E0FD123B03C1
:103670002290019FE0FFEF700912395E90019F7464
:1036800001F012372F7FC8123AB522EC4D6011EDD0
:1036900060010C8B938A838982E4F0A3DDFCDCFA61
:1036A00075930022EF54016004D2AF8002C2AFEFE5
:1036B0005402FF9044F4E054FD4FF0229043A7E001
:1036C000FFEF4404FFEFF09043B7E0FFEF4404FF47
:1036D000EFF0229043A8E0FFEF4401FFEFF09043AA
:1036E000B8E0FFEF4401FFEFF0229043A7E0FFEFC7
:1036F0004402FFEFF09043B7E0FFEF4402FFEFF02A
:10370000229043A8E0FFEF4408FFEFF09043B8E0B9
:10371000FFEF4408FFEFF0229043A7E0FFEF4408DB
:10372000FFEFF09043B7E0FFEF4408FFEFF0229087
:1037300043A8E0FFEF4404FFEFF09043B8E0FFEF51
:103740004404FFEFF02290009EEFF090009EE0FF17
:10375000EFC43354E0FF904484EFF02290009EEFDA
:10376000F090009EE0FFEFC43354E0FF904485EFFB
:10377000F0229000A01208067B027A64790490007F
:10378000A01207EE123A35229000A01208067B0222
:103790007A6479249000A01207EE123A3522900044
:1037A000A01208067B027A6479349000A01207EE1A
:1037B000123A352290009EEFF090009EE0FFEFC499
:1037C0003354E0FF904481EFF02290009EEFF090A0
:1037D000009EE0FFEFC43354E0FF904480EFF022FE
:1037E00090009EEFF090009EE0FFEFC43354E0FFA6
:1037F000904482EFF02290009EEFF090009EE0FF58
:10380000EFC43354E0FF904483EFF02290009EEF2A
:10381000F090009EE0FFEFC43354E0FF904488EF47
:10382000F02290009EEFF090009EE0FFEFC4335432
:10383000E0FF904486EFF022900192E0FFEF7009E4
:103840001226909001927401F0123B102290019484
:10385000E0FFEF700912284E9001947401F0123BC2
:103860001C22906569E0FFEF30E40B7B027A6579FA
:1038700058123AF480EC22900195E0FFEF700912A3
:1038800026109001957401F0123B2822900196E0D9
:10389000FFEF70091227769001967401F0123B40F9
:1038A00022900197E0FFEF700912303E900197746B
:1038B00001F0123B4C22900198E0FFEF7009122FAB
:1038C000879001987401F01236BC22905820E4F0E1
:1038D000905821E4F07F0012316F7F00123256229F
:1038E00090019AE0FFEF70091228B990019A7401D3
:1038F000F0123B6422906468E0FFEF30E40B7B023F
:103900007A647958123AF480EC2290019BE0FFEF40
:103910007009122FC490019B7401F01236EA2290B4
:10392000582CE4F090582DE4F07F0012319E7F0077
:103930001232822290019DE0FFEF70091230019057
:10394000019D7401F01237182290019EE0FFEF7084
:10395000091227E290019E7401F0123397229058C9
:1039600028E4F0905829E4F07F001231CD7F001256
:1039700032AE229044F4E0F84402F0E85402FF1022
:10398000AF012274014FFF22123BC57E307FFF1230
:1039900030E17F07123746123BBE22123BD37E3CFA
:1039A0007F401233FB7F0712375C123BCC22123B65
:1039B000E17E3C7F411234197F001237B4123BDAAA
:1039C00022123BEF7E3C7F421234377F071237CA08
:1039D000123BE822123BFD7E3C7F431234557F07A9
:1039E0001237E0123BF622123C0B7E3C7F4412342D
:1039F000737F071237F6123C0422123C197E3C7F7B
:103A0000451234917F0712380C123C1222123C27C7
:103A10007E3C7F461234AF7F07123822123C2022B0
:103A20008B938A838982E0FFA3E0FEA3E0FDE4FCA0
:103A3000F593228B938A838982EFF0A3EEF0A3EDB6
:103A4000F0759300229000A0EFF09000A0E0FF90AE
:103A50006486EFF0229000A0EFF09000A0E0FF90CD
:103A60006483EFF02290009FEFF090009FE0FF90C2
:103A70006481EFF02290009EEFF090009EE0FF90B6
:103A80005B80EFF02290009EEFF090009EE0FF90B0
:103A90005B83EFF02290009EEFF090009EE0FF909D
:103AA0006579EFF022900009EFF0900009E0FF90B7
:103AB0004F0FEFF02290009EEFF090009EE0FF90FD
:103AC0005B82EFF022123C2E7E00EF30E605123BC7
:103AD000A080F222123C347E00EF30E605123BAAB1
:103AE00080F222123C3A7E00EF30E305123BB480B4
:103AF000F2228B938A838982E0FFA3E0FE75930014
:103B0000228B938A838982EDF0A3ECF075930022D7
:103B10007F0C122EBC9001937401F022906578E026
:103B2000FFEF4480FFEFF022906474E0FFEF4480E9
:103B3000FFEFF0229043A2E0FFEF4402FFEFF022FC
:103B4000906471E0FFEF4480FFEFF022906472E038
:103B5000FFEF4480FFEFF0229043A2E0FFEF440428
:103B6000FFEFF022906478E0FFEF4480FFEFF02257
:103B70009043A2E0FFEF4408FFEFF022904E00E0F8
:103B8000FFEF4401FFEFF0228B938A838982E07577
:103B90009300FF228B938A838982EDF07593002234
:103BA0007B027A647944123A22227B027A64794257
:103BB000123AF4227B027A647940123AF422904459
:103BC000C07410F0229044C87410F0229044C07465
:103BD00020F0229044C87420F0229044C07402F077
:103BE000229044C87402F0229044C07401F02290E4
:103BF00044C87401F0229044C07404F0229044C878
:103C00007404F0229044C07408F0229044C87408F0
:103C1000F0229044C17401F0229044C97401F02252
:103C20009044C07440F0229044C87440F0229064E4
:103C300066E0FF22906463E0FF22906461E0FF226F
:103C4000323232323232320049C80015004F0000A1
:103C500018005100001000513000100051F0001009
:103C600001000000800101000F00011400080001A4
:103C700040000A00014C00020001500000200151E8
:103C80000008075C000801008008076400805B03EF
:043C90005B03402072
:00000001FF
