:10000000022025008F828E83E0540100000070F8EA
:100010002278FFE4F6D8FD0220830203DBE8648047
:10002000F8E933E83360110460F0ED33EC33700924
:10003000E8FCE9FDEAFEEBFF220460DED3EB9FEA79
:100040009EE99DE8C2E78CF0C2F795F0400CE8CC41
:10005000F8E9CDF9EACEFAEBCFFB1203A685D0F092
:100060005804700320D5B3E80470075002B2D502DB
:1000700003E592D5EC0460F7E4CCC0E0C398F860E7
:100080003B94186008400DD0E0FB0203BDE4FBFA8E
:10009000C9FC8028E830E406E4C9FBE4CAFCE83087
:1000A000E305E4C9CACBFCE854076010F8C3E913C0
:1000B000F9EA13FAEB13FBEC13FCD8F130F52FC37C
:1000C000E49CFCEF9BFFEE9AFEED99FDD0E0FBEF88
:1000D0004E4D4C701222DB030203E2EC2CFCEF339A
:1000E000FFEE33FEED33FDED30E7EB0203BDEF2B0A
:1000F000FFEE3AFEED39FDD0E0FB50130BBB0003E1
:100100000203E5ED13FDEE13FEEF13FFEC13FC020B
:1001100003BDEC4D6011E8497017ED33EC3304601A
:100120000DE4FCFFFEFD22E933E8330470F802031E
:10013000DB1203A658046009E4CC24815006285041
:10014000090203E52840030203E2C0E0EB4A7044E1
:10015000B98006D0E0FB0203D1EF4E701CBD8008D1
:10016000EBFFEAFEE9FD80EBE98DF0A4FEE5F0028D
:1001700001FBE9CDF9EAFEEBFFEF89F0A4FCE5F025
:10018000CE89F0A42EFFE435F0CD89F0A42DFEE455
:1001900035F08067EF4E7005BD80D780C3EF8BF0E0
:1001A000A4ACF0EE8BF0A42CFCE435F0F8EF8AF070
:1001B000A42CE5F038FCE433CB8DF0A42CFCE5F066
:1001C0003BF8EE8AF0A42CFCE5F038F8E433CF8954
:1001D000F0A42CFCE5F038CF3400CE89F0A42FFF3A
:1001E000E5F03EFEE433C98DF0A42EFEE5F039CDF6
:1001F0008AF0A42FFFE5F03EFEE43DFD33D0E0FBA6
:1002000050070BBB000F0203E5EC2CFCEF33FFEEB5
:1002100033FEED33FD0203BD0203E5EC5D04600532
:10022000E8590470030203DB1203A6580460F6ECDD
:100230004860F2EC7004FDFEFF22C860DB2481C838
:100240005009C398600250060203E29850CAF58232
:10025000E9294B4A7005AB820203D175F0007C1A84
:100260007880C3EF9BEE9AED99400DC3EF9BFFEEB4
:100270009AFEED99FDE842F0DC23ACF0D0E0FFD02F
:10028000E0FED0E0FDAB8220E7101BEB60BAEC2C67
:10029000FCEF33FFEE33FEED33FD0203BDE803F860
:1002A00030E705C0F075F000EF2FFFEE33FEED33C1
:1002B000FD40B830E7C280AA74F8CC6480CCC86432
:1002C00080C8F58204604FC3EB9FF5F0EA9E42F0D0
:1002D000E99D42F0E89C45F0603C501DE5825FFFDF
:1002E000E582D313CB5BCBF42B5582FB50280ABAA3
:1002F000002409B9002008801DE5825BFBE582D35C
:1003000013CF5FCFF4C3132F5582FF50090EBE00E9
:10031000050DBD00010CC3EB9FF5F0EA9E42F0E92C
:100320009D42F0E89C45F06007CC4820E701B3EC23
:100330002275F020800E75F010800575F0087D00A4
:100340007E007F003392D530D5031207BCEC3340DA
:1003500010EF33FFEE33FEED33FDEC33FCD5F0ED63
:1003600022E5F0247EA2D513CC92E7CDCEFF22ED7C
:10037000D2E7CD33EC3392D524814006E4FFFEFD75
:10038000FC22FCE4CFCECDCC24E0501174FF80EDF4
:10039000C3CC13CCCD13CDCE13CECF13CF0470F07E
:1003A00030D5DE0207BCE9D2E7C933E833F892D58D
:1003B000EDD2E7CD33EC33FC5002B2D522EC30E77E
:1003C000100FBF000C0EBE00080DBD00040BEB604B
:1003D00014A2D5EB13FCED92E7FD2274FFFCFDFEA9
:1003E000FF22E480F8A2D574FF13FC7D80E480EF47
:1003F000F920E73624F950037907E4F42402FBE5F9
:1004000082158270021583DBF6E024FB501BE96045
:1004100014E4F0E582158270021583E004F0B40A5A
:1004200008E4F0D9EE7401F00A22C2D522ED33ECD3
:100430003392D5FA602AB4FF33EDC2E77BFF600642
:100440007A047952E4227A04795B20D5047A04791B
:1004500056224E614E002B494E46002D494E460015
:10046000E47A08F0A3DAFC7B00740722C083C08220
:10047000ECC0E0EDC0E0EEC0E0EFC0E0EA75F010E7
:10048000A4CAABF075F04DA42BFBE435F0FCEA24D4
:1004900010FAEB34C5FBEC34D9FCEDC2E7FF75F084
:1004A00056A4F42411C5F0F434C58FF0A42AE5F065
:1004B0003BE43CF020E714120562D0E0FFD0E0FE00
:1004C000D0E0FDD0E0FC12021B8014F4041205629F
:1004D000D0E0FFD0E0FED0E0FDD0E0FC120112D071
:1004E00082D083E0FAEDD2E7CD33EC332482FBE413
:1004F000C3CF33CFCE33CECD33CD33DBF37B0775D4
:10050000F00A846004F0A31B0AE5F0F0A38FF074F6
:100510000AA4FFACF08EF0740AA42CFEACF05001DB
:100520000C8DF0740AA42CFDE435F0F0A3DBDE742E
:1005300007223F8000004120000042C80000447AAA
:100540000000461C400047C35000497424004B186B
:1005500096804CBEBC205A0E1BCA6753C21C749DA9
:10056000C5AEFB60065407601C2323120590EB54B4
:1005700038600912057C12058B120112ECF8EDF9B6
:10058000EEFAEFCB22EB12058B80F1543803241CDA
:10059000900532FE93FC0EEE93FD0EEE930ECE937D
:1005A000FF22BB010689828A83E0225002E722BB38
:1005B000FE02E32289828A83E49322BB010CE58256
:1005C00029F582E5833AF583E0225006E92582F891
:1005D000E622BBFE06E92582F8E222E58229F582C1
:1005E000E5833AF583E49322BB010689828A83F08E
:1005F000225002F722BBFE01F322EF8DF0A4A8F0F7
:10060000CF8CF0A428CE8DF0A42EFE22BC000BBE11
:100610000029EF8DF084FFADF022E4CCF875F008EE
:10062000EF2FFFEE33FEEC33FCEE9DEC984005FC23
:10063000EE9DFE0FD5F0E9E4CEFD22EDF8F5F0EEEB
:100640008420D21CFEADF075F008EF2FFFED33FDD6
:100650004007985006D5F0F222C398FD0FD5F0EA76
:1006600022C5F0F8A3E028F0C5F0F8E58215827005
:10067000021583E038F022EF2BFFEE3AFEED39FD54
:10068000EC38FC22C3EF9BFFEE9AFEED99FDEC984F
:10069000FC22E88FF0A4CC8BF0A42CFCE98EF0A413
:1006A0002CFC8AF0EDA42CFCEA8EF0A4CDA8F08BF3
:1006B000F0A42DCC3825F0FDE98FF0A42CCD35F039
:1006C000FCEB8EF0A4FEA9F0EB8FF0A4CFC5F02ECA
:1006D000CD39FEE43CFCEAA42DCE35F0FDE43CFC33
:1006E0002275F008758200EF2FFFEE33FECD33CD7B
:1006F000CC33CCC58233C5829BED9AEC99E58298C8
:10070000400CF582EE9BFEED9AFDEC99FC0FD5F0C6
:10071000D6E4CEFBE4CDFAE4CCF9A88222B800C13D
:10072000B90059BA002DEC8BF084CFCECDFCE5F0AA
:10073000CBF97818EF2FFFEE33FEED33FDEC33FCF1
:10074000EB33FB10D703994004EB99FB0FD8E5E49A
:10075000F9FA227818EF2FFFEE33FEED33FDEC337C
:10076000FCC933C910D7059BE99A4007EC9BFCE90B
:100770009AF90FD8E0E4C9FAE4CCFB2275F010EF47
:100780002FFFEE33FEED33FDCC33CCC833C810D78A
:10079000079BEC9AE899400AED9BFDEC9AFCE899DE
:1007A000F80FD5F0DAE4CDFBE4CCFAE4C8F922EF97
:1007B0004BFFEE4AFEED49FDEC48FC22C3E49FFFEF
:1007C000E49EFEE49DFDE49CFC22EB9FF5F0EA9E96
:1007D00042F0E99D42F0E89C45F022E8600FEFC34B
:1007E00033FFEE33FEED33FDEC33FCD8F122E0FCB9
:1007F000A3E0FDA3E0FEA3E0FF22E0F8A3E0F9A35D
:10080000E0FAA3E0FB22ECF0A3EDF0A3EEF0A3EFFF
:10081000F022E0FBA3E0FAA3E0F922F8E0FBA3A3B7
:10082000E0F925F0F0E582158270021583E0FA38D0
:10083000F022EBF0A3EAF0A3E9F022E493FB7401C9
:1008400093FA740293F922D083D082F8E493701261
:10085000740193700DA3A393F8740193F5828883B8
:10086000E4737402936860EFA3A3A380DFE51B2504
:1008700082F582E51A3583F583B51A0485821B2239
:1008800010AF0685821BF51A2285821BF51AD2AF9E
:1008900022EC8EF0A4CCC5F0CCCDF8EFA4CEC5F000
:1008A0002DFDE43CFCE8A42EC8C5F03DFDE43CFC75
:1008B000EFA4FFE5F028FEE43DFDE43CFC22E7095F
:1008C000F608DFFA8046E709F208DFFA803E888200
:1008D0008C83E709F0A3DFFA8032E309F608DFFA38
:1008E000806EE309F208DFFA806688828C83E30970
:1008F000F0A3DFFA805A89828A83E0A3F608DFFA40
:10090000804E89828A83E0A3F208DFFA804280D297
:1009100080FA80C680D4805580F28029801080A61D
:1009200080EA809A80A880DA80E280CA8029888460
:100930008C8589828A83E493A30586F0A30586DFEC
:10094000F5DEF3800B89828A83E493A3F608DFF94E
:10095000ECFAA9F0EDFB2288848C8589828A83E0F9
:10096000A30586F0A30586DFF6DEF480E389828A9C
:1009700083E493A3F208DFF980D688F0EF60010EDC
:100980004E60CD88F0ED2402B4040050C3F582EB34
:100990002402B4040050B9232345822390090E7326
:1009A000E5082486F582E43400F583E0050822900A
:1009B0000083300703900086E475F00112081B02E3
:1009C00005A22000E97F2ED2008018EF540F24905A
:1009D000D43440D4FF30040BEF24BFB41A005003CA
:1009E0002461FFE50960021509050CE50C7002059C
:1009F0000B30070E900083E475F00112081BEF0224
:100A000005E802320D7403D2078003E4C207F5083B
:100A1000900083120832E4F509F50BF50CE5096046
:100A2000077F201209E380F5750AFFC201C200C2E8
:100A300002C203C205C206C2081209AFFF700D3020
:100A400007057F001209F4AF0CAE0B22B4255FC27C
:100A5000D5C2041209AFFF24D0B40A00501A75F0B1
:100A60000A780930D50508B6FF0106C6A426F62087
:100A7000D5047002D20380D924CFB41A00EF5004F9
:100A8000C2E5D204020CE6D20180C6D20080C0D2F8
:100A90000280BCD2D580BAD20580B47F201209E38F
:100AA0002002077401B5090040F11209A0FF1209E4
:100AB000E3020A1DD208D20680951209A0FB120992
:100AC000A0FA1209A0F94A4B700679E47A0D7BFF6F
:100AD00020022EE509602A7E008E827583001205B1
:100AE000BB60060EEE650A70F0C2D5EBC0E0EAC04E
:100AF000E0E9C0E0EE120D47D0E0F9D0E0FAD0E036
:100B0000FB1205A2FF60AAEBC0E0EAC0E0E9C0E08A
:100B10001209E3D0E02401F9D0E03400FAD0E0FB80
:100B2000E50A0460DCD50AD98087D20280A2120DC2
:100B30002960F7E50A7001041203F0A90A600DE5C7
:100B40000A600914F50A120DD1EF60F3EA30E702EA
:100B5000F404C3995079EAF4250A0430E701E40467
:100B6000F50A800D120D2960C1EA050A250A120353
:100B7000F0EA9000B2F030E701E4250A04D50A0457
:100B800020050114120D47E4C0E0120DD19000B20F
:100B9000E0601320E70714F01209CB802204F0D0A4
:100BA000E014C0E07F001209CBE50A60071209C219
:100BB000150A800B3005031209C2D0E0020A1DD0CD
:100BC000E00480C4120D29609EE50A041203F0902F
:100BD00000B2EAF0E50A2005026001042404120DC7
:100BE0004774FF04C0E0120DD11209CBE50A2005BD
:100BF0000260031209C2D0E0B50AE87F451209D5A8
:100C00009000B2E07F2B30E7047F2DF404C0E012A7
:100C100009E3D0E075F00A84C0F01209CCD0E012EC
:100C200009CC020A1D791080027908C206C2088028
:100C300008D2D5790A8004790AC2D5E50A0470027F
:100C4000F50AE4FAFDFEFF1209A0FC7B082001135F
:100C50001209A0FD7B1030000A1209A0FE1209A0A3
:100C6000FF7B20EC3382D592D55013C3E4300006CD
:100C70009FFFE49EFEE42001039DFDE49CFCE4CB89
:100C8000F8C201EC700CCFCECDCCE824F8F870F3AC
:100C90008017C3EF33FFEE33FEED33FDEC33FCEB97
:100CA00033FB994002FB0FD8E9EB300105F8D0E0A7
:100CB000C448B201C0E00AEC4D4E4F78207B007072
:100CC000C2EAB50A0040BCC0E0120D49D0F0D0E045
:100CD000200104C4C0E0C4B201C0F01209CCD0F0BD
:100CE000D5F0EB020A1D1208470ABA530C25580A20
:100CF0008B4C0A87420C294F0C31440C31490AA015
:100D0000430C37550B64460BC4450B2E470E04505D
:100D10000A8F2D0A932E0AB62B0A97230AB4200DA8
:100D2000ED2A0A4F4800000AAEE50AB4FF03750A2F
:100D3000061209A0FC1209A0FD1209A0FE1209A0CA
:100D4000FF9000AB02042D790AA2D52003143005D0
:100D500009B910020404B9080104A2D52006025002
:100D600001042002689202B509005034C0E07F20DF
:100D70003003197F30A20272067205500F120DA0C7
:100D8000C202C206C205C2087F30800F300503E9E7
:100D9000C0E01209E3300503D0E0F9D0E0B509CC9A
:100DA0003005177F30B9100C1209E37F5830040763
:100DB0007F788003B908031209E33002057F2D0212
:100DC00009E37F202008F87F2B2006F3229202807F
:100DD000CF7F00B40700500B24ABF582E43400F55C
:100DE00083E0FF22286E756C6C2900D2011209A0E5
:100DF0003001F8C201780930D50108F6020A4F2DFA
:100E0000504349581209A02403B405004001E4905E
:100E10000DFF931209D4743A1209D4D20375090450
:100E2000020C25C0E0C0F0C083C082C085C084C071
:100E300086758600C093759300C0D075D000C00041
:100E4000C001C002C003C004C005C006C0079001B5
:100E50001FE475F00112066112397BE41203319030
:100E600000F81208069000F41207FA9000F8120732
:100E7000EE12021B90013B1208069000F81207FACE
:100E80009000F41207EE12021B90015B120806900C
:100E900000CD1207FA90015B1207EE12021B9000C0
:100EA000E51208069001081207EE900000120806ED
:100EB0009000E51207FA9000D11207EE12001D9083
:100EC00001081208069001371207EEC004C005C0E1
:100ED00006C00790013B1207EE9001081207FA12B4
:100EE0000112A804A905AA06AB07D007D006D005B1
:100EF000D004120021900137120806900137120722
:100F0000EE90012F1207FA120112C004C005C006AC
:100F1000C0079001081207EE9001431207FA120170
:100F200012A804A905AA06AB07D007D006D005D0A1
:100F3000041200219001231208067F007E007D002C
:100F40007C009000E51207FA1202B8702290014767
:100F50001207EE12036F900121EEF0A3EFF07F0075
:100F60007E007D007C0090013712080602100E7F83
:100F7000007E007D807CBF9001671207FA1200217D
:100F8000C004C005C006C0079001231207EE9001FF
:100F9000471207FA120021A804A905AA06AB07D038
:100FA00007D006D005D0041202B86020401E7F0092
:100FB0007E007D807CBF9001671207FA120021122B
:100FC000036F900121EEF0A3EFF080429001231215
:100FD00007EE9001471207FA1200217B007A007990
:100FE0000078001202B8600C400A900121E4F0A3DE
:100FF000E4F0801A9001231207EE9001471207FADD
:1010000012002112036F900121EEF0A3EFF07D0D8D
:101010007F01122B8B9000FEE0FEA3E0FF121F2A3F
:1010200090011FE0FEA3E0FFC3EF941CEE9400408C
:101030004E9000E3E0FEA3E0FF9000FEE0FCA3E0A2
:10104000FDEDB5073AECB50636900004E4F07FE814
:101050007E037D007C00900005120806900004E0ED
:10106000FF1238A390011FE4F0A3E4F01237779049
:10107000016BE0FEA3E0FF9000FEEEF0A3EFF09026
:10108000011FE0FEA3E0FFC3EF9469EE94004072FD
:1010900090014BE0FEA3E0FF9000FEE0FCA3E0FD2A
:1010A000ED6F7002EC6E705A900004E4F090000452
:1010B000E0FF1238A37D007F01122B8B7BFF7A307B
:1010C00079A5122C8A7D017F01122B8B7BFF7A3050
:1010D00079A7122C8A7F647E001234BE90000474BB
:1010E00002F0900004E0FF1238A390011FE4F0A387
:1010F000E4F09000D5E0FEA3E0FF9000FEEEF0A348
:10110000EFF090011FE0FEA3E0FFC3EF941FEE9409
:101110000040459000D5E0FEA3E0FF9000FEE0FC1B
:10112000A3E0FDEDB50731ECB5062D900004740287
:10113000F07F987E001234BE900004E0FF1238A3C6
:1011400090011FE4F0A3E4F0900129E0FEA3E0FF8A
:101150009000FEEEF0A3EFF090011FE0FEA3E0FF91
:10116000C3EF940FEE94004028900129E0FEA3E025
:10117000FF9000FEE0FCA3E0FDEDB50714ECB50622
:10118000109000FCE0FEA3E0FF9000FEEEF0A3EF65
:10119000F0900121E0FEA3E0FF12343C1239FFD0B1
:1011A00007D006D005D004D003D002D001D000D0A3
:1011B000D0D093D086D084D085D082D083D0F0D0C8
:1011C000E0327B007A4679E8123963EF4405FD7B13
:1011D000007A4679E812396F751900E519C3940B46
:1011E000503AAF19EF75F005A42417F582E4343AAC
:1011F000F583AF82AE838E0D8F0EAE0DAF0E8F8254
:101200008E8312083BAE0DAF0E8F828E83740393D4
:10121000FC740493FD123526051980BF751900E58D
:1012200019C394025078AF19EF75F008A4244EF555
:1012300082E4343AF583AF82AE838E0F8F10AE0F07
:10124000AF108F828E8312083B8B118A128913AEE6
:101250000FAF108F828E83A3A3A312083B8B148A37
:10126000158916AE0FAF108F828E83740693F51713
:10127000740793F518AB14AA15A916C003C002C0D1
:1012800001AB11AA12A9139000BF120832D001D0ED
:1012900002D003AF18AE17123071051980817B0898
:1012A0007A0079001231617B007A5879487D037C9D
:1012B000001239007B007A58794A7D037C0112398B
:1012C000007B007A58794C7D037C021239007B0048
:1012D0007A58794E7D037C031239007B017A50796C
:1012E00003123963EF4402FD7B017A50790312390E
:1012F0006F7B017A507913123963EF4402FD7B0151
:101300007A50791312396F9043A0E0FFEF4440FF09
:101310009043A0EFF09043C2E0FFEF4410FF9043F2
:10132000C2EFF07B087A0779E0C003C002C0017BFE
:10133000007A5179129000BF120832D001D002D049
:10134000037F087E001230717B087A0779E8C003BA
:10135000C002C0017B007A5179C29000BF120832EE
:10136000D001D002D0037F087E001230717B087A52
:101370000779F0C003C002C0017B007A5179229046
:1013800000BF120832D001D002D0037F087E0012C5
:1013900030717B087A0779F8C003C002C0017B0076
:1013A0007A5179429000BF120832D001D002D003A6
:1013B0007F087E001230717B087A087900C003C074
:1013C00002C0017B007A5179529000BF120832D0DE
:1013D00001D002D0037F087E001230717B087A08AA
:1013E0007908C003C002C0017B007A517962900085
:1013F000BF120832D001D002D0037F087E00123025
:10140000717B017A0079DB7D8412396F7B017A026E
:1014100079DB7D8412396F9044F47401F09046ECCE
:10142000E0FFEFC394055006904689743AF0904867
:101430000074F1F01219F490480074B1F012251004
:101440007B007A4379A0C003C002C0017B007A43CD
:1014500079B09000BF120832D001D002D0037F0EC5
:101460007E001230719043B0E0FFEF54FDFF9043D7
:10147000B0EFF0229000B6EFF09000B7ECF0A3EDE3
:10148000F09000B9EAF0A3EBF09000B6E0FFEF12A5
:10149000084714A20414CF0714FA0815250A0000FF
:1014A00015509000BBE0FFEFD3940F40117B0C7AF6
:1014B0000179181239639000BCEFF00215557B0CCE
:1014C0007A01791C1239639000BCEFF00215559037
:1014D00000BBE0FFEFD3940F40107B0C7A01791929
:1014E0001239639000BCEFF0806B7B0C7A01791DA0
:1014F0001239639000BCEFF0805B9000BBE0FFEF1F
:10150000D3940F40107B0C7A01791A123963900042
:10151000BCEFF080407B0C7A01791E123963900099
:10152000BCEFF080309000BBE0FFEFD3940F401091
:101530007B0C7A01791B1239639000BCEFF08015A7
:101540007B0C7A01791F1239639000BCEFF08005A3
:101550009000BCE4F09000B6E0FFEF603B9000B676
:10156000E0FFEF640160319000B6E0FFEF640260DD
:10157000279000B6E0FFEF6403601D9000B6E0FF27
:10158000EF640560139000B6E0FFEF640660099019
:1015900000B6E0FFEFB4090A9000BDE4F0A3E4F068
:1015A000801D9000BCE0FFEF3395E0FEEF7805C3AF
:1015B00033CE33CED8F9FF9000BDEEF0A3EFF0901C
:1015C00000BDE0FEA3E0FF9000B7E0FCA3E0FDED6E
:1015D0002FFFEC3EFE9000BFEEF0A3EFF09000B9BD
:1015E000E0FEA3E0FF9000BFE0FCA3E0FD12089145
:1015F0009000C11208067B007A8079007800900084
:10160000C11207EE12071D9000BFEEF0A3EFF0909D
:1016100000BBE0FFEFC3940E50379000BFE0FEA385
:10162000E0FF9000BBE0FDC3740E9DFDEFA8050830
:101630008005CEC313CE13D8F9FF9000BFEEF0A300
:10164000EFF09000BBE0FFEF04FF904E0EEFF08054
:1016500006904E0E740FF09000BFE0FEA3E0FF90E6
:101660004E0CEFF09000BFE0FEA3E0FFEEFF7E0027
:10167000904E0DEFF022C0E0C0F0C083C082C08564
:10168000C084C086758600C093759300C0D075D0A5
:1016900000C000C001C002C003C004C005C006C035
:1016A000077D0E7F01122B8B7BFF7A3079B6122CCF
:1016B0008A9000FCE0FEA3E0FF9000FEE0FCA3E0C7
:1016C000FDED6F7002EC6E600302182F90008274C3
:1016D00002F0900082E0FF1238A39000591207EE4A
:1016E00090011A1208061229519000511208069012
:1016F00000511207EE122A7C900055120806900144
:101700005F1207FA9000551207EE12001D90005963
:1017100012080690011A1207FA9000591207EE12E9
:10172000001D9001551208067F007E007D007CBFE1
:101730009001551207FA1202B840157FCD7ECC7D7C
:101740004C7C3F9001551207FA1202B8601E401CF3
:1017500090011A1207EE9000591208067D0E7F00C4
:10176000122B8B7BFF7A3079B9122C8A90013312BD
:1017700007EE9000591207FA120021900133120867
:10178000069000591207EE90014D1207FA1201124D
:10179000A804A905AA06AB077F007E007D187C433C
:1017A00012001D90005D1208067D007F00122B8B39
:1017B0007B017A007971C003C002C0017BFF7A30DF
:1017C00079BC90008612083290005D1207EE9000FE
:1017D00089120806D001D002D003120A057B017AD3
:1017E000007971122C8A90005D1207EE12036F12BD
:1017F00034BE7D007F01122B8B7B017A007961C0A2
:1018000003C002C0017BFF7A3079CA9000861208BB
:10181000329000551207EE900089120806D001D0D0
:1018200002D003120A057B017A007961122C8AD05A
:1018300007D006D005D004D003D002D001D000D00C
:10184000D0D093D086D084D085D082D083D0F0D031
:10185000E0324C00D7000000000000000000000053
:10186000004400F447C35000440167447A00004438
:1018700000CD40F889BA4400E5000000004400F8BB
:101880000000000044015B00000000440151000022
:10189000000041016D004400D13FC0000044010838
:1018A0000000000044012300000000440137000054
:1018B000000044013B000000004401434496000046
:1018C00044012F41F0000044014742DC0000420186
:1018D00021006E42011F000042010200004200E3AD
:1018E000000142016B00024200F2000342014B0082
:1018F000044200D5000542012900064200FC000711
:1019000042010000634200FE00074100F100410176
:101910001E00420110000042012700004201180091
:10192000004400ED0000000044016300000000449A
:101930000104000000004400E9000000004401141C
:1019400000000000420159009844013300000000EB
:1019500044011A0000000044015500000000440149
:101960004D4296000044013F0000000044012B005E
:1019700000000044015F3F4CCCCD4101C900410152
:10198000C8004401AD016E36004401A800005DC0EE
:101990004101AC184401B22EE000004101CA0041EF
:1019A00001CB004101CC004101CD004101CE0041FD
:1019B00001CF004101D0004101D1004101D20041DD
:1019C00001B6004101C1004101BC004101C200411A
:1019D00001BB014401BD000000004401B70007D075
:1019E000004101D3004101D4FF4301C30000004185
:1019F00001D500007E007FB39000B7EEF0A3EFF0BA
:101A00007B007A4079807F037E007D187C0012384D
:101A1000617B007A4079847F1D7E007D197C0012F5
:101A200038617B007A4079887F1D7E007D197C00BB
:101A30001238617B007A40798C7F2F7E757D197C0E
:101A4000001238617B007A4079907F2F7E757D1976
:101A50007C001238617B087A087910C003C002C08C
:101A6000017B007A4179009000BF120832D001D08A
:101A700002D0037F047E001230719043007402F0A4
:101A80009040007408F09042007403F07B0C7A01DF
:101A900079081239639046A1EFF07B007A427922EF
:101AA0007D087C001239007B007A4279207D517CD0
:101AB000101239009000B9E4F07F197E007D007C9F
:101AC000009000B31208069000B7E0FEA3E0FF8F7D
:101AD000828E831207EEEC4D4E4F604E9000B9E0BF
:101AE000FFEF64036044904225E0FFEF5401FF7E66
:101AF000009000B9E0FEEE25E0FEEE4FFFEF54034C
:101B0000FF9000B9EFF07FE07E017D007C00123095
:101B1000009000B31207EE7BFF7AFF79FF78FF1287
:101B200006779000B3120806809D7B007A40790406
:101B30007D007C011239009040047407F09040064B
:101B4000E4F09040087448F0904004E4F0904001C4
:101B50007402F090400B7404F09043A2E0FFEF4455
:101B60001FFFEFF09043A1E0FFEF4401FFEFF09083
:101B700043A0E0FFEF4480FFEFF0229000B6EFF0CB
:101B80009001C1E4F09001BCE0FFEF7051905896D5
:101B90007407F0905897E4F090589EE4F0905B073B
:101BA000E0FFEF4418FFEFF0905893E4F0905B886B
:101BB000E4F0905B89E4F0905880740AF0905881CA
:101BC000E4F0905882747AF0905883E4F090588D45
:101BD000E4F0904E017414F0904E147401F09000F3
:101BE000B6E0FFEF64016003021CBB904E00747806
:101BF000F0904E02E4F0904E03740AF0904E04749C
:101C00007FF0904E05E4F0904E06747FF0904E0801
:101C100074AEF0904E097411F0904E0A7407F09073
:101C200058847450F09058857427F0905886742C1E
:101C3000F0905887E4F09058887412F090588974A6
:101C400013F090588A7455F090588B745AF090584D
:101C50008C7405F090588E7402F090588F7412F0C6
:101C60009058907428F090589174EBF07F4C122E9D
:101C7000C89058947458F0905895E4F090589A741D
:101C800005F090589B7401F090589CE4F090589D9A
:101C9000740AF07F011233ED7F007ED07D077C0057
:101CA0009001B71208067D077F1D12247B7C167DEC
:101CB000767F1D1223467F1D12229D229000CCE4C8
:101CC000F0905120E0FFEF5480FFEFF0905122E0C0
:101CD000FFEF54F0FF9000CCEFF09000CCE0FFEF6E
:101CE000440FFF905122EFF0905123E0FFEF54F0AA
:101CF000FF9000CCEFF09000CCE0FF905123EFF08C
:101D0000905124E0FFEF54F0FF9000CCEFF09000F2
:101D1000CCE0FF905124EFF0905120E0FFEF54DF32
:101D2000FFEFF0905120E0FFEF4440FFEFF07F0025
:101D30007E00123134905120E0FFEF4410FFEFF0AD
:101D40007F017E00123134905121E0FF9000CCEFF2
:101D5000F0905120E0FFEF54EFFFEFF09000CCE067
:101D6000FFEF5408FF9000CCEFF0905120E0FFEF20
:101D70004410FFEFF07F017E00123134905120E0DB
:101D8000FFEF54EFFFEFF09000CCE0FFEF709F907B
:101D90005120E0FFEF54BFFFEFF0905120E0FFEF44
:101DA0005480FFEFF0905122E0FFEF54F0FF9000DD
:101DB000CCEFF09000CCE0FF905122EFF090512357
:101DC000E0FFEF54F0FF9000CCEFF09000CCE0FF8C
:101DD000EF440FFF905123EFF0905124E0FFEF54B8
:101DE000F0FF9000CCEFF09000CCE0FFEF440FFF4D
:101DF000905124EFF022C0E0C0F0C083C082C085C3
:101E0000C084C086758600C093759300C0D075D01D
:101E100000C000C001C002C003C004C005C006C0AD
:101E200007123985900110EEF0A3EFF0123985907A
:101E30000127EEF0A3EFF0900127E0FEA3E0FF9072
:101E40000110E0FCA3E0FDC3ED9FFDEC9EFCE4125D
:101E500003369000ED1208067F007E007D407CC4B2
:101E60009000ED1207FA120021900163120806900B
:101E700001041207EE9001631207FA12002190018B
:101E8000041208069000E91207FA9001631207EEA7
:101E900012001D9001141208069001631207EE90C3
:101EA00000E91208067F007E407D1C7C469000ED14
:101EB0001207FA1202B86002504A7FCD7ECC7DCC68
:101EC0007C3D9001631207FA1201127B007A0079BF
:101ED00018784312002112036F900159EEF0A3EF1E
:101EE000F09000FCE0FEA3E0FF9000FEE0FCA3E029
:101EF000FDEDB5070FECB5060B900159E0FEA3E030
:101F0000FF1234BE123A0BD007D006D005D004D051
:101F100003D002D001D000D0D0D093D086D084D0CE
:101F200085D082D083D0F0D0E0329000B6EEF0A31E
:101F3000EFF09000C2E4F09000C3E4F09000B6E04F
:101F4000FEA3E0FFC3EF940AEE940040459000B674
:101F5000E0FEA3E0FF7C007D0A12060CAF05EF2433
:101F600030FF9000C2E0FE74BD2EF582E43400F52F
:101F700083EFF09000B6E0FEA3E0FF7C007D0A1244
:101F8000060C9000B6EEF0A3EFF09000C2E004F073
:101F900080AA9000B6E0FEA3E0FF7C007D0A120656
:101FA0000CAF05EF2430FF9000C2E0FE74BD2EF5AB
:101FB00082E43400F583EFF09000C2E0FF9000C3AC
:101FC000EFF09000C2E0FFEF64FF603E9000C2E0DF
:101FD000FF74BD2FF582E43400F583E0FF9000C26A
:101FE000E0FEEEFD7C009000C3E0FEEEFB7A00C355
:101FF000EB9DFDEA9CFC74B82DF58274003CF583E2
:10200000EFF09000C2E014F080B89000C3E0FF74DD
:10201000B92FF582E43400F583E4F07B017A00798E
:10202000B8122C8A2275930078007583467582E871
:10203000E04401F0009046ECE0F99046FAE0FAB98D
:1020400003225420B40012B8001AEA901FFFF07463
:1020500001901FFEF09046F6F0901FFEE0600590A4
:102060001FFFE0FA90480074C0F0758121900000D5
:1020700078007920E4F0A3D8FCD9FAEA9001B1F015
:10208000020011751A1F751BFD1211C20220CA022F
:10209000210FE493A3F8E493A34003F68001F20830
:1020A000DFF48029E493A3F85407240CC8C333C495
:1020B000540F4420C8834004F456800146F6DFE400
:1020C000800B0102040810204080901852E47E0129
:1020D0009360BCA3FF543F30E509541FFEE493A373
:1020E00060010ECF54C025E060A840B8E493A3FA85
:1020F000E493A3F8E493A3C8C582C8CAC583CAF011
:10210000A3C8C582C8CAC583CADFE9DEE780BE901E
:1021100000B3E4F09000B4E4F0A3E4F0D2AF904454
:10212000F4E0FFEF54FDFFEFF01236E4123927120E
:1021300036BA12370E1236A51237B67E0E7F23122C
:1021400032E01237C97E2B7F341232FE1237DC7E2A
:102150001D7FF612331C1237EF7E2C7F3912333A73
:102160001236F91234D81237381238027E257FA180
:102170001233581237621238157E267F25123376B5
:1021800012394B1238287E237FE312339490014793
:102190001207EE12036F12343C9000B3E0FF1238C6
:1021A000A312383B7E2F7FFE1233B27D007F0112D7
:1021B0002B8B9000FEE0FEA3E0FF121F2A12350CCD
:1021C0001233D07F1D12229D1239579000B4E0FEC9
:1021D000A3E0FFEFB410F4EEB427F09000B4E4F005
:1021E000A3E4F080E6229043AAE0FFEF4401FFEF72
:1021F000F09043AAE0FFEF4410FFEFF09043BAE005
:10220000FFEF4401FFEFF09043BAE0FFEF4410FF0F
:10221000EFF09001BBE0FFEF640170499046F8E0F9
:10222000FFEF4402FFEFF09046F9E0FFEF4402FFBA
:10223000EFF0905891E0FFEF4403FFEFF0905892D9
:10224000E0FFEF4408FFEFF07F037E00123134908F
:1022500046F8E0FFEF54FDFFEFF09046F9E0FFEFA6
:1022600054FDFFEFF0905877E0FFEF4406FFEFF0EA
:102270009043A1E0FFEF4401FFEFF09043B1E0FF96
:10228000EF4401FFEFF09043A2E0FFEF4401FFEFC6
:10229000F09043B2E0FFEF4401FFEFF02290FFFF28
:1022A00012086DEFF090FFFE12086D851A83851BF2
:1022B00082A3A3E0FFEFD3941F5003D38001C34058
:1022C00025851A83851B82A3A3E0FFEFD3941F50BB
:1022D0000A7F017E007D007C0080087F007E007DFB
:1022E000007C00123234851A83851B82A3A3E0FF91
:1022F000EF541FFF7E00EF7803CEC313CE13D8F93F
:10230000FFEF24C0FFEE3444FE851A83851B82EE66
:10231000F0A3EFF0851A83851B82A3A3E0FFEF549F
:1023200007FF7401A807088002C333D8FCFF851A91
:1023300083851B82E0FCA3E0FD8D828C83EFF0900F
:10234000000312086D229000B7EFF09000B8ECF097
:10235000A3EDF09000B7E0FFEFD3941F5003D380BC
:1023600001C340209000B7E0FFEFD3941F500A7FD5
:10237000017E007D007C0080087F007E007D007C67
:10238000001232349000B7E0FFEF541FFF7E00EFE1
:1023900025E0FFEE33FEEF2400FFEE3444FEAA06F4
:1023A000A9077B011238F39000BAEEF0A3EFF0908A
:1023B00000B7E0FF7E02EF8EF0A4FFAEF0EF240046
:1023C000FFEE3444FEAA06A9077B019000B8E0FEA8
:1023D000A3E0FFAD07AC061239029000BAE0FEA3FD
:1023E000E0FF22C0E0C0F0C083C082C085C084C0CE
:1023F00086758600C093759300C0D075D000C0006C
:10240000C001C002C003C004C005C006C0079001DF
:102410006BE0FEA3E0FF9000FEE0FCA3E0FDED6FAB
:102420007002EC6E70329000F2E0FEA3E0FF9000CC
:10243000FEEEF0A3EFF07D007F00122B8B9000FEEC
:10244000E0FEA3E0FF121F2A7D007F01122B8B7B91
:10245000FF7A3079AC122C8AD007D006D005D00490
:10246000D003D002D001D000D0D0D093D086D08479
:10247000D085D082D083D0F0D0E0329000B7EFF09A
:102480009000B8EDF09000B8E0FFEFD39407500350
:10249000D38001C340209000B8E0FFEFD3940750F1
:1024A0000A7F017E007D007C0080087F007E007D29
:1024B000007C001232349000B7E0FFEFD3941F503D
:1024C00003D38001C340209000B7E0FFEFD3941FF7
:1024D000500A7F017E007D007C0080087F007E0026
:1024E0007D007C001232349000B8E0FFEF5407FF0B
:1024F0007E00EF75F020A4FFAEF09000B7E0FEEE96
:10250000541FFE74802EF582E43444F583EFF022EC
:102510007B0C7A0179CF1239639000B3EFF0900011
:10252000B3E0FFEF5407FF90586EEFF09000B3E078
:10253000FFEFC4540FFFEF540FFF90586FEFF09070
:10254000514D7404F090515D7414F090516C74010D
:10255000F0905A807401F0905A907420F0905A983C
:102560007420F0905AC47401F0905AC87404F0902A
:102570005ACB7440F0905AD07440F0905AD47420E2
:10258000F0905AD87401F07B027A5A79DB7D407C56
:1025900020123902905B037401F09058767444F075
:1025A00022C0E0C0F0C083C082C085C084C08675F0
:1025B0008600C093759300C0D075D000C000C001E4
:1025C000C002C003C004C005C006C007900102E0FD
:1025D000FEA3E0FF9000FEE0FCA3E0FDEDB50722C6
:1025E000ECB5061E9000367402F0900036E0FF1243
:1025F00038A39000E3E0FEA3E0FF9000FEEEF0A31E
:10260000EFF0D007D006D005D004D003D002D0011F
:10261000D000D0D0D093D086D084D085D082D08343
:10262000D0F0D0E032C0E0C0F0C083C082C085C02E
:1026300084C086758600C093759300C0D075D000A5
:10264000C000C001C002C003C004C005C006C0076E
:102650009000F2E0FEA3E0FF9000FEE0FCA3E0FDAE
:10266000EDB50722ECB5061E90004F7403F0900004
:102670004FE0FF1238A390014BE0FEA3E0FF900073
:10268000FEEEF0A3EFF0D007D006D005D004D003C3
:10269000D002D001D000D0D0D093D086D084D085C5
:1026A000D082D083D0F0D0E032906474E0FFEF5459
:1026B000F8FF9000B6EFF09000B6E0FFEF4401FFA6
:1026C000906474EFF0906474E0FFEF54E7FF9000C3
:1026D000B6EFF09000B6E0FFEF4408FF906474EFAF
:1026E000F01238D37FFF7EFF7DFF7C001235F57F2F
:1026F000007E007D007C001235DF7F1C12387312D3
:1027000039FF7F807E007D007C0012360B1237A1DE
:102710009000B7EFF0906496E0FFEF4410FFEFF009
:102720009000B7E0FF12353F227F287E007D007CBD
:10273000001227A37F03122D227F057E007D007CDF
:10274000001227A37F03122D227F0F7E007D007CC5
:10275000001227A37F03122D227F017E007D007CC3
:10276000001227A37F02122D227F057E007D007CB0
:10277000001227A37F06122E407F0E122E407F2CC0
:10278000122E407F08122E407F01122E407F0C1225
:102790002E407F03122E407F057E007D007C0012BC
:1027A00027A32290FFFC12086D1208067F007E808E
:1027B0007D007C00851A83851B821207FAD31207DD
:1027C000CA40309001B21207EE123000851A83859C
:1027D0001B82C083C0821207EEC3EF9400FFEE9409
:1027E00080FEED9400FDEC9400FCD082D0831208B2
:1027F0000680B99001A81207EE851A83851B821204
:1028000007FA12069212300090000412086D22900E
:102810004F0CE0FFEF5401FFEFF0904F0EE0FFEFA1
:1028200054FCFFEFF0904F0CE0FFEF4404FFEFF09B
:10283000904F0DE0FFEF4401FFEFF0904F17E0FFE6
:10284000EF54CFFFEFF0904F17E0FFEF4430FFEF72
:10285000F0904F17E0FFEF54F0FFEFF0904F17E0CC
:10286000FFEF440FFFEFF07FE87E031234F27FE8C2
:102870007E03122AD97F081238B322906578E0FFD0
:10288000EF54C0FF9000B6EFF09000B6E0FFEF44C9
:1028900009FF906578EFF0906598E0FFEF4401FF45
:1028A000EFF0906599E0FFEF4401FFEFF07FE77EE6
:1028B000031234087FE77E031234227FFA7E00126F
:1028C000343C906589E4F01237A19000B7EFF090A6
:1028D0006599E0FFEF4410FFEFF09000B7E0FF12C2
:1028E000353F1236CF22906478E0FFEF54C0FF905E
:1028F00000B6EFF09000B6E0FFEF4409FF90647877
:10290000EFF0906498E0FFEF4401FFEFF0906499DE
:10291000E0FFEF4401FFEFF07FE77E0312348A7F90
:10292000E77E031234A47F987E001234BE90648840
:10293000E4F01237A19000B7EFF0906498E0FFEF59
:102940004410FFEFF09000B7E0FF12353F1237233D
:1029500022904E12E0FFEF54FFFFEF3395E0FEFDB3
:10296000FC9000831208069000831207EE7808128C
:1029700007DBA804A905AA06AB07904E11E0FFE407
:10298000FCFDFE1207AF9000831208069000831230
:1029900007EE78081207DBA804A905AA06AB079082
:1029A0004E10E0FFE4FCFDFE1207AF90008312081A
:1029B000069000831207EE229000B6EFF09000B66A
:1029C000E0FFEF5403FF905843E0FEEE54FCFEEEB0
:1029D0004FFF905843EFF09000B6E0FFEFB4011DB9
:1029E0007B0C7A017913123963904636EFF07B0C39
:1029F0007A017917123963904637EFF0227B0C7A0F
:102A00000179B3123963904636EFF07B0C7A017985
:102A1000BB123963904637EFF0229000B6EFF0908A
:102A200000B6E0FFEF5403FF905841E0FEEE54FC87
:102A3000FEEE4FFF905841EFF09000B6E0FFEFB48C
:102A4000011D7B0C7A017911123963904632EFF047
:102A50007B0C7A017915123963904633EFF0227BB3
:102A60000C7A0179AF123963904632EFF07B0C7A21
:102A70000179B7123963904633EFF0229000831248
:102A800008067F007E007D007C009000871208060B
:102A90009000831207EE9001BD1207FA120684908F
:102AA00000831208069001B71207EEEC120331C042
:102AB00004C005C006C0079000831207EEEC1203A5
:102AC00031D003D002D001D00012021B9000871237
:102AD00008069000871207EE22900009EEF0A3EF9F
:102AE000F09043A3E0FFEF5402FF7E00EF4E601C26
:102AF0009043A3E0FFEF5402FF7E00EF4E70047F8F
:102B00000180027F00E4FCFDFE1232349043A3E01A
:102B1000FFEF4402FFEFF07B027A4F791290000939
:102B2000E0FCA3E0FD1239029043A3E0FFEF54FD67
:102B3000FFEFF022C0E0C0F0C083C082C085C08437
:102B4000C086758600C093759300C0D075D000C054
:102B500000C001C002C003C004C005C006C0079089
:102B6000016DE004F01239FFD007D006D005D00483
:102B7000D003D002D001D000D0D0D093D086D08462
:102B8000D085D082D083D0F0D0E0329000B6EFF084
:102B90009000B7EDF09000B6E0FFEF1208472BAEC3
:102BA000002BBB012BC8022BD50300002BE19000AA
:102BB000B7E0FFEF2480FF122E40229000B7E0FF25
:102BC000EF24C0FF122E40229000B7E0FFEF2494C4
:102BD000FF122E40229000B7E0FFEF24D4FF122E08
:102BE00040229000CBEFF0121CBC905120E0FFEF90
:102BF0004420FFEFF0905120E0FFEF54BFFFEFF0D3
:102C0000905120E0FFEF54F0FFEFF0905120C0838F
:102C1000C082E0FF9000CBE0FEEE4410FEEF4EFFDE
:102C2000D082D083EFF07F017E00123134905120AA
:102C3000E0FFEF54EFFFEFF022C0E0C0F0C083C030
:102C400082C085C084C086758600C093759300C01D
:102C5000D075D000C000C001C002C003C004C005D0
:102C6000C006C007123A05D007D006D005D004D060
:102C700003D002D001D000D0D0D093D086D084D061
:102C800085D082D083D0F0D0E0329000C4120832D8
:102C90009000C77401F09000C41208121205A2FF40
:102CA0009000C8EFF09000C8E0FFEF602A9000C8E5
:102CB000E0FF122FBC9000C41208129000C7E0FF82
:102CC000E92FF9E43AFA1205A2FF9000C8EFF0905C
:102CD00000C7E004F080CE229000B9EFF09000B978
:102CE000E0FFEFC3940250399000B9E0FFEF25E018
:102CF000245EF582E4343AF583E493FE740193FF95
:102D00008F828E83C083C082E0FF9000B9E0FEEE28
:102D1000903A6293FEEEF4FEEF5EFFD082D083EF36
:102D2000F0229000BAEFF0905120E0FFEF549FFFA7
:102D3000EFF0905120E0FFEF54F0FFEFF0905120C2
:102D4000C083C082E0FF9000BAE0FEEE4410FEEFC8
:102D50004EFFD082D083EFF07F017E00123134909D
:102D60005120E0FFEF54EFFFEFF02290582CE0FFEE
:102D7000EF540CFF7E00EF7802CEC313CE13D8F9C8
:102D8000FFEF2406FF9000B7EFF09000B7E0FFE4FC
:102D9000FCFDFEEF2438FFEE3401FEED340CFDECBB
:102DA0003400FCA907AA06AB0512396390460BEF65
:102DB000F022905820E0FFEF540CFF7E00EF7802E5
:102DC000CEC313CE13D8F9FFEF2406FF9000B7EF60
:102DD000F09000B7E0FFE4FCFDFEEF2420FFEE34AE
:102DE00001FEED340CFDEC3400FCA907AA06AB058E
:102DF000123963904608EFF0229000B8EFF090008F
:102E0000B8E0FFEFC3940250369000B8E0FFEF2522
:102E1000E0245EF582E4343AF583E493FE74019392
:102E2000FF8F828E83C083C082E0FF9000B8E0FEF7
:102E3000EE903A6293FEEF4EFFD082D083EFF02205
:102E40009000B8EFF09000B8E0FFEFC4540FFF908F
:102E500000B9EFF0121CBC9000B9E0FFEF540FFF77
:102E60009000B9EFF09000B9E0FF122D229000B869
:102E7000E0FFEF540FFF9000B9EFF09000B9E0FFD2
:102E8000122D2222C2D5E830E70FB2D5E4C39BFB56
:102E9000E49AFAE499F9E498F8EC30E717B2D5121D
:102EA0002EBA12071DE4C39BFBE49AFAE499F9E4F5
:102EB00098F8800312071D30D50DE4C39FFFE49EF0
:102EC000FEE49DFDE49CFC229000B7EFF09046F8F4
:102ED000E0FFEF4403FFEFF09046F9E0FFEF44031B
:102EE000FFEFF09000B7E0FF905892EFF07F037E85
:102EF000001231349046F8E0FFEF54FCFFEFF09001
:102F000046F9E0FFEF54FCFFEFF0227F001229B8F2
:102F1000905843E0FFEF4420FFEFF0905843E0FF6C
:102F2000EF54FBFFEFF0905843E0FFEF4408FFEF52
:102F3000F0905ADFE0FFEF54E7FFEFF0905ADFE048
:102F4000FFEF4408FFEFF0227F00122A1A90584149
:102F5000E0FFEF4420FFEFF0905841E0FFEF54FB1B
:102F6000FFEFF0905841E0FFEF4408FFEFF0905A78
:102F7000CFE0FFEF54E7FFEFF0905ACFE0FFEF44D0
:102F800008FFEFF0227FFF7EFF1234567FFF7EFFA7
:102F90001234701237A19000B6EFF0906491E0FF08
:102FA000EF4410FFEFF09000B6E0FF12353F7F01D5
:102FB00012303B1238E27F02123883229000C9EFB0
:102FC000F0121CBC9000C9E0FFEFC4540FFF90004A
:102FD000CAEFF09000CAE0FF122BE29000C9E0FFB8
:102FE000EF540FFF9000CAEFF09000CAE0FF122BE1
:102FF000E2227F0C122E409001C97401F02232327D
:10300000EC4D4E700D78FCEF24E950032840FD2272
:1030100000007BF178DA0000EF28FF78FFEE38FE41
:10302000ED38FDEC38FC50E7EF2BFFEE38FEED38C5
:10303000FDEC38FC40F222050203049000B7EFF0EB
:103040009000B7E0FFEF5403FF9000B7EFF09064FB
:1030500072E0FFEF54FCFFEFF0906472C083C08217
:10306000E0FF9000B7E0FEEF4EFFD082D083EFF09C
:1030700022758600EF4E6027EF60010E7593009079
:1030800000BFE0F595A3E0F585A3E0F5848B938A76
:10309000838982E0A30586F0A31586DFF6DEF4E4DB
:1030A000F593F5952273006C65657000776169741E
:1030B000206F76657200283A004E4F006572723AB2
:1030C0002025312E3266202020004144433A20251D
:1030D000312E3466009000B6EFF090582CE0FFEFF0
:1030E00054F3FFEFF090582CC083C082E0FF9000B3
:1030F000B6E0FEEE540CFEEF4EFFD082D083EFF030
:10310000122D6B229000B6EFF0905820E0FFEF54A4
:10311000F3FFEFF0905820C083C082E0FF9000B62C
:10312000E0FEEE540CFEEF4EFFD082D083EFF012A3
:103130002DB22232EEFA9001ACE0F88FF0A4FFAE8F
:10314000F0E88AF0A42EFEE5F03400FDEF24C9FF7C
:1031500078FFEE38FEED38FDE438FC500302300015
:1031600022ACEAADA08B938A838982E0F96017A331
:10317000E0F5EAA3E0F5A0A3E060F4FAA3E0F8A389
:10318000E0F2DAF8D9E98DA08CEAE4F59322900018
:10319000B6EFF090582CE0FFEF54FDFFEFF09058A1
:1031A0002CC083C082E0FF9000B6E0FEEE5402FE29
:1031B000EF4EFFD082D083EFF0229000B6EFF09078
:1031C0005820E0FFEF54FDFFEFF0905820C083C07F
:1031D00082E0FF9000B6E0FEEE5402FEEF4EFFD01C
:1031E00082D083EFF0229000B8E4F09000B8E0FFC6
:1031F000EFC3940250109000B8E0FF122CD890005A
:10320000B8E004F080E59001D474FFF022EFB40A36
:1032100007740D123218740A309811A899B8130C5B
:10322000C2983098FDA899C298B811F63099FDC29D
:1032300099F5992290FFFF12086DEFF0851A8385AA
:103240001B82E0FF851A83851B82EFF09046EA74AB
:1032500001F090000112086D227F01121B7B7F108C
:1032600012329E7F101232BF9000BB7414F07B00AC
:103270007A807DDB7C907F01121474229043A3E05E
:10328000FFEF4402FFEFF09043B3E0FFEF4402FF93
:10329000EFF0904F0CE0FFEF4401FFEFF0229000C1
:1032A000B6EFF0904102C083C082E0FF9000B6E02C
:1032B000FEEE54F8FEEF4EFFD082D083EFF0229066
:1032C00000B6EFF0904082C083C082E0FF9000B66D
:1032D000E0FEEE54F8FEEF4EFFD082D083EFF022F6
:1032E0009000B6EEF0A3EFF07B027A4479089000EC
:1032F000B6E0FEA3E0FFAD07AC0612390222900053
:10330000B6EEF0A3EFF07B027A44790A9000B6E0C3
:10331000FEA3E0FFAD07AC06123902229000B6EE24
:10332000F0A3EFF07B027A4479029000B6E0FEA3AE
:10333000E0FFAD07AC06123902229000B6EEF0A312
:10334000EFF07B027A4479009000B6E0FEA3E0FF44
:10335000AD07AC06123902229000B6EEF0A3EFF0F2
:103360007B027A4479049000B6E0FEA3E0FFAD074B
:10337000AC06123902229000B6EEF0A3EFF07B0209
:103380007A4479069000B6E0FEA3E0FFAD07AC06F4
:10339000123902229000B6EEF0A3EFF07B027A44DD
:1033A00079109000B6E0FEA3E0FFAD07AC0612393D
:1033B00002229000B6EEF0A3EFF07B027A44790C83
:1033C0009000B6E0FEA3E0FFAD07AC061239022282
:1033D0009001BCE0FFEF70119001C2E0FFEF7003BD
:1033E0001232599001BC7401F01221E6229000B70C
:1033F000EFF01231E69000B7E0FF122DF99000B720
:10340000E0FF9001D4EFF0229000B8EEF0A3EFF0CF
:103410007B027A6579089000B8E0FCA3E0FD1239E0
:1034200002229000B8EEF0A3EFF07B027A657948B3
:103430009000B8E0FCA3E0FD123902229000B8EE43
:10344000F0A3EFF07B027A6579289000B8E0FCA346
:10345000E0FD123902229000B7EEF0A3EFF07B02FC
:103460007A6479209000B7E0FCA3E0FD12390222D3
:103470009000B7EEF0A3EFF07B027A647900900041
:10348000B7E0FCA3E0FD123902229000B8EEF0A3F1
:10349000EFF07B027A6479089000B8E0FCA3E0FDCD
:1034A000123902229000B8EEF0A3EFF07B027A64AA
:1034B00079489000B8E0FCA3E0FD123902229000A8
:1034C000B8EEF0A3EFF07B027A6479289000B8E0C0
:1034D000FCA3E0FD123902229001D0E0FFEF700959
:1034E00012374D9001D07401F012356E7FC812383A
:1034F0009322900009EEF0A3EFF07B027A4F79104F
:10350000900009E0FCA3E0FD123902229001D3E013
:10351000FFEF700912378C9001D37401F012359CC3
:103520007FFA1238C322EC4D6011ED60010C8B93D1
:103530008A838982E4F0A3DDFCDCFA75930022EF34
:1035400054016004D2AF8002C2AFEF5402FF904436
:10355000F4E054FD4FF0229043A7E0FFEF4408FF52
:10356000EFF09043B7E0FFEF4408FFEFF022904305
:10357000A8E0FFEF4408FFEFF09043B8E0FFEF440E
:1035800008FFEFF0229043A7E0FFEF4402FFEFF0C7
:103590009043B7E0FFEF4402FFEFF0229043A8E032
:1035A000FFEF4401FFEFF09043B8E0FFEF4401FF6D
:1035B000EFF0229000B6EFF09000B6E0FFEFC433DA
:1035C00054E0FF904484EFF0229000B6EFF09000BA
:1035D000B6E0FFEFC43354E0FF904485EFF0229053
:1035E00000B81208067B027A6479049000B81207CA
:1035F000EE123863229000B81208067B027A6479D2
:10360000249000B81207EE123863229000B8120816
:10361000067B027A6479349000B81207EE123863A0
:10362000229000B6EFF09000B6E0FFEFC43354E014
:10363000FF904481EFF0229000B6EFF09000B6E0EA
:10364000FFEFC43354E0FF904480EFF0229000B6C7
:10365000EFF09000B6E0FFEFC43354E0FF904482F7
:10366000EFF0229000B6EFF09000B6E0FFEFC43329
:1036700054E0FF904483EFF0229000B6EFF090000A
:10368000B6E0FFEFC43354E0FF904488EFF022909F
:1036900000B6EFF09000B6E0FFEFC43354E0FF90C7
:1036A0004486EFF0229001C8E0FFEF70091227294D
:1036B0009001C87401F0122FF2229001CAE0FFEFCE
:1036C000700912287B9001CA7401F012390F229000
:1036D0006569E0FFEF30E40B7B027A6579581238B8
:1036E000F380EC229001CBE0FFEF70091226A99045
:1036F00001CB7401F012391B229001CDE0FFEF7075
:1037000009122F859001CD7401F0123933229001F6
:10371000CEE0FFEF70091228E69001CE7401F0129E
:10372000393F22906468E0FFEF30E40B7B027A645B
:1037300079581238F380EC229001CFE0FFEF700946
:10374000122F0B9001CF7401F01235572290582C94
:10375000E4F090582DE4F07F001230D57F00123154
:103760008E229001D1E0FFEF7009122F489001D115
:103770007401F0123585229001D2E0FFEF7009123A
:10378000280F9001D27401F012327C22905820E46C
:10379000F0905821E4F07F001231047F001231BA1A
:1037A000229044F4E0F84402F0E85402FF10AF0124
:1037B0002274014FFF221239967E2F7FFF1232E0D2
:1037C0007F071235B312398F221239A47E317F332D
:1037D0001232FE7F071235C912399D221239B27E8C
:1037E0003A7F1112331C7F001236211239AB22129C
:1037F00039C07E3A7F1212333A7F071236371239B8
:10380000B9221239CE7E3A7F131233587F0712360F
:103810004D1239C7221239DC7E3A7F141233767F7B
:10382000071236631239D5221239EA7E3A7F151211
:1038300033947F071236791239E3221239F87E3A2F
:103840007F161233B27F0712368F1239F1228B9313
:103850008A838982E0FFA3E0FEA3E0FDE4FCF59308
:10386000228B938A838982EFF0A3EEF0A3EDF075AB
:103870009300229000B8EFF09000B8E0FF906486CB
:10388000EFF0229000B7EFF09000B7E0FF90648176
:10389000EFF0229000B6EFF09000B6E0FF905B836F
:1038A000EFF0229000B6EFF09000B6E0FF9065795F
:1038B000EFF022900009EFF0900009E0FF904F0F29
:1038C000EFF0229000B6EFF09000B6E0FF905B8042
:1038D000EFF0221239FF7E00EF30E60512397B80CF
:1038E000F222123A0B7E00EF30E30512398580F2A6
:1038F000228B938A838982E0FFA3E0FE75930022E6
:103900008B938A838982EDF0A3ECF075930022906B
:103910006578E0FFEF4480FFEFF022906474E0FFF1
:10392000EF4480FFEFF0229043A2E0FFEF4402FF5C
:10393000EFF022906472E0FFEF4480FFEFF02290FE
:103940006478E0FFEF4480FFEFF0229043A2E0FFB5
:10395000EF4408FFEFF022904E00E0FFEF4401FF3C
:10396000EFF0228B938A838982E0759300FF228B8C
:10397000938A838982EDF0759300227B027A6479C1
:1039800044123850227B027A6479401238F3229034
:1039900044C07410F0229044C87410F0229044C0C7
:1039A0007420F0229044C87420F0229044C0740225
:1039B000F0229044C87402F0229044C07401F022B6
:1039C0009044C87401F0229044C07404F0229044E2
:1039D000C87404F0229044C07408F0229044C87463
:1039E00008F0229044C17401F0229044C97401F09F
:1039F000229044C07440F0229044C87440F0229059
:103A00006466E0FF22906463E0FF22906461E0FF5F
:103A1000223232323232320049C80015004F0000E3
:103A200018005100001000513000100051F000103B
:103A300001000000800101000F00011400080001D6
:103A400040000A00014C000200015000002001511A
:103A500000080758000801008008076000805B0329
:043A60005B034020A4
:00000001FF
