:1000000002201E008F828E83E0540100000070F8F1
:100010002278FFE4F6D8FD02207C0203DBE864804E
:10002000F8E933E83360110460F0ED33EC33700924
:10003000E8FCE9FDEAFEEBFF220460DED3EB9FEA79
:100040009EE99DE8C2E78CF0C2F795F0400CE8CC41
:10005000F8E9CDF9EACEFAEBCFFB1203A685D0F092
:100060005804700320D5B3E80470075002B2D502DB
:1000700003E592D5EC0460F7E4CCC0E0C398F860E7
:100080003B94186008400DD0E0FB0203BDE4FBFA8E
:10009000C9FC8028E830E406E4C9FBE4CAFCE83087
:1000A000E305E4C9CACBFCE854076010F8C3E913C0
:1000B000F9EA13FAEB13FBEC13FCD8F130F52FC37C
:1000C000E49CFCEF9BFFEE9AFEED99FDD0E0FBEF88
:1000D0004E4D4C701222DB030203E2EC2CFCEF339A
:1000E000FFEE33FEED33FDED30E7EB0203BDEF2B0A
:1000F000FFEE3AFEED39FDD0E0FB50130BBB0003E1
:100100000203E5ED13FDEE13FEEF13FFEC13FC020B
:1001100003BDEC4D6011E8497017ED33EC3304601A
:100120000DE4FCFFFEFD22E933E8330470F802031E
:10013000DB1203A658046009E4CC24815006285041
:10014000090203E52840030203E2C0E0EB4A7044E1
:10015000B98006D0E0FB0203D1EF4E701CBD8008D1
:10016000EBFFEAFEE9FD80EBE98DF0A4FEE5F0028D
:1001700001FBE9CDF9EAFEEBFFEF89F0A4FCE5F025
:10018000CE89F0A42EFFE435F0CD89F0A42DFEE455
:1001900035F08067EF4E7005BD80D780C3EF8BF0E0
:1001A000A4ACF0EE8BF0A42CFCE435F0F8EF8AF070
:1001B000A42CE5F038FCE433CB8DF0A42CFCE5F066
:1001C0003BF8EE8AF0A42CFCE5F038F8E433CF8954
:1001D000F0A42CFCE5F038CF3400CE89F0A42FFF3A
:1001E000E5F03EFEE433C98DF0A42EFEE5F039CDF6
:1001F0008AF0A42FFFE5F03EFEE43DFD33D0E0FBA6
:1002000050070BBB000F0203E5EC2CFCEF33FFEEB5
:1002100033FEED33FD0203BD0203E5EC5D04600532
:10022000E8590470030203DB1203A6580460F6ECDD
:100230004860F2EC7004FDFEFF22C860DB2481C838
:100240005009C398600250060203E29850CAF58232
:10025000E9294B4A7005AB820203D175F0007C1A84
:100260007880C3EF9BEE9AED99400DC3EF9BFFEEB4
:100270009AFEED99FDE842F0DC23ACF0D0E0FFD02F
:10028000E0FED0E0FDAB8220E7101BEB60BAEC2C67
:10029000FCEF33FFEE33FEED33FD0203BDE803F860
:1002A00030E705C0F075F000EF2FFFEE33FEED33C1
:1002B000FD40B830E7C280AA74F8CC6480CCC86432
:1002C00080C8F58204604FC3EB9FF5F0EA9E42F0D0
:1002D000E99D42F0E89C45F0603C501DE5825FFFDF
:1002E000E582D313CB5BCBF42B5582FB50280ABAA3
:1002F000002409B9002008801DE5825BFBE582D35C
:1003000013CF5FCFF4C3132F5582FF50090EBE00E9
:10031000050DBD00010CC3EB9FF5F0EA9E42F0E92C
:100320009D42F0E89C45F06007CC4820E701B3EC23
:100330002275F020800E75F010800575F0087D00A4
:100340007E007F003392D530D5031207BCEC3340DA
:1003500010EF33FFEE33FEED33FDEC33FCD5F0ED63
:1003600022E5F0247EA2D513CC92E7CDCEFF22ED7C
:10037000D2E7CD33EC3392D524814006E4FFFEFD75
:10038000FC22FCE4CFCECDCC24E0501174FF80EDF4
:10039000C3CC13CCCD13CDCE13CECF13CF0470F07E
:1003A00030D5DE0207BCE9D2E7C933E833F892D58D
:1003B000EDD2E7CD33EC33FC5002B2D522EC30E77E
:1003C000100FBF000C0EBE00080DBD00040BEB604B
:1003D00014A2D5EB13FCED92E7FD2274FFFCFDFEA9
:1003E000FF22E480F8A2D574FF13FC7D80E480EF47
:1003F000F920E73624F950037907E4F42402FBE5F9
:1004000082158270021583DBF6E024FB501BE96045
:1004100014E4F0E582158270021583E004F0B40A5A
:1004200008E4F0D9EE7401F00A22C2D522ED33ECD3
:100430003392D5FA602AB4FF33EDC2E77BFF600642
:100440007A047952E4227A04795B20D5047A04791B
:1004500056224E614E002B494E46002D494E460015
:10046000E47A08F0A3DAFC7B00740722C083C08220
:10047000ECC0E0EDC0E0EEC0E0EFC0E0EA75F010E7
:10048000A4CAABF075F04DA42BFBE435F0FCEA24D4
:1004900010FAEB34C5FBEC34D9FCEDC2E7FF75F084
:1004A00056A4F42411C5F0F434C58FF0A42AE5F065
:1004B0003BE43CF020E714120562D0E0FFD0E0FE00
:1004C000D0E0FDD0E0FC12021B8014F4041205629F
:1004D000D0E0FFD0E0FED0E0FDD0E0FC120112D071
:1004E00082D083E0FAEDD2E7CD33EC332482FBE413
:1004F000C3CF33CFCE33CECD33CD33DBF37B0775D4
:10050000F00A846004F0A31B0AE5F0F0A38FF074F6
:100510000AA4FFACF08EF0740AA42CFEACF05001DB
:100520000C8DF0740AA42CFDE435F0F0A3DBDE742E
:1005300007223F8000004120000042C80000447AAA
:100540000000461C400047C35000497424004B186B
:1005500096804CBEBC205A0E1BCA6753C21C749DA9
:10056000C5AEFB60065407601C2323120590EB54B4
:1005700038600912057C12058B120112ECF8EDF9B6
:10058000EEFAEFCB22EB12058B80F1543803241CDA
:10059000900532FE93FC0EEE93FD0EEE930ECE937D
:1005A000FF22BB010689828A83E0225002E722BB38
:1005B000FE02E32289828A83E49322BB010CE58256
:1005C00029F582E5833AF583E0225006E92582F891
:1005D000E622BBFE06E92582F8E222E58229F582C1
:1005E000E5833AF583E49322BB010689828A83F08E
:1005F000225002F722BBFE01F322EF8DF0A4A8F0F7
:10060000CF8CF0A428CE8DF0A42EFE22BC000BBE11
:100610000029EF8DF084FFADF022E4CCF875F008EE
:10062000EF2FFFEE33FEEC33FCEE9DEC984005FC23
:10063000EE9DFE0FD5F0E9E4CEFD22EDF8F5F0EEEB
:100640008420D21CFEADF075F008EF2FFFED33FDD6
:100650004007985006D5F0F222C398FD0FD5F0EA76
:1006600022C5F0F8A3E028F0C5F0F8E58215827005
:10067000021583E038F022EF2BFFEE3AFEED39FD54
:10068000EC38FC22C3EF9BFFEE9AFEED99FDEC984F
:10069000FC22E88FF0A4CC8BF0A42CFCE98EF0A413
:1006A0002CFC8AF0EDA42CFCEA8EF0A4CDA8F08BF3
:1006B000F0A42DCC3825F0FDE98FF0A42CCD35F039
:1006C000FCEB8EF0A4FEA9F0EB8FF0A4CFC5F02ECA
:1006D000CD39FEE43CFCEAA42DCE35F0FDE43CFC33
:1006E0002275F008758200EF2FFFEE33FECD33CD7B
:1006F000CC33CCC58233C5829BED9AEC99E58298C8
:10070000400CF582EE9BFEED9AFDEC99FC0FD5F0C6
:10071000D6E4CEFBE4CDFAE4CCF9A88222B800C13D
:10072000B90059BA002DEC8BF084CFCECDFCE5F0AA
:10073000CBF97818EF2FFFEE33FEED33FDEC33FCF1
:10074000EB33FB10D703994004EB99FB0FD8E5E49A
:10075000F9FA227818EF2FFFEE33FEED33FDEC337C
:10076000FCC933C910D7059BE99A4007EC9BFCE90B
:100770009AF90FD8E0E4C9FAE4CCFB2275F010EF47
:100780002FFFEE33FEED33FDCC33CCC833C810D78A
:10079000079BEC9AE899400AED9BFDEC9AFCE899DE
:1007A000F80FD5F0DAE4CDFBE4CCFAE4C8F922EF97
:1007B0004BFFEE4AFEED49FDEC48FC22C3E49FFFEF
:1007C000E49EFEE49DFDE49CFC22EB9FF5F0EA9E96
:1007D00042F0E99D42F0E89C45F022E8600FEFC34B
:1007E00033FFEE33FEED33FDEC33FCD8F122E0FCB9
:1007F000A3E0FDA3E0FEA3E0FF22E0F8A3E0F9A35D
:10080000E0FAA3E0FB22ECF0A3EDF0A3EEF0A3EFFF
:10081000F022E0FBA3E0FAA3E0F922F8E0FBA3A3B7
:10082000E0F925F0F0E582158270021583E0FA38D0
:10083000F022EBF0A3EAF0A3E9F022E493FB7401C9
:1008400093FA740293F922D083D082F8E493701261
:10085000740193700DA3A393F8740193F5828883B8
:10086000E4737402936860EFA3A3A380DFE51B2504
:1008700082F582E51A3583F583B51A0485821B2239
:1008800010AF0685821BF51A2285821BF51AD2AF9E
:1008900022EC8EF0A4CCC5F0CCCDF8EFA4CEC5F000
:1008A0002DFDE43CFCE8A42EC8C5F03DFDE43CFC75
:1008B000EFA4FFE5F028FEE43DFDE43CFC22E7095F
:1008C000F608DFFA8046E709F208DFFA803E888200
:1008D0008C83E709F0A3DFFA8032E309F608DFFA38
:1008E000806EE309F208DFFA806688828C83E30970
:1008F000F0A3DFFA805A89828A83E0A3F608DFFA40
:10090000804E89828A83E0A3F208DFFA804280D297
:1009100080FA80C680D4805580F28029801080A61D
:1009200080EA809A80A880DA80E280CA8029888460
:100930008C8589828A83E493A30586F0A30586DFEC
:10094000F5DEF3800B89828A83E493A3F608DFF94E
:10095000ECFAA9F0EDFB2288848C8589828A83E0F9
:10096000A30586F0A30586DFF6DEF480E389828A9C
:1009700083E493A3F208DFF980D688F0EF60010EDC
:100980004E60CD88F0ED2402B4040050C3F582EB34
:100990002402B4040050B9232345822390090E7326
:1009A000E5082485F582E43400F583E0050822900B
:1009B0000082300703900085E475F00112081B02E5
:1009C00005A22000E97F2ED2008018EF540F24905A
:1009D000D43440D4FF30040BEF24BFB41A005003CA
:1009E0002461FFE50960021509050CE50C7002059C
:1009F0000B30070E900082E475F00112081BEF0225
:100A000005E80233D57403D2078003E4C207F50872
:100A1000900082120832E4F509F50BF50CE5096047
:100A2000077F201209E380F5750AFFC201C200C2E8
:100A300002C203C205C206C2081209AFFF700D3020
:100A400007057F001209F4AF0CAE0B22B4255FC27C
:100A5000D5C2041209AFFF24D0B40A00501A75F0B1
:100A60000A780930D50508B6FF0106C6A426F62087
:100A7000D5047002D20380D924CFB41A00EF5004F9
:100A8000C2E5D204020CE6D20180C6D20080C0D2F8
:100A90000280BCD2D580BAD20580B47F201209E38F
:100AA0002002077401B5090040F11209A0FF1209E4
:100AB000E3020A1DD208D20680951209A0FB120992
:100AC000A0FA1209A0F94A4B700679E47A0D7BFF6F
:100AD00020022EE509602A7E008E827583001205B1
:100AE000BB60060EEE650A70F0C2D5EBC0E0EAC04E
:100AF000E0E9C0E0EE120D47D0E0F9D0E0FAD0E036
:100B0000FB1205A2FF60AAEBC0E0EAC0E0E9C0E08A
:100B10001209E3D0E02401F9D0E03400FAD0E0FB80
:100B2000E50A0460DCD50AD98087D20280A2120DC2
:100B30002960F7E50A7001041203F0A90A600DE5C7
:100B40000A600914F50A120DD1EF60F3EA30E702EA
:100B5000F404C3995079EAF4250A0430E701E40467
:100B6000F50A800D120D2960C1EA050A250A120353
:100B7000F0EA9000B1F030E701E4250A04D50A0458
:100B800020050114120D47E4C0E0120DD19000B110
:100B9000E0601320E70714F01209CB802204F0D0A4
:100BA000E014C0E07F001209CBE50A60071209C219
:100BB000150A800B3005031209C2D0E0020A1DD0CD
:100BC000E00480C4120D29609EE50A041203F0902F
:100BD00000B1EAF0E50A2005026001042404120DC8
:100BE0004774FF04C0E0120DD11209CBE50A2005BD
:100BF0000260031209C2D0E0B50AE87F451209D5A8
:100C00009000B1E07F2B30E7047F2DF404C0E012A8
:100C100009E3D0E075F00A84C0F01209CCD0E012EC
:100C200009CC020A1D791080027908C206C2088028
:100C300008D2D5790A8004790AC2D5E50A0470027F
:100C4000F50AE4FAFDFEFF1209A0FC7B082001135F
:100C50001209A0FD7B1030000A1209A0FE1209A0A3
:100C6000FF7B20EC3382D592D55013C3E4300006CD
:100C70009FFFE49EFEE42001039DFDE49CFCE4CB89
:100C8000F8C201EC700CCFCECDCCE824F8F870F3AC
:100C90008017C3EF33FFEE33FEED33FDEC33FCEB97
:100CA00033FB994002FB0FD8E9EB300105F8D0E0A7
:100CB000C448B201C0E00AEC4D4E4F78207B007072
:100CC000C2EAB50A0040BCC0E0120D49D0F0D0E045
:100CD000200104C4C0E0C4B201C0F01209CCD0F0BD
:100CE000D5F0EB020A1D1208470ABA530C25580A20
:100CF0008B4C0A87420C294F0C31440C31490AA015
:100D0000430C37550B64460BC4450B2E470E04505D
:100D10000A8F2D0A932E0AB62B0A97230AB4200DA8
:100D2000ED2A0A4F4800000AAEE50AB4FF03750A2F
:100D3000061209A0FC1209A0FD1209A0FE1209A0CA
:100D4000FF9000AA02042D790AA2D52003143005D1
:100D500009B910020404B9080104A2D52006025002
:100D600001042002689202B509005034C0E07F20DF
:100D70003003197F30A20272067205500F120DA0C7
:100D8000C202C206C205C2087F30800F300503E9E7
:100D9000C0E01209E3300503D0E0F9D0E0B509CC9A
:100DA0003005177F30B9100C1209E37F5830040763
:100DB0007F788003B908031209E33002057F2D0212
:100DC00009E37F202008F87F2B2006F3229202807F
:100DD000CF7F00B40700500B24AAF582E43400F55D
:100DE00083E0FF22286E756C6C2900D2011209A0E5
:100DF0003001F8C201780930D50108F6020A4F2DFA
:100E0000504349581209A02403B405004001E4905E
:100E10000DFF931209D4743A1209D4D20375090450
:100E2000020C25C0E0C0F0C083C082C085C084C071
:100E300086758600C093759300C0D075D000C00041
:100E4000C001C002C003C004C005C006C0079001B5
:100E50001EE475F001120661123C48E41203319061
:100E600000F71208069000F31207FA9000F7120735
:100E7000EE12021B90013A1208069000F71207FAD0
:100E80009000F31207EE12021B9001561208069012
:100E900000CC1207FA9001561207EE12021B9000C6
:100EA000E41208069001071207EE900000120806EF
:100EB0009000E41207FA9000D01207EE12001D9085
:100EC00001071208069001361207EEC004C005C0E3
:100ED00006C00790013A1207EE9001071207FA12B6
:100EE0000112A804A905AA06AB07D007D006D005B1
:100EF000D004120021900136120806900136120724
:100F0000EE90012E1207FA120112C004C005C006AD
:100F1000C0079001071207EE9001421207FA120172
:100F200012A804A905AA06AB07D007D006D005D0A1
:100F3000041200219001221208067F007E007D002D
:100F40007C009000E41207FA1202B8702290014669
:100F50001207EE12036F900120EEF0A3EFF07F0076
:100F60007E007D007C0090013612080602100E7F84
:100F7000007E007D807CBF9001621207FA12002182
:100F8000C004C005C006C0079001221207EE900100
:100F9000461207FA120021A804A905AA06AB07D039
:100FA00007D006D005D0041202B86020401E7F0092
:100FB0007E007D807CBF9001621207FA1200211230
:100FC000036F900120EEF0A3EFF080429001221217
:100FD00007EE9001461207FA1200217B007A007991
:100FE0000078001202B8600C400A900120E4F0A3DF
:100FF000E4F0801A9001221207EE9001461207FADF
:1010000012002112036F900120EEF0A3EFF07D0D8E
:101010007F01122C5F9000FDE0FEA3E0FF121F2372
:1010200090011EE0FEA3E0FFC3EF941CEE9400408D
:101030004E9000E2E0FEA3E0FF9000FDE0FCA3E0A4
:10104000FDEDB5073AECB50636900004E4F07FE814
:101050007E037D007C00900005120806900004E0ED
:10106000FF123B3D90011EE4F0A3E4F01239F19031
:101070000166E0FEA3E0FF9000FDEEF0A3EFF0902C
:10108000011EE0FEA3E0FFC3EF9469EE94004072FE
:1010900090014AE0FEA3E0FF9000FDE0FCA3E0FD2C
:1010A000ED6F7002EC6E705A900004E4F090000452
:1010B000E0FF123B3D7D007F01122C5F7BFF7A3207
:1010C0007912122D5E7D017F01122C5F7BFF7A3237
:1010D0007914122D5E7F647E001236CB900004746A
:1010E00002F0900004E0FF123B3D90011EE4F0A3EB
:1010F000E4F09000D4E0FEA3E0FF9000FDEEF0A34A
:10110000EFF090011EE0FEA3E0FFC3EF941FEE940A
:101110000040459000D4E0FEA3E0FF9000FDE0FC1D
:10112000A3E0FDEDB50731ECB5062D900004740287
:10113000F07F987E001236CB900004E0FF123B3D1A
:1011400090011EE4F0A3E4F0900128E0FEA3E0FF8C
:101150009000FDEEF0A3EFF090011EE0FEA3E0FF93
:10116000C3EF940FEE94004028900128E0FEA3E026
:10117000FF9000FDE0FCA3E0FDEDB50714ECB50623
:10118000109000FBE0FEA3E0FF9000FDEEF0A3EF67
:10119000F0900120E0FEA3E0FF1235E1123CD6D032
:1011A00007D006D005D004D003D002D001D000D0A3
:1011B000D0D093D086D084D085D082D083D0F0D0C8
:1011C000E0327B007A4679E8123C30EF4405FD7B43
:1011D000007A4679E8123C3C751900E519C3940B76
:1011E000503AAF19EF75F005A424EFF582E4343CD2
:1011F000F583AF82AE838E0D8F0EAE0DAF0E8F8254
:101200008E8312083BAE0DAF0E8F828E83740393D4
:10121000FC740493FD123733051980BF751900E57E
:1012200019C394025078AF19EF75F008A42426F57D
:1012300082E4343DF583AF82AE838E0F8F10AE0F04
:10124000AF108F828E8312083B8B118A128913AEE6
:101250000FAF108F828E83A3A3A312083B8B148A37
:10126000158916AE0FAF108F828E83740693F51713
:10127000740793F518AB14AA15A916C003C002C0D1
:1012800001AB11AA12A9139000BE120832D001D0EE
:1012900002D003AF18AE171231DE051980817B082A
:1012A0007A0079001232FD7B007A5879487D037C00
:1012B00000123BA97B007A58794A7D037C01123BDE
:1012C000A97B007A58794C7D037C02123BA97B00F4
:1012D0007A58794E7D037C03123BA97B017A5079C1
:1012E00003123C30EF4402FD7B017A507903123C3B
:1012F0003C7B017A507913123C30EF4402FD7B01B4
:101300007A507913123C3C9043A0E0FFEF4440FF39
:101310009043A0EFF09043C2E0FFEF4410FF9043F2
:10132000C2EFF07B087A0779E0C003C002C0017BFE
:10133000007A5179129000BE120832D001D002D04A
:10134000037F087E001231DE7B087A0779E8C0034C
:10135000C002C0017B007A5179C29000BE120832EF
:10136000D001D002D0037F087E001231DE7B087AE4
:101370000779F0C003C002C0017B007A5179229046
:1013800000BE120832D001D002D0037F087E0012C6
:1013900031DE7B087A0779F8C003C002C0017B0008
:1013A0007A5179429000BE120832D001D002D003A7
:1013B0007F087E001231DE7B087A087900C003C006
:1013C00002C0017B007A5179529000BE120832D0DF
:1013D00001D002D0037F087E001231DE7B087A083C
:1013E0007908C003C002C0017B007A517962900085
:1013F000BE120832D001D002D0037F087E00123125
:10140000DE7B017A0079DB7D84123C3C7B017A0231
:1014100079DB7D84123C3C9044F47401F09046ECFE
:10142000E0FFEFC394055006904689743AF0904867
:101430000074F1F01219ED90480074B1F012251605
:101440007B007A4379A0C003C002C0017B007A43CD
:1014500079B09000BE120832D001D002D0037F0EC6
:101460007E001231DE9043B0E0FFEF54FDFF904369
:10147000B0EFF0229000B5EFF09000B6ECF0A3EDE5
:10148000F09000B8EAF0A3EBF09000B5E0FFEF12A7
:10149000084714A20414CF0714FA0815250A0000FF
:1014A00015509000BAE0FFEFD3940F40117B0C7AF7
:1014B000017918123C309000BBEFF00215557B0CFF
:1014C0007A01791C123C309000BBEFF00215559068
:1014D00000BAE0FFEFD3940F40107B0C7A0179192A
:1014E000123C309000BBEFF0806B7B0C7A01791DD1
:1014F000123C309000BBEFF0805B9000BAE0FFEF51
:10150000D3940F40107B0C7A01791A123C30900072
:10151000BBEFF080407B0C7A01791E123C309000CA
:10152000BBEFF080309000BAE0FFEFD3940F401093
:101530007B0C7A01791B123C309000BBEFF08015D8
:101540007B0C7A01791F123C309000BBEFF08005D4
:101550009000BBE4F09000B5E0FFEF603B9000B579
:10156000E0FFEF640160319000B5E0FFEF640260DE
:10157000279000B5E0FFEF6403601D9000B5E0FF29
:10158000EF640560139000B5E0FFEF64066009901A
:1015900000B5E0FFEFB4090A9000BCE4F0A3E4F06A
:1015A000801D9000BBE0FFEF3395E0FEEF7805C3B0
:1015B00033CE33CED8F9FF9000BCEEF0A3EFF0901D
:1015C00000BCE0FEA3E0FF9000B6E0FCA3E0FDED70
:1015D0002FFFEC3EFE9000BEEEF0A3EFF09000B8BF
:1015E000E0FEA3E0FF9000BEE0FCA3E0FD12089146
:1015F0009000C01208067B007A8079007800900085
:10160000C01207EE12071D9000BEEEF0A3EFF0909F
:1016100000BAE0FFEFC3940E50379000BEE0FEA387
:10162000E0FF9000BAE0FDC3740E9DFDEFA8050831
:101630008005CEC313CE13D8F9FF9000BEEEF0A301
:10164000EFF09000BAE0FFEF04FF904E0EEFF08055
:1016500006904E0E740FF09000BEE0FEA3E0FF90E7
:101660004E0CEFF09000BEE0FEA3E0FFEEFF7E0028
:10167000904E0DEFF022C0E0C0F0C083C082C08564
:10168000C084C086758600C093759300C0D075D0A5
:1016900000C000C001C002C003C004C005C006C035
:1016A000077D0E7F01122C5F7BFF7A327923122D8A
:1016B0005E9000FBE0FEA3E0FF9000FDE0FCA3E0F5
:1016C000FDED6F7002EC6E600302182790008174CC
:1016D00002F0900081E0FF123B3D1229C3900051BF
:1016E0001208069000511207EE122B50900055126E
:1016F000080690015A1207FA9000551207EE1200E0
:101700001D9000591208069001321207EE90005900
:101710001207FA12002190013212080690011912E4
:1017200007FA90015E1207EE12001D90012A1208BE
:10173000069000591207EE90011912080690005900
:101740001207EE90014C1207FA1201127B007A0088
:101750007918784312002190005D1208067F007E00
:10176000007DC87C4290005D1207FA1202B8500E4C
:101770007F007E007DC87C4290005D1208067F00DD
:101780007E007D487C4390005D1207FA1202B8602B
:1017900010400E7F007E007D487C4390005D120863
:1017A000067D007F00122C5F7B017A007971C003F7
:1017B000C002C0017BFF7A32792690008512083280
:1017C00090005D1207EE900088120806D001D0024A
:1017D000D003120A057B017A007971122D5E900008
:1017E0005D1207EE12036F1236CB7D007F01122CC3
:1017F0005F7B017A007961C003C002C0017BFF7A80
:101800003279369000851208329000551207EE901A
:101810000088120806D001D002D003120A057B010D
:101820007A007961122D5ED007D006D005D004D0A1
:1018300003D002D001D000D0D0D093D086D084D0B5
:1018400085D082D083D0F0D0E0324C00D6000000AA
:101850000000000000000000004400F347C35000F7
:10186000440162447A00004400CC40F889BA440044
:10187000E4000000004400F70000000044015600AE
:1018800000000044015000000000410168004400D5
:10189000D03FC000004401070000000044012200C6
:1018A0000000004401360000000044013A0000003E
:1018B000004401424496000044012E41F0000044DF
:1018C000014642DC0000420120006E42011E000081
:1018D00042010100004200E20001420166000242B2
:1018E00000F1000342014A00044200D40005420115
:1018F0002800064200FB00074200FF00634200FD93
:1019000000074100F00041011D0042010F000042AC
:101910000126000042011700004400EC0000000016
:1019200044015E0000000044010300000000440088
:10193000E8000000004401130000000042015400D0
:1019400098440132000000004401190000000044E6
:10195000014C41F0000044013E0000000044012A17
:101960000000000044015A3F99999A4101C4004186
:1019700001C3004401A8016E36004401A300005DCC
:10198000C04101A7184401AD2EE000004101C5008F
:101990004101C6004101C7004101C8004101C90021
:1019A0004101CA004101CB004101CC004101CD0001
:1019B0004101CE004101CF004101B1004101BC0015
:1019C0004101B7004101BD004101B6014401B80029
:1019D0000000004401B200001F404101D00041015D
:1019E000D1FF4301BE0000004101D200007E007F14
:1019F000B29000B6EEF0A3EFF07B007A4079807FE2
:101A00000C7E007D187C00123ADB7B007A407984E2
:101A10007F1D7E007D197C00123ADB7B007A4079C5
:101A2000887F1D7E007D197C00123ADB7B007A40A6
:101A3000798C7F2F7E757D197C00123ADB7B007AD2
:101A40004079907F2F7E757D197C00123ADB7B08F0
:101A50007A087910C003C002C0017B007A41790086
:101A60009000BE120832D001D002D0037F047E0065
:101A70001231DE9043007402F09040007408F09040
:101A800042007403F07B0C7A017908123C309046D6
:101A9000A1EFF07B007A4279227D087C00123BA9FD
:101AA0007B007A4279207D517C10123BA99000B8CE
:101AB000E4F07F197E007D007C009000B2120806E1
:101AC0009000B6E0FEA3E0FF8F828E831207EEEC5B
:101AD0004D4E4F604E9000B8E0FFEF6403604490BD
:101AE0004225E0FFEF5401FF7E009000B8E0FEEEDB
:101AF00025E0FEEE4FFFEF5403FF9000B8EFF07FBC
:101B0000E07E017D007C001231009000B21207EEF1
:101B10007BFF7AFF79FF78FF1206779000B21208F8
:101B200006809D7B007A4079047D007C01123BA9F0
:101B30009040047407F0904006E4F0904008744828
:101B4000F0904004E4F09040017402F090400B7477
:101B500004F09043A2E0FFEF441FFFEFF09043A199
:101B6000E0FFEF4401FFEFF09043A0E0FFEF44807F
:101B7000FFEFF0229000B5EFF09001BCE4F090018F
:101B8000B7E0FFEF70519058967407F0905897E4C3
:101B9000F090589EE4F0905B07E0FFEF4418FFEFF1
:101BA000F0905893E4F0905B88E4F0905B89E4F067
:101BB000905880740AF0905881E4F0905882747ABA
:101BC000F0905883E4F090588DE4F0904E01741436
:101BD000F0904E147401F09000B5E0FFEF640160E6
:101BE00003021CB4904E007438F0904E027405F05D
:101BF000904E037408F0904E04E4F0904E05E4F02B
:101C0000904E06742DF0904E0874DAF0904E0974E0
:101C10001EF0904E0AE4F09058847414F0905885A9
:101C20007409F0905886740AF0905887E4F0905840
:101C3000887412F09058897413F090588A7455F093
:101C400090588B745AF090588C7405F090588E749C
:101C500001F090588F7411F09058907419F09058CA
:101C6000917497F07F4C122FE39058947458F09031
:101C70005895E4F090589A7405F090589B7401F0D0
:101C800090589C7401F090589D740AF07F011235B1
:101C9000927F407E1F7D007C009001B21208067D7D
:101CA000077F1D1224817C167D767F1D12234C7FB9
:101CB0001D1222A3229000CBE4F0905120E0FFEF10
:101CC0005480FFEFF0905122E0FFEF54F0FF9000BE
:101CD000CBEFF09000CBE0FFEF440FFF905122EFED
:101CE000F0905123E0FFEF54F0FF9000CBEFF09025
:101CF00000CBE0FF905123EFF0905124E0FFEF5430
:101D0000F0FF9000CBEFF09000CBE0FF905124EF7C
:101D1000F0905120E0FFEF54DFFFEFF0905120E012
:101D2000FFEF4440FFEFF07F007E001232D0905171
:101D300020E0FFEF4410FFEFF07F017E001232D071
:101D4000905121E0FF9000CBEFF0905120E0FFEFA9
:101D500054EFFFEFF09000CBE0FFEF5408FF90004E
:101D6000CBEFF0905120E0FFEF4410FFEFF07F0148
:101D70007E001232D0905120E0FFEF54EFFFEFF0E1
:101D80009000CBE0FFEF709F905120E0FFEF54BF39
:101D9000FFEFF0905120E0FFEF5480FFEFF0905103
:101DA00022E0FFEF54F0FF9000CBEFF09000CBE08B
:101DB000FF905122EFF0905123E0FFEF54F0FF909D
:101DC00000CBEFF09000CBE0FFEF440FFF905123EA
:101DD000EFF0905124E0FFEF54F0FF9000CBEFF0D4
:101DE0009000CBE0FFEF440FFF905124EFF022C0B2
:101DF000E0C0F0C083C082C085C084C08675860004
:101E0000C093759300C0D075D000C000C001C0025F
:101E1000C003C004C005C006C007123C5C90010F9F
:101E2000EEF0A3EFF0123C5C900126EEF0A3EFF091
:101E3000900126E0FEA3E0FF90010FE0FCA3E0FD8F
:101E4000C3ED9FFDEC9EFCE41203369000EC1208FB
:101E5000067F007E007D407CC49000EC1207FA12E1
:101E6000002190015E1208069001031207EE900116
:101E70005E1207FA1200219001031208069000E892
:101E80001207FA90015E1207EE12001D9001131264
:101E9000080690015E1207EE9000E81208067F0027
:101EA0007E407D1C7C469000EC1207FA1202B8605E
:101EB00002504A7FCD7ECC7DCC7C3D90015E1207E6
:101EC000FA1201127B007A0079187843120021126D
:101ED000036F900154EEF0A3EFF09000FBE0FEA33F
:101EE000E0FF9000FDE0FCA3E0FDEDB5070FECB5D1
:101EF000060B900154E0FEA3E0FF1236CB123CE249
:101F0000D007D006D005D004D003D002D001D00035
:101F1000D0D0D093D086D084D085D082D083D0F05A
:101F2000D0E0329000B5EEF0A3EFF09000C1E4F005
:101F30009000C2E4F09000B5E0FEA3E0FFC3EF9490
:101F40000AEE940040459000B5E0FEA3E0FF7C005F
:101F50007D0A12060CAF05EF2430FF9000C1E0FEB1
:101F600074BC2EF582E43400F583EFF09000B5E008
:101F7000FEA3E0FF7C007D0A12060C9000B5EEF097
:101F8000A3EFF09000C1E004F080AA9000B5E0FE5D
:101F9000A3E0FF7C007D0A12060CAF05EF2430FFA2
:101FA0009000C1E0FE74BC2EF582E43400F583EFAE
:101FB000F09000C1E0FF9000C2EFF09000C1E0FFA0
:101FC000EF64FF603E9000C1E0FF74BC2FF582E437
:101FD0003400F583E0FF9000C1E0FEEEFD7C009050
:101FE00000C2E0FEEEFB7A00C3EB9DFDEA9CFC74B0
:101FF000B72DF58274003CF583EFF09000C1E0143A
:10200000F080B89000C2E0FF74B82FF582E434008D
:10201000F583E4F07B017A0079B7122D5E22759387
:102020000078007583467582E8E04401F000904630
:10203000ECE0F99046FAE0FAB903225420B4001219
:10204000B8001AEA901FFFF07401901FFEF090464E
:10205000F6F0901FFEE06005901FFFE0FA90480048
:1020600074C0F075812190000078007920E4F0A31D
:10207000D8FCD9FAEA9001ACF0020011751A1F756C
:102080001BFD1211C20220C3022108E493A3F8E44D
:1020900093A34003F68001F208DFF48029E493A3C0
:1020A000F85407240CC8C333C4540F4420C88340D9
:1020B00004F456800146F6DFE4800B0102040810A8
:1020C00020408090184AE47E019360BCA3FF543FF7
:1020D00030E509541FFEE493A360010ECF54C025E0
:1020E000E060A840B8E493A3FAE493A3F8E493A3D0
:1020F000C8C582C8CAC583CAF0A3C8C582C8CAC534
:1021000083CADFE9DEE780BE9000B27402F090007F
:10211000B3E4F0A3E4F0D2AF9044F4E0FFEF54FD59
:10212000FFEFF012391F123BDC123C00123934125F
:10213000395E12367D1238F51239881238E0123ABB
:10214000307E0E7F23123485123A437E2C7F081294
:1021500034A3123A567E1D7FEF1234C1123A697EC3
:102160002D7F0D1234DF1239491236E51239B212C1
:102170003A7C7E257FA71234FD1239DC123A8F7E1D
:10218000267F2B12351B123C18123AA27E237FE9C0
:102190001235399001461207EE12036F1235E190A5
:1021A00000B2E0FF123B3D123AB57E327FCE1235CF
:1021B000577D007F01122C5F9000FDE0FEA3E0FF41
:1021C000121F231237191235757F1D1222A3123CDC
:1021D000249000B3E0FEA3E0FFEFB410F4EEB427C8
:1021E000F09000B3E4F0A3E4F080E6229043AAE08C
:1021F000FFEF4401FFEFF09043AAE0FFEF4410FF30
:10220000EFF09043BAE0FFEF4401FFEFF09043BAE4
:10221000E0FFEF4410FFEFF09001B6E0FFEF640144
:1022200070499046F8E0FFEF4402FFEFF09046F966
:10223000E0FFEF4402FFEFF0905891E0FFEF44031E
:10224000FFEFF0905892E0FFEF4408FFEFF07F03BC
:102250007E001232D09046F8E0FFEF54FDFFEFF021
:102260009046F9E0FFEF54FDFFEFF0905877E0FF64
:10227000EF4406FFEFF09043A1E0FFEF4401FFEFD2
:10228000F09043B1E0FFEF4401FFEFF09043A2E094
:10229000FFEF4401FFEFF09043B2E0FFEF4401FF96
:1022A000EFF02290FFFF12086DEFF090FFFE120892
:1022B0006D851A83851B82A3A3E0FFEFD3941F5083
:1022C00003D38001C34025851A83851B82A3A3E025
:1022D000FFEFD3941F500A7F017E007D007C0080B9
:1022E000087F007E007D007C001233FC851A838508
:1022F0001B82A3A3E0FFEF541FFF7E00EF7803CE05
:10230000C313CE13D8F9FFEF24C0FFEE3444FE858B
:102310001A83851B82EEF0A3EFF0851A83851B825A
:10232000A3A3E0FFEF5407FF7401A807088002C3CE
:1023300033D8FCFF851A83851B82E0FCA3E0FD8D6A
:10234000828C83EFF090000312086D229000B6EFAC
:10235000F09000B7ECF0A3EDF09000B6E0FFEFD303
:10236000941F5003D38001C340209000B6E0FFEFDC
:10237000D3941F500A7F017E007D007C0080087F7F
:10238000007E007D007C001233FC9000B6E0FFEF81
:10239000541FFF7E00EF25E0FFEE33FEEF2400FF29
:1023A000EE3444FEAA06A9077B01123B9C9000B9BB
:1023B000EEF0A3EFF09000B6E0FF7E02EF8EF0A407
:1023C000FFAEF0EF2400FFEE3444FEAA06A9077B1F
:1023D000019000B7E0FEA3E0FFAD07AC06123BABF7
:1023E0009000B9E0FEA3E0FF22C0E0C0F0C083C0CF
:1023F00082C085C084C086758600C093759300C076
:10240000D075D000C000C001C002C003C004C00528
:10241000C006C007900166E0FEA3E0FF9000FDE06B
:10242000FCA3E0FDED6F7002EC6E70329000F1E005
:10243000FEA3E0FF9000FDEEF0A3EFF07D007F0033
:10244000122C5F9000FDE0FEA3E0FF121F237D0031
:102450007F01122C5F7BFF7A327919122D5ED00733
:10246000D006D005D004D003D002D001D000D0D007
:10247000D093D086D084D085D082D083D0F0D0E0E5
:10248000329000B6EFF09000B7EDF09000B7E0FFAB
:10249000EFD394075003D38001C340209000B7E0EE
:1024A000FFEFD39407500A7F017E007D007C0080FF
:1024B000087F007E007D007C001233FC9000B6E0B7
:1024C000FFEFD3941F5003D38001C340209000B688
:1024D000E0FFEFD3941F500A7F017E007D007C0057
:1024E00080087F007E007D007C001233FC9000B7E6
:1024F000E0FFEF5407FF7E00EF75F020A4FFAEF081
:102500009000B6E0FEEE541FFE74802EF582E43497
:1025100044F583EFF0227B0C7A0179CF123C3090A6
:1025200000B2EFF09000B2E0FFEF5407FF90586E5A
:10253000EFF09000B2E0FFEFC4540FFFEF540FFF35
:1025400090586FEFF090514D7404F090515D7414F9
:10255000F090516C7401F0905A807401F0905A9090
:102560007420F0905A987420F0905AC47401F0903E
:102570005AC87404F0905ACB7440F0905AD074400A
:10258000F0905AD47420F0905AD87401F07B027AFB
:102590005A79DB7D407C20123BAB905B037401F0E9
:1025A0009058767444F022C0E0C0F0C083C082C06E
:1025B00085C084C086758600C093759300C0D075B1
:1025C000D000C000C001C002C003C004C005C006E6
:1025D000C007900101E0FEA3E0FF9000FDE0FCA336
:1025E000E0FDEDB50722ECB5061E9000367402F052
:1025F000900036E0FF123B3D9000E2E0FEA3E0FFDA
:102600009000FDEEF0A3EFF0D007D006D005D00487
:10261000D003D002D001D000D0D0D093D086D084C7
:10262000D085D082D083D0F0D0E032C0E0C0F0C0FE
:1026300083C082C085C084C086758600C0937593B0
:1026400000C0D075D000C000C001C002C003C004EB
:10265000C005C006C0079000F1E0FEA3E0FF9000B7
:10266000FDE0FCA3E0FDEDB50722ECB5061E9000F1
:102670004F7403F090004FE0FF123B3D90014AE0A1
:10268000FEA3E0FF9000FDEEF0A3EFF0D007D00630
:10269000D005D004D003D002D001D000D0D0D09348
:1026A000D086D084D085D082D083D0F0D0E0329054
:1026B0006474E0FFEF54F8FF9000B5EFF09000B5C0
:1026C000E0FFEF4401FF906474EFF0906474E0FF6A
:1026D000EF54E7FF9000B5EFF09000B5E0FFEF4456
:1026E00008FF906474EFF0123B6D7FFF7EFF7DFF6B
:1026F0007C001238307F007E007D007C0012381A8A
:102700007F1C123AED123CD67F807E007D007C005B
:10271000123846123A1B9000B6EFF0906496E0FF34
:10272000EF4410FFEFF09000B6E0FF12374C227F2D
:10273000287E007D007C001227A97F03122DF67FE2
:10274000057E007D007C001227A97F03122DF67FF5
:102750000F7E007D007C001227A97F03122DF67FDB
:10276000017E007D007C001227A97F02122DF67FDA
:10277000057E007D007C001227A97F06122F5B7F5B
:102780000E122F5B7F2C122F5B7F08122F5B7F01B5
:10279000122F5B7F0C122F5B7F03122F5B7F057E56
:1027A000007D007C001227A92290FFFC12086D1208
:1027B00008067F007E807D007C00851A83851B8251
:1027C0001207FAD31207CA40309001AD1207EE1279
:1027D0003100851A83851B82C083C0821207EEC335
:1027E000EF9400FFEE9480FEED9400FDEC9400FC6D
:1027F000D082D08312080680B99001A31207EE851B
:102800001A83851B821207FA120692123100900079
:102810000412086D22906471E0FFEF54F8FF9000FD
:10282000B5EFF09000B5E0FF906471EFF090647147
:10283000E0FFEF54E7FF9000B5EFF09000B5E0FF48
:10284000906471EFF0123B7C7F637E001236157F3F
:10285000007E001235FB7F0C123AFD123CDC7F310A
:102860007E0012362F123A1B9000B6EFF090649360
:10287000E0FFEF4410FFEFF09000B6E0FF12374C9E
:1028800022904F0CE0FFEF5401FFEFF0904F0EE06D
:10289000FFEF54FCFFEFF0904F0CE0FFEF4404FF1C
:1028A000EFF0904F0DE0FFEF4401FFEFF0904F1776
:1028B000E0FFEF54CFFFEFF0904F17E0FFEF443011
:1028C000FFEFF0904F17E0FFEF54F0FFEFF0904F65
:1028D00017E0FFEF440FFFEFF07FE87E031236FFB3
:1028E0007FE87E03122BAD7F08123B4D2290657866
:1028F000E0FFEF54C0FF9000B5EFF09000B5E0FFAF
:10290000EF4409FF906578EFF0906598E0FFEF44A1
:1029100001FFEFF0906599E0FFEF4401FFEFF07FDA
:10292000E77E031235AD7FE77E031235C77FFA7E5F
:10293000001235E1906589E4F0123A1B9000B6EF81
:10294000F0906599E0FFEF4410FFEFF09000B6E0E3
:10295000FF12374C12390A22906478E0FFEF54C01E
:10296000FF9000B5EFF09000B5E0FFEF4409FF9055
:102970006478EFF0906498E0FFEF4401FFEFF0908F
:102980006499E0FFEF4401FFEFF07FE77E0312362A
:10299000977FE77E031236B17F987E001236CB9088
:1029A0006488E4F0123A1B9000B6EFF0906498E06F
:1029B000FFEF4410FFEFF09000B6E0FF12374C122B
:1029C000399D22904E12E0FFEF54FFFFEF3395E068
:1029D000FEFDFC9000821208069000821207EE783D
:1029E000081207DBA804A905AA06AB07904E11E060
:1029F000FFE4FCFDFE1207AF900082120806900073
:102A0000821207EE78081207DBA804A905AA06AB14
:102A100007904E10E0FFE4FCFDFE1207AF9000822D
:102A20001208069000821207EE229000B5EFF09097
:102A300000B5E0FFEF5403FF905842E0FEEE54FC77
:102A4000FEEE4FFF905842EFF09000B5E0FFEFB47C
:102A5000011D7B0C7A017912123C30904634EFF064
:102A60007B0C7A017916123C30904635EFF0227BD0
:102A70000C7A0179B1123C30904634EFF07B0C7A3D
:102A80000179B9123C30904635EFF0229000B5EF55
:102A9000F09000B5E0FFEF5403FF905843E0FEEEE6
:102AA00054FCFEEE4FFF905843EFF09000B5E0FF6E
:102AB000EFB4011D7B0C7A017913123C309046363D
:102AC000EFF07B0C7A017917123C30904637EFF02B
:102AD000227B0C7A0179B3123C30904636EFF07BC2
:102AE0000C7A0179BB123C30904637EFF02290000F
:102AF000B5EFF09000B5E0FFEF5403FF905841E0D0
:102B0000FEEE54FCFEEE4FFF905841EFF09000B502
:102B1000E0FFEFB4011D7B0C7A017911123C30907B
:102B20004632EFF07B0C7A017915123C3090463337
:102B3000EFF0227B0C7A0179AF123C30904632EFF5
:102B4000F07B0C7A0179B7123C30904633EFF022DB
:102B50009000821208067F007E007D007C009000BD
:102B6000861208069000821207EE9001B81207FA4A
:102B70001206849000821208069001B21207EEEC51
:102B8000120331C004C005C006C0079000821207BE
:102B9000EEEC120331D003D002D001D00012021BA0
:102BA0009000861208069000861207EE2290000917
:102BB000EEF0A3EFF09043A3E0FFEF5402FF7E009E
:102BC000EF4E601C9043A3E0FFEF5402FF7E00EF46
:102BD0004E70047F0180027F00E4FCFDFE1233FC96
:102BE0009043A3E0FFEF4402FFEFF07B027A4F79BE
:102BF00012900009E0FCA3E0FD123BAB9043A3E080
:102C0000FFEF54FDFFEFF022C0E0C0F0C083C082B0
:102C1000C085C084C086758600C093759300C0D0FF
:102C200075D000C000C001C002C003C004C005C010
:102C300006C007900168E004F0123CD6D007D00629
:102C4000D005D004D003D002D001D000D0D0D09392
:102C5000D086D084D085D082D083D0F0D0E032909E
:102C600000B5EFF09000B6EDF09000B5E0FFEF1288
:102C700008472C82002C8F012C9C022CA9030000F9
:102C80002CB59000B6E0FFEF2480FF122F5B22905E
:102C900000B6E0FFEF24C0FF122F5B229000B6E0E9
:102CA000FFEF2494FF122F5B229000B6E0FFEF2489
:102CB000D4FF122F5B229000CAEFF0121CB5905186
:102CC00020E0FFEF4420FFEFF0905120E0FFEF54B1
:102CD000BFFFEFF0905120E0FFEF54F0FFEFF090D6
:102CE0005120C083C082E0FF9000CAE0FEEE441095
:102CF000FEEF4EFFD082D083EFF07F017E001232D4
:102D0000D0905120E0FFEF54EFFFEFF022C0E0C081
:102D1000F0C083C082C085C084C086758600C09321
:102D2000759300C0D075D000C000C001C002C003C0
:102D3000C004C005C006C007123CDCD007D006D0D6
:102D400005D004D003D002D001D000D0D0D093D091
:102D500086D084D085D082D083D0F0D0E03290006D
:102D6000C31208329000C67401F09000C31208121A
:102D70001205A2FF9000C7EFF09000C7E0FFEF60E0
:102D80002A9000C7E0FF1231729000C3120812901F
:102D900000C6E0FFE92FF9E43AFA1205A2FF90001D
:102DA000C7EFF09000C6E004F080CE229000B8EFAC
:102DB000F09000B8E0FFEFC3940250399000B8E003
:102DC000FFEF25E02436F582E4343DF583E493FEFD
:102DD000740193FF8F828E83C083C082E0FF9000D6
:102DE000B8E0FEEE903D3A93FEEEF4FEEF5EFFD0CB
:102DF00082D083EFF0229000B9EFF0905120E0FFF5
:102E0000EF549FFFEFF0905120E0FFEF54F0FFEF01
:102E1000F0905120C083C082E0FF9000B9E0FEEE48
:102E20004410FEEF4EFFD082D083EFF07F017E0092
:102E30001232D0905120E0FFEF54EFFFEFF02290DC
:102E40005828E0FFEF540CFF7E00EF7802CEC3134A
:102E5000CE13D8F9FFEF2406FF9000B6EFF09000F4
:102E6000B6E0FFE4FCFDFEEF2428FFEE3401FEEDAA
:102E7000340CFDEC3400FCA907AA06AB05123C306B
:102E800090460AEFF02290582CE0FFEF540CFF7EA2
:102E900000EF7802CEC313CE13D8F9FFEF2406FF5C
:102EA0009000B6EFF09000B6E0FFE4FCFDFEEF24EA
:102EB00038FFEE3401FEED340CFDEC3400FCA907C4
:102EC000AA06AB05123C3090460BEFF0229058203A
:102ED000E0FFEF540CFF7E00EF7802CEC313CE1359
:102EE000D8F9FFEF2406FF9000B6EFF09000B6E0AF
:102EF000FFE4FCFDFEEF2420FFEE3401FEED340C78
:102F0000FDEC3400FCA907AA06AB05123C30904644
:102F100008EFF0229000B7EFF09000B7E0FFEFC3AA
:102F2000940250369000B7E0FFEF25E02436F5829A
:102F3000E4343DF583E493FE740193FF8F828E8326
:102F4000C083C082E0FF9000B7E0FEEE903D3A9370
:102F5000FEEF4EFFD082D083EFF0229000B7EFF06B
:102F60009000B7E0FFEFC4540FFF9000B8EFF012ED
:102F70001CB59000B8E0FFEF540FFF9000B8EFF0E1
:102F80009000B8E0FF122DF69000B7E0FFEF540F6D
:102F9000FF9000B8EFF09000B8E0FF122DF622C2CB
:102FA000D5E830E70FB2D5E4C39BFBE49AFAE49985
:102FB000F9E498F8EC30E717B2D5122FD512071DB7
:102FC000E4C39BFBE49AFAE499F9E498F8800312CD
:102FD000071D30D50DE4C39FFFE49EFEE49DFDE494
:102FE0009CFC229000B6EFF09046F8E0FFEF44031F
:102FF000FFEFF09046F9E0FFEF4403FFEFF09000A1
:10300000B6E0FF905892EFF07F037E001232D0902E
:1030100046F8E0FFEF54FCFFEFF09046F9E0FFEFD9
:1030200054FCFFEFF0227F01122A2A905842E0FF61
:10303000EF4420FFEFF0905842E0FFEF54FBFFEF2A
:10304000F0905842E0FFEF4408FFEFF0905AD7E0CD
:10305000FFEF54E7FFEFF0905AD7E0FFEF4408FF8F
:10306000EFF0227F00122A8C905843E0FFEF4420BB
:10307000FFEFF0905843E0FFEF54FBFFEFF0905864
:1030800043E0FFEF4408FFEFF0905ADFE0FFEF541A
:10309000E7FFEFF0905ADFE0FFEF4408FFEFF02288
:1030A0007F00122AEE905841E0FFEF4420FFEFF03E
:1030B000905841E0FFEF54FBFFEFF0905841E0FFE4
:1030C000EF4408FFEFF0905ACFE0FFEF54E7FFEF37
:1030D000F0905ACFE0FFEF4408FFEFF0227F01129B
:1030E0001B747F101234437F101234649000BA7442
:1030F0000EF07BE97A777DB67C8D7F011214742205
:10310000EC4D4E700D78FCEF24E950032840FD2271
:1031100000007BF178DA0000EF28FF78FFEE38FE40
:10312000ED38FDEC38FC50E7EF2BFFEE38FEED38C4
:10313000FDEC38FC40F222050203047FFF7EFF1203
:1031400036497FFF7EFF123663123A1B9000B5EFBF
:10315000F0906491E0FFEF4410FFEFF09000B5E0D5
:10316000FF12374C7F011231A8123B8B7F02123BBA
:103170000D229000C8EFF0121CB59000C8E0FFEFE0
:10318000C4540FFF9000C9EFF09000C9E0FF122C6B
:10319000B69000C8E0FFEF540FFF9000C9EFF09029
:1031A00000C9E0FF122CB6229000B6EFF09000B6F6
:1031B000E0FFEF5403FF9000B6EFF0906472E0FF81
:1031C000EF54FCFFEFF0906472C083C082E0FF9088
:1031D00000B6E0FEEF4EFFD082D083EFF02275867E
:1031E00000EF4E6027EF60010E7593009000BEE087
:1031F000F595A3E0F585A3E0F5848B938A83898216
:10320000E0A30586F0A31586DFF6DEF4E4F593F57A
:10321000952273006C6565700077616974206F7624
:10322000657200283A006572723A2025312E3466A4
:103230002020202020004144433A2025312E3466AE
:10324000009000B5EFF0905828E0FFEF54F3FFEF47
:10325000F0905828C083C082E0FF9000B5E0FEEEF9
:10326000540CFEEF4EFFD082D083EFF0122E3F229F
:103270009000B5EFF090582CE0FFEF54F3FFEFF023
:1032800090582CC083C082E0FF9000B5E0FEEE5461
:103290000CFEEF4EFFD082D083EFF0122E862290EC
:1032A00000B5EFF0905820E0FFEF54F3FFEFF090FF
:1032B0005820C083C082E0FF9000B5E0FEEE540CC1
:1032C000FEEF4EFFD082D083EFF0122ECD223232AD
:1032D000EEFA9001A7E0F88FF0A4FFAEF0E88AF0D4
:1032E000A42EFEE5F03400FDEF24C9FF78FFEE3890
:1032F000FEED38FDE438FC500302310022ACEAADAB
:10330000A08B938A838982E0F96017A3E0F5EAA392
:10331000E0F5A0A3E060F4FAA3E0F8A3E0F2DAF8A5
:10332000D9E98DA08CEAE4F593229000B5EFF090F6
:103330005828E0FFEF54FDFFEFF0905828C083C0FD
:1033400082E0FF9000B5E0FEEE5402FEEF4EFFD0AB
:1033500082D083EFF0229000B5EFF090582CE0FF80
:10336000EF54FDFFEFF090582CC083C082E0FF9037
:1033700000B5E0FEEE5402FEEF4EFFD082D083EFA8
:10338000F0229000B5EFF0905820E0FFEF54FDFFE1
:10339000EFF0905820C083C082E0FF9000B5E0FEBF
:1033A000EE5402FEEF4EFFD082D083EFF022900069
:1033B000B7E4F09000B7E0FFEFC394025010900024
:1033C000B7E0FF122DAC9000B7E004F080E590016B
:1033D000D174FFF022EFB40A07740D1233E0740ABF
:1033E000309811A899B8130CC2983098FDA899C2CA
:1033F00098B811F63099FDC299F5992290FFFF1205
:10340000086DEFF0851A83851B82E0FF851A83859E
:103410001B82EFF09046EA7401F090000112086DF3
:10342000229043A3E0FFEF4402FFEFF09043B3E0AC
:10343000FFEF4402FFEFF0904F0CE0FFEF4401FF7D
:10344000EFF0229000B5EFF0904102C083C082E01F
:10345000FF9000B5E0FEEE54F8FEEF4EFFD082D0B4
:1034600083EFF0229000B5EFF0904082C083C082DD
:10347000E0FF9000B5E0FEEE54F8FEEF4EFFD08284
:10348000D083EFF0229000B5EEF0A3EFF07B027A4C
:103490004479089000B5E0FEA3E0FFAD07AC06124A
:1034A0003BAB229000B5EEF0A3EFF07B027A4479BB
:1034B0000A9000B5E0FEA3E0FFAD07AC06123BABFF
:1034C000229000B5EEF0A3EFF07B027A44790290EF
:1034D00000B5E0FEA3E0FFAD07AC06123BAB2290C7
:1034E00000B5EEF0A3EFF07B027A4479009000B5CE
:1034F000E0FEA3E0FFAD07AC06123BAB229000B5A7
:10350000EEF0A3EFF07B027A4479049000B5E0FE80
:10351000A3E0FFAD07AC06123BAB229000B5EEF086
:10352000A3EFF07B027A4479069000B5E0FEA3E0B9
:10353000FFAD07AC06123BAB229000B5EEF0A3EF57
:10354000F07B027A4479109000B5E0FEA3E0FFAD75
:1035500007AC06123BAB229000B5EEF0A3EFF07B78
:10356000027A44790C9000B5E0FEA3E0FFAD07AC11
:1035700006123BAB229001B7E0FFEF70119001BD46
:10358000E0FFEF70031230DD9001B77401F01221FB
:10359000EC229000B6EFF01233AE9000B6E0FF12CE
:1035A0002F149000B6E0FF9001D1EFF0229000B709
:1035B000EEF0A3EFF07B027A6579089000B7E0FCAB
:1035C000A3E0FD123BAB229000B7EEF0A3EFF07B3F
:1035D000027A6579489000B7E0FCA3E0FD123BABAE
:1035E000229000B7EEF0A3EFF07B027A6579289085
:1035F00000B7E0FCA3E0FD123BAB229000B7EEF079
:10360000A3EFF07B027A6479029000B7E0FCA3E0BC
:10361000FD123BAB229000B7EEF0A3EFF07B027AF5
:103620006479229000B7E0FCA3E0FD123BAB22904E
:1036300000B7EEF0A3EFF07B027A6479329000B726
:10364000E0FCA3E0FD123BAB229000B6EEF0A3EF4E
:10365000F07B027A6479209000B6E0FCA3E0FD12D2
:103660003BAB229000B6EEF0A3EFF07B027A6479D8
:10367000009000B6E0FCA3E0FD123BAB229001CA33
:10368000E0FFEF70091239739001CA7401F012372C
:103690007B7FC1123B1D229000B7EEF0A3EFF07BC1
:1036A000027A6479089000B7E0FCA3E0FD123BAB1E
:1036B000229000B7EEF0A3EFF07B027A6479489095
:1036C00000B7E0FCA3E0FD123BAB229000B7EEF0A8
:1036D000A3EFF07B027A6479289000B7E0FCA3E0C6
:1036E000FD123BAB229001CDE0FFEF70091239C70C
:1036F0009001CD7401F01237A97FC8123B2D2290A2
:103700000009EEF0A3EFF07B027A4F7910900009E8
:10371000E0FCA3E0FD123BAB229001D0E0FFEF7094
:1037200009123A069001D07401F01237D77FFA12CD
:103730003B5D22EC4D6011ED60010C8B938A838917
:1037400082E4F0A3DDFCDCFA75930022EF54016003
:1037500004D2AF8002C2AFEF5402FF9044F4E054B1
:10376000FD4FF0229043A7E0FFEF4404FFEFF090FD
:1037700043B7E0FFEF4404FFEFF0229043A8E0FFDF
:10378000EF4404FFEFF09043B8E0FFEF4404FFEF95
:10379000F0229043A7E0FFEF4408FFEFF09043B71B
:1037A000E0FFEF4408FFEFF0229043A8E0FFEF4472
:1037B00008FFEFF09043B8E0FFEF4408FFEFF0227E
:1037C0009043A7E0FFEF4402FFEFF09043B7E0FF24
:1037D000EF4402FFEFF0229043A8E0FFEF4401FF27
:1037E000EFF09043B8E0FFEF4401FFEFF0229000CC
:1037F000B5EFF09000B5E0FFEFC43354E0FF904424
:1038000084EFF0229000B5EFF09000B5E0FFEFC438
:103810003354E0FF904485EFF0229000B712080681
:103820007B027A6479049000B71207EE123ADD2227
:103830009000B71208067B027A6479249000B712D0
:1038400007EE123ADD229000B71208067B027A6476
:1038500079349000B71207EE123ADD229000B5EFEE
:10386000F09000B5E0FFEFC43354E0FF904481EFE7
:10387000F0229000B5EFF09000B5E0FFEFC43354B4
:10388000E0FF904480EFF0229000B5EFF09000B59B
:10389000E0FFEFC43354E0FF904482EFF022900049
:1038A000B5EFF09000B5E0FFEFC43354E0FF904473
:1038B00083EFF0229000B5EFF09000B5E0FFEFC489
:1038C0003354E0FF904488EFF0229000B5EFF09081
:1038D00000B5E0FFEFC43354E0FF904486EFF022E0
:1038E0009001C3E0FFEF700912272F9001C374010C
:1038F000F0123BB8229001C5E0FFEF70091228EDED
:103900009001C57401F0123BC422906569E0FFEF9D
:1039100030E40B7B027A657958123B9C80EC229054
:1039200001C6E0FFEF70091226AF9001C67401F0E6
:10393000123BD0229001C7E0FFEF700912281590CA
:1039400001C77401F0123BE8229001C8E0FFEF705C
:103950000912313B9001C87401F0123BF42290012E
:10396000C9E0FFEF70091230269001C97401F0120E
:10397000376422905828E4F0905829E4F07F001230
:1039800032417F0012332A229001CBE0FFEF700911
:103990001229589001CB7401F0123C0C22906468FB
:1039A000E0FFEF30E40B7B027A647958123B9C8095
:1039B000EC229001CCE0FFEF70091230639001CC53
:1039C0007401F01237922290582CE4F090582DE4B4
:1039D000F07F001232707F00123356229001CEE049
:1039E000FFEF70091230A09001CE7401F01237C0C1
:1039F000229001CFE0FFEF70091228819001CF746F
:103A000001F012342122905820E4F0905821E4F083
:103A10007F0012329F7F00123382229044F4E0F83C
:103A20004402F0E85402FF10AF012274014FFF225C
:103A3000123C6D7E327FCF1234857F071237EE1233
:103A40003C6622123C7B7E3C7FE81234A37F071247
:103A50003804123C7422123C897E3C7FE91234C146
:103A60007F0012385C123C8222123C977E3C7FEA37
:103A70001234DF7F07123872123C9022123CA57E6E
:103A80003C7FEB1234FD7F07123888123C9E2212D5
:103A90003CB37E3C7FEC12351B7F0712389E123CF4
:103AA000AC22123CC17E3C7FED1235397F071238C3
:103AB000B4123CBA22123CCF7E3C7FEE1235577FC7
:103AC000071238CA123CC8228B938A838982E0FF8E
:103AD000A3E0FEA3E0FDE4FCF593228B938A8389A7
:103AE00082EFF0A3EEF0A3EDF0759300229000B703
:103AF000EFF09000B7E0FF906486EFF0229000B7FF
:103B0000EFF09000B7E0FF906483EFF0229000B6F2
:103B1000EFF09000B6E0FF906481EFF0229000B5E6
:103B2000EFF09000B5E0FF905B82EFF0229000B5DF
:103B3000EFF09000B5E0FF905B83EFF0229000B5CE
:103B4000EFF09000B5E0FF906579EFF0229000096A
:103B5000EFF0900009E0FF904F0FEFF0229000B5DA
:103B6000EFF09000B5E0FF905B80EFF022123CD6C2
:103B70007E00EF30E605123C4880F222123CDC7EEB
:103B800000EF30E605123C5280F222123CE27E0049
:103B9000EF30E305123C5C80F2228B938A838982AA
:103BA000E0FFA3E0FE759300228B938A838982ED68
:103BB000F0A3ECF0759300227F0C122F5B9001C4F0
:103BC0007401F022906578E0FFEF4480FFEFF0226F
:103BD000906474E0FFEF4480FFEFF0229043A2E096
:103BE000FFEF4402FFEFF022906471E0FFEF4480AA
:103BF000FFEFF022906472E0FFEF4480FFEFF022CD
:103C00009043A2E0FFEF4404FFEFF022906478E0DD
:103C1000FFEF4480FFEFF0229043A2E0FFEF440863
:103C2000FFEFF022904E00E0FFEF4401FFEFF022A3
:103C30008B938A838982E0759300FF228B938A831A
:103C40008982EDF0759300227B027A647944123AFE
:103C5000CA227B027A647942123B9C227B027A64FC
:103C60007940123B9C229044C07410F0229044C8CA
:103C70007410F0229044C07420F0229044C8742044
:103C8000F0229044C07402F0229044C87402F022E2
:103C90009044C07401F0229044C87401F022904412
:103CA000C07404F0229044C87404F0229044C0749C
:103CB00008F0229044C87408F0229044C17401F0C6
:103CC000229044C97401F0229044C07440F02290C4
:103CD00044C87440F022906466E0FF22906463E080
:103CE000FF22906461E0FF223232323232323200FF
:103CF00049C80015004F0000180051000010005185
:103D00003000100051F0001001000000800101009F
:103D10000F0001140008000140000A00014C0002DD
:103D20000001500000200151000807580008010060
:0C3D30008008076000805B035B034020FC
:00000001FF
