:40000000021E48008F828E83E0540100000070F82278FFE4F6D8FD021EA60203DBE86480F8E933E83360110460F0ED33EC337009E8FCE9FDEAFEEBFF220460DED3EB9FEAEC
:400040009EE99DE8C2E78CF0C2F795F0400CE8CCF8E9CDF9EACEFAEBCFFB1203A685D0F05804700320D5B3E80470075002B2D50203E592D5EC0460F7E4CCC0E0C398F860B5
:400080003B94186008400DD0E0FB0203BDE4FBFAC9FC8028E830E406E4C9FBE4CAFCE830E305E4C9CACBFCE854076010F8C3E913F9EA13FAEB13FBEC13FCD8F130F52FC331
:4000C000E49CFCEF9BFFEE9AFEED99FDD0E0FBEF4E4D4C701222DB030203E2EC2CFCEF33FFEE33FEED33FDED30E7EB0203BDEF2BFFEE3AFEED39FDD0E0FB50130BBB0003AD
:400100000203E5ED13FDEE13FEEF13FFEC13FC0203BDEC4D6011E8497017ED33EC3304600DE4FCFFFEFD22E933E8330470F80203DB1203A658046009E4CC248150062850E7
:40014000090203E52840030203E2C0E0EB4A7044B98006D0E0FB0203D1EF4E701CBD8008EBFFEAFEE9FD80EBE98DF0A4FEE5F00201FBE9CDF9EAFEEBFFEF89F0A4FCE5F087
:40018000CE89F0A42EFFE435F0CD89F0A42DFEE435F08067EF4E7005BD80D780C3EF8BF0A4ACF0EE8BF0A42CFCE435F0F8EF8AF0A42CE5F038FCE433CB8DF0A42CFCE5F0EE
:4001C0003BF8EE8AF0A42CFCE5F038F8E433CF89F0A42CFCE5F038CF3400CE89F0A42FFFE5F03EFEE433C98DF0A42EFEE5F039CD8AF0A42FFFE5F03EFEE43DFD33D0E0FBCD
:4002000050070BBB000F0203E5EC2CFCEF33FFEE33FEED33FD0203BD0203E5EC5D046005E8590470030203DB1203A6580460F6EC4860F2EC7004FDFEFF22C860DB2481C862
:400240005009C398600250060203E29850CAF582E9294B4A7005AB820203D175F0007C1A7880C3EF9BEE9AED99400DC3EF9BFFEE9AFEED99FDE842F0DC23ACF0D0E0FFD0BF
:40028000E0FED0E0FDAB8220E7101BEB60BAEC2CFCEF33FFEE33FEED33FD0203BDE803F830E705C0F075F000EF2FFFEE33FEED33FD40B830E7C280AA74F8CC6480CCC864A0
:4002C00080C8F58204604FC3EB9FF5F0EA9E42F0E99D42F0E89C45F0603C501DE5825FFFE582D313CB5BCBF42B5582FB50280ABA002409B9002008801DE5825BFBE582D354
:4003000013CF5FCFF4C3132F5582FF50090EBE00050DBD00010CC3EB9FF5F0EA9E42F0E99D42F0E89C45F06007CC4820E701B3EC2275F020800E75F010800575F0087D0045
:400340007E007F003392D530D5031207BCEC334010EF33FFEE33FEED33FDEC33FCD5F0ED22E5F0247EA2D513CC92E7CDCEFF22EDD2E7CD33EC3392D524814006E4FFFEFD57
:40038000FC22FCE4CFCECDCC24E0501174FF80EDC3CC13CCCD13CDCE13CECF13CF0470F030D5DE0207BCE9D2E7C933E833F892D5EDD2E7CD33EC33FC5002B2D522EC30E766
:4003C000100FBF000C0EBE00080DBD00040BEB6014A2D5EB13FCED92E7FD2274FFFCFDFEFF22E480F8A2D574FF13FC7D80E480EFF920E73624F950037907E4F42402FBE5DD
:4004000082158270021583DBF6E024FB501BE96014E4F0E582158270021583E004F0B40A08E4F0D9EE7401F00A22C2D522ED33EC3392D5FA602AB4FF33EDC2E77BFF600620
:400440007A047952E4227A04795B20D5047A047956224E614E002B494E46002D494E4600E47A08F0A3DAFC7B00740722C083C082ECC0E0EDC0E0EEC0E0EFC0E0EA75F01063
:40048000A4CAABF075F04DA42BFBE435F0FCEA2410FAEB34C5FBEC34D9FCEDC2E7FF75F056A4F42411C5F0F434C58FF0A42AE5F03BE43CF020E714120562D0E0FFD0E0FEA9
:4004C000D0E0FDD0E0FC12021B8014F404120562D0E0FFD0E0FED0E0FDD0E0FC120112D082D083E0FAEDD2E7CD33EC332482FBE4C3CF33CFCE33CECD33CD33DBF37B0775A3
:40050000F00A846004F0A31B0AE5F0F0A38FF0740AA4FFACF08EF0740AA42CFEACF050010C8DF0740AA42CFDE435F0F0A3DBDE7407223F8000004120000042C80000447A18
:400540000000461C400047C35000497424004B1896804CBEBC205A0E1BCA6753C21C749DC5AEFB60065407601C2323120590EB5438600912057C12058B120112ECF8EDF9AD
:40058000EEFAEFCB22EB12058B80F1543803241C900532FE93FC0EEE93FD0EEE930ECE93FF22BB010689828A83E0225002E722BBFE02E32289828A83E49322BB010CE582D4
:4005C00029F582E5833AF583E0225006E92582F8E622BBFE06E92582F8E222E58229F582E5833AF583E49322BB010689828A83F0225002F722BBFE01F322EF8DF0A4A8F086
:40060000CF8CF0A428CE8DF0A42EFE22BC000BBE0029EF8DF084FFADF022E4CCF875F008EF2FFFEE33FEEC33FCEE9DEC984005FCEE9DFE0FD5F0E9E4CEFD22EDF8F5F0EE7F
:400640008420D21CFEADF075F008EF2FFFED33FD4007985006D5F0F222C398FD0FD5F0EA22C5F0F8A3E028F0C5F0F8E582158270021583E038F022EF2BFFEE3AFEED39FDD7
:40068000EC38FC22C3EF9BFFEE9AFEED99FDEC98FC22E88FF0A4CC8BF0A42CFCE98EF0A42CFC8AF0EDA42CFCEA8EF0A4CDA8F08BF0A42DCC3825F0FDE98FF0A42CCD35F080
:4006C000FCEB8EF0A4FEA9F0EB8FF0A4CFC5F02ECD39FEE43CFCEAA42DCE35F0FDE43CFC2275F008758200EF2FFFEE33FECD33CDCC33CCC58233C5829BED9AEC99E58298F2
:40070000400CF582EE9BFEED9AFDEC99FC0FD5F0D6E4CEFBE4CDFAE4CCF9A88222B800C1B90059BA002DEC8BF084CFCECDFCE5F0CBF97818EF2FFFEE33FEED33FDEC33FC13
:40074000EB33FB10D703994004EB99FB0FD8E5E4F9FA227818EF2FFFEE33FEED33FDEC33FCC933C910D7059BE99A4007EC9BFCE99AF90FD8E0E4C9FAE4CCFB2275F010EF9D
:400780002FFFEE33FEED33FDCC33CCC833C810D7079BEC9AE899400AED9BFDEC9AFCE899F80FD5F0DAE4CDFBE4CCFAE4C8F922EF4BFFEE4AFEED49FDEC48FC22C3E49FFFE3
:4007C000E49EFEE49DFDE49CFC22EB9FF5F0EA9E42F0E99D42F0E89C45F022E8600FEFC333FFEE33FEED33FDEC33FCD8F122E0FCA3E0FDA3E0FEA3E0FF22E0F8A3E0F9A3AC
:40080000E0FAA3E0FB22ECF0A3EDF0A3EEF0A3EFF022E0FBA3E0FAA3E0F922F8E0FBA3A3E0F925F0F0E582158270021583E0FA38F022EBF0A3EAF0A3E9F022E493FB7401C7
:4008400093FA740293F922D083D082F8E4937012740193700DA3A393F8740193F5828883E4737402936860EFA3A3A380DFE5112582F582E5103583F583B5100485821122B6
:4008800010AF06858211F51022858211F510D2AF22EC8EF0A4CCC5F0CCCDF8EFA4CEC5F02DFDE43CFCE8A42EC8C5F03DFDE43CFCEFA4FFE5F028FEE43DFDE43CFC22E70992
:4008C000F608DFFA8046E709F208DFFA803E88828C83E709F0A3DFFA8032E309F608DFFA806EE309F208DFFA806688828C83E309F0A3DFFA805A89828A83E0A3F608DFFAA0
:40090000804E89828A83E0A3F208DFFA804280D280FA80C680D4805580F28029801080A680EA809A80A880DA80E280CA802988848C8589828A83E493A30586F0A30586DF7B
:40094000F5DEF3800B89828A83E493A3F608DFF9ECFAA9F0EDFB2288848C8589828A83E0A30586F0A30586DFF6DEF480E389828A83E493A3F208DFF980D688F0EF60010EFA
:400980004E60CD88F0ED2402B4040050C3F582EB2402B4040050B9232345822390090E73E508246CF582E43400F583E005082290006930070390006CE475F00112081B0290
:4009C00005A22000E97F2ED2008018EF540F2490D43440D4FF30040BEF24BFB41A0050032461FFE50960021509050CE50C7002050B30070E900069E475F00112081BEF02B9
:400A000005E80230AD7403D2078003E4C207F508900069120832E4F509F50BF50CE50960077F201209E380F5750AFFC201C200C202C203C205C206C2081209AFFF700D3083
:400A400007057F001209F4AF0CAE0B22B4255FC2D5C2041209AFFF24D0B40A00501A75F00A780930D50508B6FF0106C6A426F620D5047002D20380D924CFB41A00EF5004EB
:400A8000C2E5D204020CE6D20180C6D20080C0D20280BCD2D580BAD20580B47F201209E32002077401B5090040F11209A0FF1209E3020A1DD208D20680951209A0FB1209FB
:400AC000A0FA1209A0F94A4B700679E47A0D7BFF20022EE509602A7E008E827583001205BB60060EEE650A70F0C2D5EBC0E0EAC0E0E9C0E0EE120D47D0E0F9D0E0FAD0E062
:400B0000FB1205A2FF60AAEBC0E0EAC0E0E9C0E01209E3D0E02401F9D0E03400FAD0E0FBE50A0460DCD50AD98087D20280A2120D2960F7E50A7001041203F0A90A600DE514
:400B40000A600914F50A120DD1EF60F3EA30E702F404C3995079EAF4250A0430E701E404F50A800D120D2960C1EA050A250A1203F0EA900098F030E701E4250A04D50A0456
:400B800020050114120D47E4C0E0120DD1900098E0601320E70714F01209CB802204F0D0E014C0E07F001209CBE50A60071209C2150A800B3005031209C2D0E0020A1DD0B4
:400BC000E00480C4120D29609EE50A041203F0900098EAF0E50A2005026001042404120D4774FF04C0E0120DD11209CBE50A20050260031209C2D0E0B50AE87F451209D536
:400C0000900098E07F2B30E7047F2DF404C0E01209E3D0E075F00A84C0F01209CCD0E01209CC020A1D791080027908C206C2088008D2D5790A8004790AC2D5E50A047002D8
:400C4000F50AE4FAFDFEFF1209A0FC7B082001131209A0FD7B1030000A1209A0FE1209A0FF7B20EC3382D592D55013C3E43000069FFFE49EFEE42001039DFDE49CFCE4CB9C
:400C8000F8C201EC700CCFCECDCCE824F8F870F38017C3EF33FFEE33FEED33FDEC33FCEB33FB994002FB0FD8E9EB300105F8D0E0C448B201C0E00AEC4D4E4F78207B007060
:400CC000C2EAB50A0040BCC0E0120D49D0F0D0E0200104C4C0E0C4B201C0F01209CCD0F0D5F0EB020A1D1208470ABA530C25580A8B4C0A87420C294F0C31440C31490AA0FB
:400D0000430C37550B64460BC4450B2E470E04500A8F2D0A932E0AB62B0A97230AB4200DED2A0A4F4800000AAEE50AB4FF03750A061209A0FC1209A0FD1209A0FE1209A085
:400D4000FF90009102042D790AA2D5200314300509B910020404B9080104A2D52006025001042002689202B509005034C0E07F203003197F30A20272067205500F120DA0D9
:400D8000C202C206C205C2087F30800F300503E9C0E01209E3300503D0E0F9D0E0B509CC3005177F30B9100C1209E37F583004077F788003B908031209E33002057F2D02FD
:400DC00009E37F202008F87F2B2006F322920280CF7F00B40700500B2491F582E43400F583E0FF22286E756C6C2900D2011209A03001F8C201780930D50108F6020A4F2D9B
:400E0000504349581209A02403B405004001E4900DFF931209D4743A1209D4D203750904020C25C0E0C0F0C083C082C085C084C086758600C093759300C0D075D000C000EA
:400E4000C001C002C003C004C005C006C0079000E7E475F001120661123911E41203319000CC1208069000C81207FA9000CC1207EE12021B9000F91208069000CC1207FAC5
:400E80009000C81207EE12021B90010D1208069000AD1207FA90010D1207EE12021B9000B91208069000DA1207EE9000001208069000B91207FA9000B11207EE12001D90D5
:400EC00000DA1208069000F51207EEC004C005C006C0079000F91207EE9000DA1207FA120112A804A905AA06AB07D007D006D005D0041200219000F51208069000F512079C
:400F0000EE9000F11207FA120112C004C005C006C0079000DA1207EE9000FD1207FA120112A804A905AA06AB07D007D006D005D0041200219000EB1208067F007E007D0064
:400F40007C009000B91207FA1202B870229001011207EE12036F9000E9EEF0A3EFF07F007E007D007C009000F512080602100E7F007E007D807CBF9001151207FA12002169
:400F8000C004C005C006C0079000EB1207EE9001011207FA120021A804A905AA06AB07D007D006D005D0041202B86020401E7F007E007D807CBF9001151207FA12002112D2
:400FC000036F9000E9EEF0A3EFF080429000EB1207EE9001011207FA1200217B007A00790078001202B8600C400A9000E9E4F0A3E4F0801A9000EB1207EE9001011207FA9D
:4010000012002112036F9000E9EEF0A3EFF07D067F00122A2B9000D2E0FEA3E0FF121C617D0A7F00122A2B9000C5E0FFEF600B7BFF7A3079D4122B2A80097BFF7A3079D994
:40104000122B2A9000E7E0FEA3E0FFC3EF9432EE9400404E9000B7E0FEA3E0FF9000D2E0FCA3E0FDEDB5073AECB50636900004E4F07FE87E037D007C0090000512080690F7
:401080000004E0FF1238169000E7E4F0A3E4F01236DF900119E0FEA3E0FF9000D2EEF0A3EFF09000E7E0FEA3E0FFC3EF9432EE94004072900105E0FEA3E0FF9000D2E0FC81
:4010C000A3E0FDED6F7002EC6E705A900004E4F0900004E0FF1238167D007F01122A2B7BFF7A3079DF122B2A7D017F01122A2B7BFF7A3079E1122B2A7F647E001233EC9090
:4011000000047402F0900004E0FF1238169000E7E4F0A3E4F09000B5E0FEA3E0FF9000D2EEF0A3EFF09000E7E0FEA3E0FFC3EF9428EE940040359000B5E0FEA3E0FF9000D8
:40114000D2E0FCA3E0FDEDB50721ECB5061D900004E4F07F987E001233EC900004E0FF1238169000D2E4F0A37405F09000E9E0FEA3E0FF12330212399FD007D006D005D014
:4011800004D003D002D001D000D0D0D093D086D084D085D082D083D0F0D0E0327B007A4679E81238F9EF4405FD7B007A4679E8123905750F00E50FC39408503AAF0FEF7519
:4011C000F005A424BBF582E43439F583AF82AE838E0D8F0EAE0DAF0E8F828E8312083BAE0DAF0E8F828E83740393FC740493FD123420050F80BF7B087A0079001230017B19
:40120000007A58794A7D037C011238727B007A58794C7D037C021238727B007A58794E7D037C031238727B017A5079031238F9EF4402FD7B017A5079031239057B017A5036
:4012400079131238F9EF4402FD7B017A5079131239059043A0E0FFEF4440FF9043A0EFF09043C2E0FFEF4410FF9043C2EFF07B087A0779B0C003C002C0017B007A517912C7
:401280009000A5120832D001D002D0037F087E00122F717B087A0779B8C003C002C0017B007A5179C29000A5120832D001D002D0037F087E00122F717B087A0779C0C003D6
:4012C000C002C0017B007A5179F29000A5120832D001D002D0037F087E00122F717B087A0779C8C003C002C0017B007A5179229000A5120832D001D002D0037F087E001292
:401300002F717B087A0779D0C003C002C0017B007A5179429000A5120832D001D002D0037F087E00122F717B087A0779D8C003C002C0017B007A5179529000A5120832D0CE
:4013400001D002D0037F087E00122F717B087A0779E0C003C002C0017B007A5179629000A5120832D001D002D0037F087E00122F717B017A0279DB7D441239059044F47405
:4013800001F09046ECE0FFEFC394055006904689743AF090480074F1F01215DB90480074B1F01222F47B007A4379A0C003C002C0017B007A4379B09000A5120832D001D09F
:4013C00002D0037F0E7E00122F719043B0E0FFEF54FDFF9043B0EFF02290009CEFF090009DECF0A3EDF090009FEAF0A3EBF090009CE0FFEF120847140704143407145F08D7
:40140000148A0A000014B59000A1E0FFEFD3940F40117B0C7A0179181238F99000A2EFF00214BA7B0C7A01791C1238F99000A2EFF00214BA9000A1E0FFEFD3940F40107BC3
:401440000C7A0179191238F99000A2EFF0806B7B0C7A01791D1238F99000A2EFF0805B9000A1E0FFEFD3940F40107B0C7A01791A1238F99000A2EFF080407B0C7A01791E46
:401480001238F99000A2EFF080309000A1E0FFEFD3940F40107B0C7A01791B1238F99000A2EFF080157B0C7A01791F1238F99000A2EFF080059000A2E4F090009CE0FFEF71
:4014C000603B90009CE0FFEF6401603190009CE0FFEF6402602790009CE0FFEF6403601D90009CE0FFEF6405601390009CE0FFEF6406600990009CE0FFEFB4090A9000A305
:40150000E4F0A3E4F0801D9000A2E0FFEF3395E0FEEF7805C333CE33CED8F9FF9000A3EEF0A3EFF09000A3E0FEA3E0FF90009DE0FCA3E0FDED2FFFEC3EFE9000A5EEF0A374
:40154000EFF090009FE0FEA3E0FF9000A5E0FCA3E0FD1208919000A71208067B007A80790078009000A71207EE12071D9000A5EEF0A3EFF09000A1E0FFEFC3940E50379080
:4015800000A5E0FEA3E0FF9000A1E0FDC3740E9DFDEFA805088005CEC313CE13D8F9FF9000A5EEF0A3EFF09000A1E0FFEF04FF904E0EEFF08006904E0E740FF09000A5E05F
:4015C000FEA3E0FF904E0CEFF09000A5E0FEA3E0FFEEFF7E00904E0DEFF0227E007F9990009DEEF0A3EFF07B007A4079807F0C7E007D187C001237B47B007A4079847F1D80
:401600007E007D197C001237B47B007A4079887F1D7E007D197C001237B47B007A40798C7F2F7E757D197C001237B47B087A0779E8C003C002C0017B007A4179009000A545
:40164000120832D001D002D0037F047E00122F719043007402F09040007408F09042007403F07B0C7A0179081238F99046A1EFF07B007A4279227D087C001238727B007AA7
:401680004279207D517C1012387290009FE4F07F197E007D007C0090009912080690009DE0FEA3E0FF8F828E831207EEEC4D4E4F604E90009FE0FFEF64036044904225E0C5
:4016C000FFEF5401FF7E0090009FE0FEEE25E0FEEE4FFFEF5403FF90009FEFF07FE07E017D007C00122F009000991207EE7BFF7AFF79FF78FF120677900099120806809D7E
:401700007B007A4079047D007C011238729040047407F0904006E4F09040087448F0904004E4F09040017402F090400B7404F09043A2E0FFEF440FFFEFF09043A1E0FFEFFC
:401740004401FFEFF09043A0E0FFEF4480FFEFF0224400C847C35000440115447A00004400AD40F889BA4400B9000000004400CC0000000044010D000000004401070000AC
:40178000000041011B004400B1404000004400DA000000004400EB000000004400F5000000004400F9000000004400FD449600004400F141F0000044010142DC000042006D
:4017C000E9006E4200E700004200D400004200B7000142011900024200C6000342010500044200B500054200D000064200AB00214200D200214100C5004100E6004200DE00
:4018000000004200EF00004200E400004400C100000000440111000000004400D6000000004400BD000000004400E00000000042010B0098410177004101760041017800A6
:401840004101790041017A0041017B0041017C0041017D0041017E0041017F004101800041018100410182004101640041016F0041016A00410170004101690144016B00DC
:4018800000000044016500001F4044015B016E360044015600005DC041015A184401602EE00000410183FF430171000000410184000090009CEFF090016FE4F090016AE0C2
:4018C000FFEF70519058967407F0905897E4F090589EE4F0905B07E0FFEF4418FFEFF0905893E4F0905B88E4F0905B89E4F0905880740AF0905881E4F0905882747AF090E0
:401900005883E4F090588DE4F0904E017414F0904E147401F090009CE0FFEF640160030219F2904E007438F0904E027405F0904E037408F0904E04E4F0904E05E4F0904ED7
:4019400006742DF0904E0874DAF0904E09741EF0904E0AE4F09058847414F09058857409F0905886740AF0905887E4F09058887412F09058897413F090588A7455F09058C9
:401980008B745AF090588C7405F090588E7401F090588F7411F09058907419F09058917497F07F4C122D689058947458F0905895E4F090589A7405F090589B7401F090581B
:4019C0009C7401F090589D740AF07F011232B37F407E1F7D007C009001651208067D077F061221D77C397DB77F0612213A7F06121FE9229000A4E4F0905120E0FFEF5480B7
:401A0000FFEFF0905122E0FFEF54F0FF9000A4EFF09000A4E0FFEF440FFF905122EFF0905123E0FFEF54F0FF9000A4EFF09000A4E0FF905123EFF0905124E0FFEF54F0FF37
:401A40009000A4EFF09000A4E0FF905124EFF0905120E0FFEF54DFFFEFF0905120E0FFEF4440FFEFF07F007E00122FD4905120E0FFEF4410FFEFF07F017E00122FD4905144
:401A800021E0FF9000A4EFF0905120E0FFEF54EFFFEFF09000A4E0FFEF5408FF9000A4EFF0905120E0FFEF4410FFEFF07F017E00122FD4905120E0FFEF54EFFFEFF090001F
:401AC000A4E0FFEF709F905120E0FFEF54BFFFEFF0905120E0FFEF5480FFEFF0905122E0FFEF54F0FF9000A4EFF09000A4E0FF905122EFF0905123E0FFEF54F0FF9000A4BF
:401B0000EFF09000A4E0FFEF440FFF905123EFF0905124E0FFEF54F0FF9000A4EFF09000A4E0FFEF440FFF905124EFF022C0E0C0F0C083C082C085C084C086758600C0931A
:401B4000759300C0D075D000C000C001C002C003C004C005C006C0071239259000DEEEF0A3EFF01239259000EFEEF0A3EFF09000EFE0FEA3E0FF9000DEE0FCA3E0FDC3ED86
:401B80009FFDEC9EFCE41203369000C11208067F007E007D407CC49000C11207FA1200219001111208069000D61207EE9001111207FA1200219000D61208069000BD1207CF
:401BC000FA9001111207EE12001D9000E01208069001111207EE9000BD1208067F007E407D1C7C469000C11207FA1202B86002504A7FCD7ECC7DCC7C3D9001111207FA124A
:401C000001127B007A007918784312002112036F90010BEEF0A3EFF09000D0E0FEA3E0FF9000D2E0FCA3E0FDEDB5070FECB5060B90010BE0FEA3E0FF1233EC1239ABD007BB
:401C4000D006D005D004D003D002D001D000D0D0D093D086D084D085D082D083D0F0D0E03290003AEEF0A3EFF0900046E4F0900047E4F090003AE0FEA3E0FFC3EF940AEE6F
:401C80009400404590003AE0FEA3E0FF7C007D0A12060CAF05EF2430FF900046E0FE74412EF582E43400F583EFF090003AE0FEA3E0FF7C007D0A12060C90003AEEF0A3EFBC
:401CC000F0900046E004F080AA90003AE0FEA3E0FF7C007D0A12060CAF05EF2430FF900046E0FE74412EF582E43400F583EFF0900046E0FF900047EFF0900046E0FFEF64E9
:401D0000FF603E900046E0FF74412FF582E43400F583E0FF900046E0FEEEFD7C00900047E0FEEEFB7A00C3EB9DFDEA9CFC743C2DF58274003CF583EFF0900046E014F080F5
:401D4000B8900047E0FF743D2FF582E43400F583E4F07B017A00793C122B2A22900099E4F090009AE4F0A3E4F0D2AF9044F4E0FFEF54FDFFEFF012360D1238A51238C912E5
:401D8000362212364C12339E1235E31236761235CE7D007F00122A2B7BFF7A3079F1122B2A1237097E0E7F231231A612371C7E297FD41231C412372F7E1B7F2D1231E2123C
:401DC00037427E2A7FD91232001236371234061236A01237557E237F7912321E1236CA1237687E237FFD12323C1238E112377B7E227F6C12325A9001011207EE12036F1233
:401E00003302900099E0FF1238161238ED7D007F01122A2B7BFF7A3079F8122B2A1232961238ED12378E7E207F9212327890009AE0FEA3E0FFEFB410F4EEB427F090009A07
:401E4000E4F0A3E4F080E62275930078007583467582E8E04401F0009046ECE0F99046FAE0FAB903225420B40012B8001AEA901FFFF07401901FFEF09046F6F0901FFEE0CB
:401E80006005901FFFE0FA90480074C0F075812190000078007920E4F0A3D8FCD9FAEA90015FF002001175101F7511FD12119C021EED021D5CE493A3F8E493A34003F68033
:401EC00001F208DFF48029E493A3F85407240CC8C333C4540F4420C8834004F456800146F6DFE4800B0102040810204080901751E47E019360BCA3FF543F30E509541FFED4
:401F0000E493A360010ECF54C025E060A840B8E493A3FAE493A3F8E493A3C8C582C8CAC583CAF0A3C8C582C8CAC583CADFE9DEE780BE9043AAE0FFEF4401FFEFF09043AA41
:401F4000E0FFEF4410FFEFF09043BAE0FFEF4401FFEFF09043BAE0FFEF4410FFEFF0900169E0FFEF640170499046F8E0FFEF4402FFEFF09046F9E0FFEF4402FFEFF0905807
:401F800091E0FFEF4403FFEFF0905892E0FFEF4408FFEFF07F037E00122FD49046F8E0FFEF54FDFFEFF09046F9E0FFEF54FDFFEFF0905877E0FFEF4406FFEFF09043A1E0D6
:401FC000FFEF4401FFEFF09043B1E0FFEF4401FFEFF09043A2E0FFEF4401FFEFF09043B2E0FFEF4401FFEFF02290FFFF12086DEFF090FFFE12086D851083851182A3A3E0FF
:40200000FFEFD3941F5003D38001C34025851083851182A3A3E0FFEFD3941F500A7F017E007D007C0080087F007E007D007C001230FA851083851182A3A3E0FFEF541FFFD2
:402040007E00EF7803CEC313CE13D8F9FFEF24C0FFEE3444FE851083851182EEF0A3EFF0851083851182A3A3E0FFEF5407FF7401A807088002C333D8FCFF85108385118218
:40208000E0FCA3E0FD8D828C83EFF090000312086D22C0E0C0F0C083C082C085C084C086758600C093759300C0D075D000C000C001C002C003C004C005C006C0079000D23E
:4020C000E0FEA3E0FFEF64214E704C1227919000511208069000511207EE12291E9000551208067D007F01122A2B7B017A007959C003C002C0017BFF7A3079E690006C12EE
:4021000008329000551207EE90006F120806D001D002D003120A05D007D006D005D004D003D002D001D000D0D0D093D086D084D085D082D083D0F0D0E03290009DEFF09042
:40214000009EECF0A3EDF090009DE0FFEFD3941F5003D38001C3402090009DE0FFEFD3941F500A7F017E007D007C0080087F007E007D007C001230FA90009DE0FFEF541F20
:40218000FF7E00EF25E0FFEE33FEEF2400FFEE3444FEAA06A9077B011238659000A0EEF0A3EFF090009DE0FF7E02EF8EF0A4FFAEF0EF2400FFEE3444FEAA06A9077B0190E3
:4021C000009EE0FEA3E0FFAD07AC061238749000A0E0FEA3E0FF2290009DEFF090009EEDF090009EE0FFEFD394075003D38001C3402090009EE0FFEFD39407500A7F017EFE
:40220000007D007C0080087F007E007D007C001230FA90009DE0FFEFD3941F5003D38001C3402090009DE0FFEFD3941F500A7F017E007D007C0080087F007E007D007C0050
:402240001230FA90009EE0FFEF5407FF7E00EF75F020A4FFAEF090009DE0FEEE541FFE74802EF582E43444F583EFF022C0E0C0F0C083C082C085C084C086758600C093755A
:402280009300C0D075D000C000C001C002C003C004C005C006C007900119E0FEA3E0FF9000D2E0FCA3E0FDEDB50726ECB506229000C6E0FEA3E0FF9000D2EEF0A3EFF07D45
:4022C000007F00122A2B9000D2E0FEA3E0FF121C61D007D006D005D004D003D002D001D000D0D0D093D086D084D085D082D083D0F0D0E0327B0C7A0179CF1238F99000990C
:40230000EFF0900099E0FFEF5407FF90586EEFF0900099E0FFEFC4540FFFEF540FFF90586FEFF090514D7404F090515D7414F0905A907420F0905A987420F0905AC874011D
:40234000F0905ACB7440F0905AD07440F0905AD47420F0905AD87404F07B027A5A79DB7D407C20123874905B007401F0905B587401F09058767444F022C0E0C0F0C083C01B
:4023800082C085C084C086758600C093759300C0D075D000C000C001C002C003C004C005C006C0079000D4E0FEA3E0FF9000D2E0FCA3E0FDEDB50722ECB5061E9000367439
:4023C00002F0900036E0FF1238169000B7E0FEA3E0FF9000D2EEF0A3EFF0D007D006D005D004D003D002D001D000D0D0D093D086D084D085D082D083D0F0D0E032C0E0C038
:40240000F0C083C082C085C084C086758600C093759300C0D075D000C000C001C002C003C004C005C006C0079000C6E0FEA3E0FF9000D2E0FCA3E0FDEDB50722ECB5061E0D
:402440009000387403F0900038E0FF123816900105E0FEA3E0FF9000D2EEF0A3EFF0D007D006D005D004D003D002D001D000D0D0D093D086D084D085D082D083D0F0D0E0BB
:402480003290647DE0FFEF54F8FF90009CEFF090009CE0FFEF4401FF90647DEFF090647DE0FFEF54E7FF90009CEFF090009CE0FFEF4408FF90647DEFF01238367FFF7EFF33
:4024C0007DFF7C0012351E7F007E007D007C001235087F1C1237C612399F7F807E007D007C001235341236F490009DEFF090649DE0FFEF4410FFEFF090009DE0FF12345139
:40250000227F287E007D007C001225E77F03122BC27F057E007D007C001225E77F03122BC27F0F7E007D007C001225E77F03122BC27F017E007D007C001225E77F02122BAB
:40254000C27F057E007D007C001225E77F06122CE07F0E122CE07F2C122CE07F08122CE07F01122CE07F0C122CE07F03122CE07F057E007D007C001225E722906475E0FF5A
:40258000EF54F8FF90009CEFF090009CE0FF906475EFF0906475E0FFEF54E7FF90009CEFF090009CE0FF906475EFF01238457F637E001233367F007E0012331C7F0C123718
:4025C000D61239A57F317E001233501236F490009DEFF0906495E0FFEF4410FFEFF090009DE0FF1234512290FFFC12086D1208067F007E807D007C008510838511821207CB
:40260000FAD31207CA40309001601207EE122F00851083851182C083C0821207EEC3EF9400FFEE9480FEED9400FDEC9400FCD082D08312080680B99001561207EE85108342
:402640008511821207FA120692122F0090000412086D22906574E0FFEF54C0FF90009CEFF090009CE0FFEF4409FF906574EFF0906594E0FFEF4401FFEFF0906595E0FFEF52
:402680004401FFEFF07FE77E031232CE7FE77E031232E87FFA7E00123302906584E4F01236F490009DEFF0906594E0FFEF4410FFEFF090009DE0FF1234511235F822906596
:4026C00076E0FFEF54C0FF90009CEFF090009CE0FFEF4409FF906576EFF0906596E0FFEF4401FFEFF0906597E0FFEF4401FFEFF07FE77E031233B87FE77E031233D27F98F6
:402700007E001233EC906586E4F01236F490009DEFF0906596E0FFEF4410FFEFF090009DE0FF12345112368B22904F00E0FFEF5401FFEFF0904F02E0FFEF54FCFFEFF090E3
:402740004F00E0FFEF4404FFEFF0904F01E0FFEF4401FFEFF0904F0BE0FFEF54CFFFEFF0904F0BE0FFEF4430FFEFF0904F0BE0FFEF54F0FFEFF0904F0BE0FFEF440FFFEFAF
:40278000F07F6E1234397F6E12297B7F0812382622904E12E0FFEF54FFFFEF3395E0FEFDFC9000691208069000691207EE78081207DBA804A905AA06AB07904E11E0FFE468
:4027C000FCFDFE1207AF9000691208069000691207EE78081207DBA804A905AA06AB07904E10E0FFE4FCFDFE1207AF9000691208069000691207EE2290009CEFF090009CEF
:40280000E0FFEF5403FF905842E0FEEE54FCFEEE4FFF905842EFF090009CE0FFEFB4011D7B0C7A0179121238F9904634EFF07B0C7A0179161238F9904635EFF0227B0C7A85
:402840000179B11238F9904634EFF07B0C7A0179B91238F9904635EFF02290009CEFF090009CE0FFEF5403FF905841E0FEEE54FCFEEE4FFF905841EFF090009CE0FFEFB4EE
:40288000011D7B0C7A0179111238F9904632EFF07B0C7A0179151238F9904633EFF0227B0C7A0179AF1238F9904632EFF07B0C7A0179B71238F9904633EFF02290009CEF79
:4028C000F090009CE0FFEF5403FF905843E0FEEE54FCFEEE4FFF905843EFF090009CE0FFEFB4011D7B0C7A0179131238F9904636EFF07B0C7A0179171238F9904637EFF0C4
:40290000227B0C7A0179B31238F9904636EFF07B0C7A0179BB1238F9904637EFF0229000691208067F007E007D007C0090006D1208069000691207EE90016B1207FA12063F
:40294000849000691208069001651207EEEC120331C004C005C006C0079000691207EEEC120331D003D002D001D00012021B90006D12080690006D1207EE22900009EFF013
:402980009043A3E0FFEF5401FF7E00EF4E601C9043A3E0FFEF5401FF7E00EF4E70047F0180027F00E4FCFDFE1230FA9043A3E0FFEF4401FFEFF07B027A4F7906900009E044
:4029C000FFEFFD7C001238749043A3E0FFEF54FEFFEFF022C0E0C0F0C083C082C085C084C086758600C093759300C0D075D000C000C001C002C003C004C005C006C00790A1
:402A0000011BE004F012399FD007D006D005D004D003D002D001D000D0D0D093D086D084D085D082D083D0F0D0E03290009CEFF090009DEDF090009CE0FFEF1208472A4EEF
:402A4000002A5B012A68022A750300002A8190009DE0FFEF2480FF122CE02290009DE0FFEF24C0FF122CE02290009DE0FFEF2494FF122CE02290009DE0FFEF24D4FF122CD1
:402A8000E0229000A3EFF01219F3905120E0FFEF4420FFEFF0905120E0FFEF54BFFFEFF0905120E0FFEF54F0FFEFF0905120C083C082E0FF9000A3E0FEEE4410FEEF4EFF30
:402AC000D082D083EFF07F017E00122FD4905120E0FFEF54EFFFEFF022C0E0C0F0C083C082C085C084C086758600C093759300C0D075D000C000C001C002C003C004C005CF
:402B0000C006C0071239A5D007D006D005D004D003D002D001D000D0D0D093D086D084D085D082D083D0F0D0E03290009C12083290009F7401F090009C1208121205A2FF17
:402B40009000A0EFF09000A0E0FFEF602A9000A0E0FF122E9990009C12081290009FE0FFE92FF9E43AFA1205A2FF9000A0EFF090009FE004F080CE2290009FEFF090009FD0
:402B8000E0FFEFC39402503990009FE0FFEF25E024E3F582E43439F583E493FE740193FF8F828E83C083C082E0FF90009FE0FEEE9039E793FEEEF4FEEF5EFFD082D083EF1E
:402BC000F0229000A0EFF0905120E0FFEF549FFFEFF0905120E0FFEF54F0FFEFF0905120C083C082E0FF9000A0E0FEEE4410FEEF4EFFD082D083EFF07F017E00122FD4900D
:402C00005120E0FFEF54EFFFEFF022905828E0FFEF540CFF7E00EF7802CEC313CE13D8F9FFEF2406FF90009DEFF090009DE0FFE4FCFDFEEF2428FFEE3401FEED340CFDEC1D
:402C40003400FCA907AA06AB051238F990460AEFF02290582CE0FFEF540CFF7E00EF7802CEC313CE13D8F9FFEF2406FF90009DEFF090009DE0FFE4FCFDFEEF2438FFEE34FC
:402C800001FEED340CFDEC3400FCA907AA06AB051238F990460BEFF02290009EEFF090009EE0FFEFC39402503690009EE0FFEF25E024E3F582E43439F583E493FE740193ED
:402CC000FF8F828E83C083C082E0FF90009EE0FEEE9039E793FEEF4EFFD082D083EFF02290009EEFF090009EE0FFEFC4540FFF90009FEFF01219F390009FE0FFEF540FFF78
:402D000090009FEFF090009FE0FF122BC290009EE0FFEF540FFF90009FEFF090009FE0FF122BC222C2D5E830E70FB2D5E4C39BFBE49AFAE499F9E498F8EC30E717B2D5125F
:402D40002D5A12071DE4C39BFBE49AFAE499F9E498F8800312071D30D50DE4C39FFFE49EFEE49DFDE49CFC2290009DEFF09046F8E0FFEF4403FFEFF09046F9E0FFEF44039A
:402D8000FFEFF090009DE0FF905892EFF07F037E00122FD49046F8E0FFEF54FCFFEFF09046F9E0FFEF54FCFFEFF0227F011227F8905842E0FFEF4420FFEFF0905842E0FF10
:402DC000EF54FBFFEFF0905842E0FFEF4408FFEFF0905AD7E0FFEF54E7FFEFF0905AD7E0FFEF4408FFEFF0227F0012285A905841E0FFEF4420FFEFF0905841E0FFEF54FB80
:402E0000FFEFF0905841E0FFEF4408FFEFF0905ACFE0FFEF54E7FFEFF0905ACFE0FFEF4408FFEFF0227F001228BC905843E0FFEF4420FFEFF0905843E0FFEF54FBFFEFF04A
:402E4000905843E0FFEF4408FFEFF0905ADFE0FFEF54E7FFEFF0905ADFE0FFEF4408FFEFF0227FFF7EFF12336A7FFF7EFF1233841236F490009CEFF0906493E0FFEF44103E
:402E8000FFEFF090009CE0FF1234517F01122F3B1238547F021237E6229000A1EFF01219F39000A1E0FFEFC4540FFF9000A2EFF09000A2E0FF122A829000A1E0FFEF540F91
:402EC000FF9000A2EFF09000A2E0FF122A822290009CEFF0905828E0FFEF54F3FFEFF0905828C083C082E0FF90009CE0FEEE540CFEEF4EFFD082D083EFF0122C0B2232326A
:402F0000EC4D4E700D78FCEF24E950032840FD2200007BF178DA0000EF28FF78FFEE38FEED38FDEC38FC50E7EF2BFFEE38FEED38FDEC38FC40F2220502030490009DEFF06E
:402F400090009DE0FFEF5403FF90009DEFF0906472E0FFEF54FCFFEFF0906472C083C082E0FF90009DE0FEEF4EFFD082D083EFF022758600EF4E6027EF60010E7593009026
:402F800000A5E0F595A3E0F585A3E0F5848B938A838982E0A30586F0A31586DFF6DEF4E4F593F5952290009CEFF090582CE0FFEF54F3FFEFF090582CC083C082E0FF9000BE
:402FC0009CE0FEEE540CFEEF4EFFD082D083EFF0122C5222EEFA90015AE0F88FF0A4FFAEF0E88AF0A42EFEE5F03400FDEF24C9FF78FFEE38FEED38FDE438FC5003022F00C2
:4030000022ACEAADA08B938A838982E0F96017A3E0F5EAA3E0F5A0A3E060F4FAA3E0F8A3E0F2DAF8D9E98DA08CEAE4F5932290009CEFF0905828E0FFEF54FDFFEFF0905805
:4030400028C083C082E0FF90009CE0FEEE5402FEEF4EFFD082D083EFF02290009CEFF090582CE0FFEF54FDFFEFF090582CC083C082E0FF90009CE0FEEE5402FEEF4EFFD0AA
:4030800082D083EFF02290009EE4F090009EE0FFEFC39402501090009EE0FF122B7890009EE004F080E590018374FFF022EFB40A07740D1230B8740A309811A899B8130C23
:4030C000C2983098FDA899C298B811F63099FDC299F59922747275650066616C73650073006C6565700044433A20252B312E34660053746174653A00410090FFFF12086DE7
:40310000EFF0851083851182E0FF851083851182EFF09046EA7401F090000112086D227F011218B27F101231647F101231859000A1740EF07BE97A777DB67C8D7F01121371
:40314000D9229043A3E0FFEF4401FFEFF09043B3E0FFEF4401FFEFF0904F00E0FFEF4401FFEFF02290009CEFF0904102C083C082E0FF90009CE0FEEE54F8FEEF4EFFD08272
:40318000D083EFF02290009CEFF0904082C083C082E0FF90009CE0FEEE54F8FEEF4EFFD082D083EFF02290009CEEF0A3EFF07B027A44790890009CE0FEA3E0FFAD07AC069C
:4031C0001238742290009CEEF0A3EFF07B027A44790A90009CE0FEA3E0FFAD07AC061238742290009CEEF0A3EFF07B027A44790290009CE0FEA3E0FFAD07AC0612387422BF
:4032000090009CEEF0A3EFF07B027A44790090009CE0FEA3E0FFAD07AC061238742290009CEEF0A3EFF07B027A44790490009CE0FEA3E0FFAD07AC061238742290009CEE4C
:40324000F0A3EFF07B027A44790690009CE0FEA3E0FFAD07AC061238742290009CEEF0A3EFF07B027A44792290009CE0FEA3E0FFAD07AC061238742290009CEEF0A3EFF090
:403280007B027A44793A90009CE0FEA3E0FFAD07AC061238742290016AE0FFEF7011900170E0FFEF700312311F90016A7401F0121F322290009DEFF012308690009DE0FF9B
:4032C000122C9990009DE0FF900183EFF02290009EEEF0A3EFF07B027A65790490009EE0FCA3E0FD1238742290009EEEF0A3EFF07B027A65794490009EE0FCA3E0FD12388A
:40330000742290009EEEF0A3EFF07B027A65792490009EE0FCA3E0FD1238742290009EEEF0A3EFF07B027A64790490009EE0FCA3E0FD1238742290009EEEF0A3EFF07B022B
:403340007A64792490009EE0FCA3E0FD1238742290009EEEF0A3EFF07B027A64793490009EE0FCA3E0FD1238742290009DEEF0A3EFF07B027A64792290009DE0FCA3E0FD5C
:403380001238742290009DEEF0A3EFF07B027A64790290009DE0FCA3E0FD1238742290017DE0FFEF700912366190017D7401F01234807FC11237F62290009EEEF0A3EFF0FB
:4033C0007B027A65790690009EE0FCA3E0FD1238742290009EEEF0A3EFF07B027A65794690009EE0FCA3E0FD1238742290009EEEF0A3EFF07B027A65792690009EE0FCA33F
:40340000E0FD12387422900180E0FFEF70091236B59001807401F01234AE7FFA12380622EC4D6011ED60010C8B938A838982E4F0A3DDFCDCFA75930022900009EFF07B02A6
:403440007A4F7904900009E0FFEFFD7C0012387422EF54016004D2AF8002C2AFEF5402FF9044F4E054FD4FF0229043A7E0FFEF4404FFEFF09043B7E0FFEF4404FFEFF0227E
:403480009043A8E0FFEF4404FFEFF09043B8E0FFEF4404FFEFF0229043A7E0FFEF4402FFEFF09043B7E0FFEF4402FFEFF0229043A8E0FFEF4408FFEFF09043B8E0FFEF44E2
:4034C00008FFEFF0229043A7E0FFEF4408FFEFF09043B7E0FFEF4408FFEFF02290009CEFF090009CE0FFEFC43354E0FF904484EFF02290009CEFF090009CE0FFEFC43354D6
:40350000E0FF904485EFF02290009E1208067B027A64790B90009E1207EE1237B62290009E1208067B027A64792B90009E1207EE1237B62290009E1208067B027A64793BCF
:4035400090009E1207EE1237B62290009CEFF090009CE0FFEFC43354E0FF904481EFF02290009CEFF090009CE0FFEFC43354E0FF904480EFF02290009CEFF090009CE0FFD6
:40358000EFC43354E0FF904482EFF02290009CEFF090009CE0FFEFC43354E0FF904483EFF02290009CEFF090009CE0FFEFC43354E0FF904491EFF02290009CEFF090009C48
:4035C000E0FFEFC43354E0FF90449DEFF022900176E0FFEF70091225019001767401F012388122900178E0FFEF70091226539001787401F012388D22906564E0FFEF30E405
:403600000B7B027A65795412386580EC22900179E0FFEF70091224819001797401F01238992290017AE0FFEF700912257B90017A7401F01238B12290017BE0FFEF700912A7
:403640002E6290017B7401F01238BD2290017CE0FFEF7009122DAB90017C7401F012346922905828E4F0905829E4F07F00122ECF7F0012302E2290017EE0FFEF70091226A9
:40368000BE90017E7401F01238D522906566E0FFEF30E40B7B027A65795612386580EC2290017FE0FFEF7009122DE890017F7401F01234972290582CE4F090582DE4F07FA5
:4036C00000122FA57F0012305A22900181E0FFEF7009122E259001817401F01234C522900182E0FFEF70091227299001827401F0123142229044F4E0F84402F0E85402FF57
:4037000010AF012274014FFF221239367E2E7FFE1231A67F071234DC12392F221239447E2E7FFF1231C47F071234F212393D221239527E397FB11231E27F0012354A1239BF
:403740004B221239607E397FB21232007F071235601239592212396E7E397FB312321E7F071235761239672212397C7E397FB412323C7F0712358C1239752212398A7E39FF
:403780007FB512325A7F071235A2123983221239987E397FB61232787F071235B8123991228B938A838982E0FFA3E0FEA3E0FDE4FCF593228B938A838982EFF0A3EEF0A3F1
:4037C000EDF07593002290009EEFF090009EE0FF90648DEFF02290009EEFF090009EE0FF906485EFF02290009DEFF090009DE0FF906483EFF02290009CEFF090009CE0FFEC
:40380000905B82EFF02290009CEFF090009CE0FF905B83EFF02290009CEFF090009CE0FF906577EFF022900009EFF0900009E0FF904F03EFF02212399F7E00EF30E60512BB
:40384000391180F2221239A57E00EF30E60512391B80F2221239AB7E00EF30E30512392580F2228B938A838982E0FFA3E0FE759300228B938A838982EDF0A3ECF07593001F
:40388000227F0C122CE09001777401F022906574E0FFEF4480FFEFF02290647DE0FFEF4480FFEFF0229043A2E0FFEF4402FFEFF022906475E0FFEF4480FFEFF022906472C6
:4038C000E0FFEF4480FFEFF0229043A2E0FFEF4404FFEFF022906576E0FFEF4480FFEFF0229043A2E0FFEF4408FFEFF022904E00E0FFEF4401FFEFF0228B938A838982E018
:40390000759300FF228B938A838982EDF0759300227B027A64794B1237A3227B027A647944123865227B027A647942123865229044C07410F0229044C87410F0229044C034
:403940007420F0229044C87420F0229044C07402F0229044C87402F0229044C07401F0229044C87401F0229044C07404F0229044C87404F0229044C07408F0229044C8746B
:4039800008F0229044C27402F0229044CA7402F0229044C37420F0229044CB7420F02290646DE0FF22906465E0FF22906463E0FF2232323232323232323232004F00000CC4
:4039C00000510000100051300010010000100001140008000140000A00014C00020001500000205B035B034020000000000000000000000000000000000000000000000080
:403A00000000000000000000000000000000000000000000000000000000000000000000000000000000000000000000000000000000000000000000000000000000000086
:403A40000000000000000000000000000000000000000000000000000000000000000000000000000000000000000000000000000000000000000000000000000000000046
:403A80000000000000000000000000000000000000000000000000000000000000000000000000000000000000000000000000000000000000000000000000000000000006
:403AC00000000000000000000000000000000000000000000000000000000000000000000000000000000000000000000000000000000000000000000000000000000000C6
:0200000480007A
:4000000026004F0201300A1B0052070940245228602940600878027902005A03CF04D704DF04006403830F85678D77006502842D862D01000438023E0158045F01010101AE
:400040001B01010261026004100C080E07100712081660180F22402401260228022A012E04300F3210342036403E5040254103420449FF4AFF4BFF4F015018528358045A77
:40008000045B045C095D995F016040624064406540668068806A806C806E80820F891F8D048F0890059109920A9306940F9501970299069B199D109F06A403A60CA803AA1B
:4000C0000CAC05AE0AB40FB51FC025C106C201C5ECC720C823C9FFCAFFCBFFCD83CE03CF01D018D403D604D804D904DA04DB04DC99DD99DF05E040E240E440E540E680E8FF
:4001000080EA80EC80EE8001033B02800622074209060D020E281008114012201562170419101D621E10211022203008310232A039403A1041204202452446104702490504
:400140004A064E0251015202595563806C086D406F0477407A04834084409A209B01A504A904AE20AF01B301C0B8C27CC4F7CC0FCE0CD0ECD21CD60FD801DE04E606EC0131
:400180000104504024410649FF4AFF4BFF4DA04F0150185A045D095F016040628064406540668068406A506BA86C406D206E506FA88202830384088C018E189402950199D9
:4001C000049C029E10A208A304A402AE04B001B204B302B402B501B618B704BE11BF50C024C106C50CC620C74EC83BC9FFCAFFCBFFCDAFCE07CF01D018D280D407D804D957
:4002000004DA04DB04DC99DD99DF05E040E280E440E540E680E840EA50EBA8EC40ED20EE50EFA8010532068007110E11150116221C041D221E211F022504264427182E02F6
:4002400036143A103B103F0240044102452249104A084D014E084F06561A5E805F186608670476807F0292109A209B419F02A440A504A694C0B0C2A0C4B0CA80CC60CE800D
:40028000D0A5D224D670D860DE100106170404080213011B011F0123012401300432023601370139203E053F40580459045C295F018101B701BF40D904DF010107200508E3
:4002C000070815041C801F8420022680270A2F80361137403801900191049A049B409F02A211A440A680AA04B104B401B510B601C060C420CA80CCB0CE01E410EA010109E5
:40030000059710B602E410EA71EE10010A2202010F012501320137013F40580459045C095F01C056C101C204C9FFCAFFCBFFCDA0CF01D018DA04DD09DF01E040E280E440D6
:40034000E540E680E840EA50EBA8EC40ED20EE50EFA8010B1502401908224029083880460247014E014F2090809202968097109A429B01A310C008CA02CE08D090D2300179
:400380000C4F40564101420449FF4AFF4BFF4DAF4E074F0150185A045D095F016040628064406540668068406A506BA86C406D206E506FA8800888018B018D049F06A20211
:4003C000A605AA08AE08B001B102B204B304B403B608B701BE51BF04C052C101C204C502C6C5C70EC81FC9FFCAFFCBFFCDAFCE07CF01D018D280D417D604D804D904DA0460
:40040000DB04DC99DD99DF01E040E280E440E540E680E840EA50EBA8EC40ED20EE50EFA8010D3300120303108012201390181419401A021B1320422204308038403B104016
:40044000044202430246024701488049404A104E014F2050405108525058205A885C205E206108621063427380804087409A02A220AA20B202C00AC40FCC08CE0CD09DD2B7
:4004800038D60ED80FE880EC0101144605080B010C040F011203150416041A021B012A042B0630043108320233023501360137043E013F114010410249FF4AFF4BFF4DA009
:4004C0004F04501852805425580459045A045B045C115D115F01604062C06440654066C068C06AC06CC06EC0C050C102C5D1C620C80BC9FFCAFFCBFFCDAFCE0FCF04D018D7
:40050000DA04DD01DF01E040E2C0E440E540E6C0E8C0EAC0ECC0EEC001153301400A600B041110188119801A2020802108224023082B043108321039503A4440094120453C
:40054000204D824F0C5520580859025A80611072408040844087088A409150962099109A04AF02B110C001C20EC402CA04CC06CE0ED02CD210D60BD804E00BE680E808EA3E
:40058000800116480F0114041A0627012E0130043202340137014020410449FF4AFF4BFF4DA04F04501852805425580459045A045B045C225D225F01604062C06440654097
:4005C00066C068C06AC06CC06EC088018B019B01B301B401B808BE10BF04C020C105C5D0C610C720C82AC9FFCAFFCBFFCDAFCE0FCF04D018D804D904DA04DB04DC01DD0233
:40060000DF01E040E2C0E440E540E6C0E8C0EAC0ECC0EEC001172F00100C200D081780181019101C401D28220427022C20321039103E804120452249024A02502051025204
:40064000025C405D025E046708695076807780860489028A0493089A04B001B508C002C260C480CA40CC04CE14D0A4D208D6D0D820E408ECD00119059710E408E880EA4000
:40068000ECD0011B02AF10E00B01400B07400B1430803108360237103B40C020C250CCF0CE100141123320378083308602874097409F10A508A602A880AB40AF14CC30E2A6
:4006C00060E660E850EA20EC800142029F80A5080143081380200521208D109F80A508C440C81001440450047F20D404DE010145051301A804B320C408E801014607001027
:400700000202030845089301C002D00101470F01083D0842018D08A508AB01B308B410B602C008CE01D008E408EA0CEE08014808231025105401A518B120B405C860D6206F
:4007400001490E70027E01850888029202A508AE01AF10B001DC80DE20E240E810EE40014C1030086020630287019820A008B020B201B408B50CCC02D602D802E801EA0260
:40078000EC0B014D065A01668482048681D603D8010150090004010109010A040B010D010F0110061A0601510200FF012F00000000C0C000C0000000000C0C000C000000AB
:4007C0000002020002000000007F7F0000000000520000000000040000E0E000E0001400040400000400000033001801000000000000000000000000000000000000000093
:4008000000000000000000000000000000000000000000000000000000000000000000000000000000000000000000000000000000000000000000000000000000000000B8
:400840000000000000000000000000000000000000000000000000000000000000000000000000000000000000000000000000000000000000000000000000000000000078
:400880000000000000000000000000000000000000000000000000000000000000000000000000000000000000000000000000000000000000000000000000000000000038
:4008C00000000000000000000000000000000000000000000000000000000000000000000000000000000000000000000000000000000000000000000000000000000000F8
:0200000490006A
:0400000000000005F7
:0200000490105A
:04000000AFAC90BC55
:0200000490303A
:02000000644B4F
:0200000490501A
:0C00000000011E02806903011E21E4B40F
:0200000490402A
:4000000000000000000000000000000000000000000000000000000000000000000000000000000000000000000000000000000000000000000000000000000000000000C0
:00000001FF
