:10000000021352008F828E83E0540100000070F8CA
:100010002278FFE4F6D8FD0213B00203DBE8648027
:10002000F8E933E83360110460F0ED33EC33700924
:10003000E8FCE9FDEAFEEBFF220460DED3EB9FEA79
:100040009EE99DE8C2E78CF0C2F795F0400CE8CC41
:10005000F8E9CDF9EACEFAEBCFFB1203A685D0F092
:100060005804700320D5B3E80470075002B2D502DB
:1000700003E592D5EC0460F7E4CCC0E0C398F860E7
:100080003B94186008400DD0E0FB0203BDE4FBFA8E
:10009000C9FC8028E830E406E4C9FBE4CAFCE83087
:1000A000E305E4C9CACBFCE854076010F8C3E913C0
:1000B000F9EA13FAEB13FBEC13FCD8F130F52FC37C
:1000C000E49CFCEF9BFFEE9AFEED99FDD0E0FBEF88
:1000D0004E4D4C701222DB030203E2EC2CFCEF339A
:1000E000FFEE33FEED33FDED30E7EB0203BDEF2B0A
:1000F000FFEE3AFEED39FDD0E0FB50130BBB0003E1
:100100000203E5ED13FDEE13FEEF13FFEC13FC020B
:1001100003BDEC4D6011E8497017ED33EC3304601A
:100120000DE4FCFFFEFD22E933E8330470F802031E
:10013000DB1203A658046009E4CC24815006285041
:10014000090203E52840030203E2C0E0EB4A7044E1
:10015000B98006D0E0FB0203D1EF4E701CBD8008D1
:10016000EBFFEAFEE9FD80EBE98DF0A4FEE5F0028D
:1001700001FBE9CDF9EAFEEBFFEF89F0A4FCE5F025
:10018000CE89F0A42EFFE435F0CD89F0A42DFEE455
:1001900035F08067EF4E7005BD80D780C3EF8BF0E0
:1001A000A4ACF0EE8BF0A42CFCE435F0F8EF8AF070
:1001B000A42CE5F038FCE433CB8DF0A42CFCE5F066
:1001C0003BF8EE8AF0A42CFCE5F038F8E433CF8954
:1001D000F0A42CFCE5F038CF3400CE89F0A42FFF3A
:1001E000E5F03EFEE433C98DF0A42EFEE5F039CDF6
:1001F0008AF0A42FFFE5F03EFEE43DFD33D0E0FBA6
:1002000050070BBB000F0203E5EC2CFCEF33FFEEB5
:1002100033FEED33FD0203BD0203E5EC5D04600532
:10022000E8590470030203DB1203A6580460F6ECDD
:100230004860F2EC7004FDFEFF22C860DB2481C838
:100240005009C398600250060203E29850CAF58232
:10025000E9294B4A7005AB820203D175F0007C1A84
:100260007880C3EF9BEE9AED99400DC3EF9BFFEEB4
:100270009AFEED99FDE842F0DC23ACF0D0E0FFD02F
:10028000E0FED0E0FDAB8220E7101BEB60BAEC2C67
:10029000FCEF33FFEE33FEED33FD0203BDE803F860
:1002A00030E705C0F075F000EF2FFFEE33FEED33C1
:1002B000FD40B830E7C280AA74F8CC6480CCC86432
:1002C00080C8F58204604FC3EB9FF5F0EA9E42F0D0
:1002D000E99D42F0E89C45F0603C501DE5825FFFDF
:1002E000E582D313CB5BCBF42B5582FB50280ABAA3
:1002F000002409B9002008801DE5825BFBE582D35C
:1003000013CF5FCFF4C3132F5582FF50090EBE00E9
:10031000050DBD00010CC3EB9FF5F0EA9E42F0E92C
:100320009D42F0E89C45F06007CC4820E701B3EC23
:100330002275F020800E75F010800575F0087D00A4
:100340007E007F003392D530D5031205C2EC3340D6
:1003500010EF33FFEE33FEED33FDEC33FCD5F0ED63
:1003600022E5F0247EA2D513CC92E7CDCEFF22ED7C
:10037000D2E7CD33EC3392D524814006E4FFFEFD75
:10038000FC22FCE4CFCECDCC24E0501174FF80EDF4
:10039000C3CC13CCCD13CDCE13CECF13CF0470F07E
:1003A00030D5DE0205C2E9D2E7C933E833F892D589
:1003B000EDD2E7CD33EC33FC5002B2D522EC30E77E
:1003C000100FBF000C0EBE00080DBD00040BEB604B
:1003D00014A2D5EB13FCED92E7FD2274FFFCFDFEA9
:1003E000FF22E480F8A2D574FF13FC7D80E480EF47
:1003F000BB010689828A83E0225002E722BBFE020B
:10040000E32289828A83E49322BB010689828A835C
:10041000F0225002F722BBFE01F322EF8DF0A4A8D8
:10042000F0CF8CF0A428CE8DF0A42EFE22BC000BC1
:10043000BE0029EF8DF084FFADF022E4CCF875F01A
:1004400008EF2FFFEE33FEEC33FCEE9DEC984005F9
:10045000FCEE9DFE0FD5F0E9E4CEFD22EDF8F5F0BF
:10046000EE8420D21CFEADF075F008EF2FFFED33C7
:10047000FD4007985006D5F0F222C398FD0FD5F045
:10048000EA22C5F0F8A3E028F0C5F0F8E58215826D
:1004900070021583E038F022EF2BFFEE3AFEED39C3
:1004A000FDEC38FC22E88FF0A4CC8BF0A42CFCE906
:1004B0008EF0A42CFC8AF0EDA42CFCEA8EF0A4CDE6
:1004C000A8F08BF0A42DCC3825F0FDE98FF0A42CFA
:1004D000CD35F0FCEB8EF0A4FEA9F0EB8FF0A4CFAD
:1004E000C5F02ECD39FEE43CFCEAA42DCE35F0FD5E
:1004F000E43CFC2275F008758200EF2FFFEE33FE1E
:10050000CD33CDCC33CCC58233C5829BED9AEC99EB
:10051000E58298400CF582EE9BFEED9AFDEC99FC8D
:100520000FD5F0D6E4CEFBE4CDFAE4CCF9A88222D4
:10053000B800C1B90059BA002DEC8BF084CFCECDF4
:10054000FCE5F0CBF97818EF2FFFEE33FEED33FD2D
:10055000EC33FCEB33FB10D703994004EB99FB0F12
:10056000D8E5E4F9FA227818EF2FFFEE33FEED33E9
:10057000FDEC33FCC933C910D7059BE99A4007EC61
:100580009BFCE99AF90FD8E0E4C9FAE4CCFB2275A8
:10059000F010EF2FFFEE33FEED33FDCC33CCC8333C
:1005A000C810D7079BEC9AE899400AED9BFDEC9A9E
:1005B000FCE899F80FD5F0DAE4CDFBE4CCFAE4C816
:1005C000F922C3E49FFFE49EFEE49DFDE49CFC222F
:1005D000EB9FF5F0EA9E42F0E99D42F0E89C45F081
:1005E00022E0FCA3E0FDA3E0FEA3E0FF22E0F8A3ED
:1005F000E0F9A3E0FAA3E0FB22ECF0A3EDF0A3EE18
:10060000F0A3EFF022E0FBA3E0FAA3E0F922EBF085
:10061000A3EAF0A3E9F022E493FB740193FA7402D5
:1006200093F922D083D082F8E4937012740193700E
:100630000DA3A393F8740193F5828883E473740285
:10064000936860EFA3A3A380DFE50C2582F582E524
:100650000B3583F583B50B0485820C2210AF06851C
:10066000820CF50B2285820CF50BD2AF22EC8EF0BA
:10067000A4CCC5F0CCCDF8EFA4CEC5F02DFDE43C64
:10068000FCE8A42EC8C5F03DFDE43CFCEFA4FFE56A
:10069000F028FEE43DFDE43CFC22E709F608DFFA21
:1006A0008046E709F208DFFA803E88828C83E709FA
:1006B000F0A3DFFA8032E309F608DFFA806EE3097F
:1006C000F208DFFA806688828C83E309F0A3DFFA00
:1006D000805A89828A83E0A3F608DFFA804E8982F5
:1006E0008A83E0A3F208DFFA804280D280FA80C6D3
:1006F00080D4805580F28029801080A680EA809A7C
:1007000080A880DA80E280CA802988848C858982EA
:100710008A83E493A30586F0A30586DFF5DEF380E4
:100720000B89828A83E493A3F608DFF9ECFAA9F037
:10073000EDFB2288848C8589828A83E0A30586F07C
:10074000A30586DFF6DEF480E389828A83E493A33F
:10075000F208DFF980D688F0EF60010E4E60CD8898
:10076000F0ED2402B4040050C3F582EB2402B4047B
:100770000050B923234582239006EA73C0E0C0F0FD
:10078000C083C082C085C084C086758600C0937552
:100790009300C0D075D000C000C001C002C003C02B
:1007A00004C005C006C00790003AE475F0011204C9
:1007B000821228A9E412033190001F1205F990005B
:1007C0001B1205ED90001F1205E112021B90004C58
:1007D0001205F990001F1205ED90001B1205E112A1
:1007E000021B9000601205F99000001205ED9000C8
:1007F000601205E112021B90000C1205F990002D09
:100800001205E190006F1205F990000C1205ED90B1
:1008100000041205E112001D90002D1205F9900050
:10082000481205E1C004C005C006C00790004C1284
:1008300005E190002D1205ED120112A804A905AAE8
:1008400006AB07D007D006D005D0041200219000D7
:10085000481205F99000481205E19000441205ED98
:10086000120112C004C005C006C00790002D120579
:10087000E19000501205ED120112A804A905AA0684
:10088000AB07D007D006D005D00412002190003E5F
:100890001205F97F007E007D007C0090000C12059F
:1008A000ED1202B870229000541205E112036F900D
:1008B000003CEEF0A3EFF07F007E007D007C009016
:1008C00000481205F90209677F007E007D807CBF29
:1008D0009000681205ED120021C004C005C006C0DA
:1008E0000790003E1205E19000541205ED12002120
:1008F000A804A905AA06AB07D007D006D005D004E6
:100900001202B86020401E7F007E007D807CBF9078
:1009100000681205ED12002112036F90003CEEF00A
:10092000A3EFF0804290003E1205E19000541205C2
:10093000ED1200217B007A00790078001202B86085
:100940000C400A90003CE4F0A3E4F0801A90003ED2
:100950001205E19000541205ED12002112036F9070
:10096000003CEEF0A3EFF07D067F00121C16900015
:1009700025E0FEA3E0FF1212577D0A7F00121C162D
:10098000900018E0FFEF600B7BFF7A217982121D47
:100990001580097BFF7A217987121D1590003AE0B6
:1009A000FEA3E0FFC3EF941CEE9400404E90000ABB
:1009B000E0FEA3E0FF900025E0FCA3E0FDEDB5071D
:1009C0003AECB50636900073E4F07FE87E037D00D4
:1009D0007C009000741205F9900073E0FF1227BAB2
:1009E00090003AE4F0A3E4F012269690006CE0FE4A
:1009F000A3E0FF900025EEF0A3EFF090003AE0FEB8
:100A0000A3E0FFC3EF9469EE94004072900058E0B9
:100A1000FEA3E0FF900025E0FCA3E0FDED6F700277
:100A2000EC6E705A900073E4F0900073E0FF1227B0
:100A3000BA7D007F01121C167BFF7A21798D121D71
:100A4000157D017F01121C167BFF7A21798F121D03
:100A5000157F647E001223B79000737402F090003B
:100A600073E0FF1227BA90003AE4F0A3E4F090009C
:100A700008E0FEA3E0FF900025EEF0A3EFF0900069
:100A80003AE0FEA3E0FFC3EF941FEE9400403590E0
:100A90000008E0FEA3E0FF900025E0FCA3E0FDEDF0
:100AA000B50721ECB5061D900073E4F07F987E0039
:100AB0001223B7900073E0FF1227BA900025E4F0EC
:100AC000A37405F090003CE0FEA3E0FF1222CD12DB
:100AD0002929D007D006D005D004D003D002D001F8
:100AE000D000D0D0D093D086D084D085D082D0838F
:100AF000D0F0D0E0327B007A4679E8122891EF44BA
:100B000005FD7B007A4679E812289D750A00E50A02
:100B1000C39408503AAF0AEF75F005A4243CF5825F
:100B2000E43429F583AF82AE838E088F09AE08AF17
:100B3000098F828E83120617AE08AF098F828E83CB
:100B4000740393FC740493FD122405050A80BF7B93
:100B5000087A0079001220FD7B007A58794A7D03DB
:100B60007C011228167B007A58794C7D037C021296
:100B700028167B007A58794E7D037C031228167B59
:100B8000017A507903122891EF4402FD7B017A50DB
:100B9000790312289D7B017A507913122891EF4432
:100BA00002FD7B017A50791312289D9043A0E0FF4B
:100BB000EF4440FF9043A0EFF09043C2E0FFEF44CA
:100BC00010FF9043C2EFF07B087A0779B4C003C0EE
:100BD00002C0017B007A5179129000CC12060ED02F
:100BE00001D002D0037F087E0012203B7B087A07E9
:100BF00079BCC003C002C0017B007A5179C2900069
:100C0000CC12060ED001D002D0037F087E00122045
:100C10003B7B087A0779C4C003C002C0017B007A1D
:100C20005179F29000CC12060ED001D002D0037F91
:100C3000087E0012203B7B087A0779CCC003C002F3
:100C4000C0017B007A5179229000CC12060ED001AF
:100C5000D002D0037F087E0012203B7B087A077900
:100C6000D4C003C002C0017B007A5179429000CC0D
:100C700012060ED001D002D0037F087E0012203B66
:100C80007B087A0779DCC003C002C0017B007A517F
:100C900079529000CC12060ED001D002D0037F080A
:100CA0007E0012203B7B087A0779E4C003C002C0B3
:100CB000017B007A5179629000CC12060ED001D0EF
:100CC00002D0037F087E0012203B7B017A00795B13
:100CD0007D4412289D7B017A0279DB7D4412289D98
:100CE0009044F47401F09046ECE0FFEFC39405509B
:100CF00006904689743AF090480074F1F0120D3D68
:100D000090480074B1F012159D7B007A4379A0C021
:100D100003C002C0017B007A4379B09000CC120678
:100D20000ED001D002D0037F0E7E0012203B9043F4
:100D3000B0E0FFEF54FDFF9043B0EFF0227E007F64
:100D4000C09000C4EEF0A3EFF07B007A4079807F82
:100D50000C7E007D187C001227587B007A40798435
:100D60007F1D7E007D197C001227587B007A407918
:100D7000887F1D7E007D197C001227587B007A40F9
:100D8000798C7F2F7E757D197C001227587B087A1D
:100D90000779ECC003C002C0017B007A4179009062
:100DA00000CC12060ED001D002D0037F047E0012C8
:100DB000203B9043007402F09040007408F0904291
:100DC000007403F07B0C7A0179081228919046A1F7
:100DD000EFF07B007A4279227D087C001228167B96
:100DE000007A4279207D517C101228169000C6E4CA
:100DF000F07F197E007D007C009000C01205F99004
:100E000000C4E0FEA3E0FF8F828E831205E1EC4D6B
:100E10004E4F604E9000C6E0FFEF64036044904286
:100E200025E0FFEF5401FF7E009000C6E0FEEE25B6
:100E3000E0FEEE4FFFEF5403FF9000C6EFF07FE0BF
:100E40007E017D007C001220009000C01205E17B35
:100E5000FF7AFF79FF78FF1204989000C01205F91D
:100E6000809D7B007A4079047D007C0112281690D9
:100E700040047407F0904006E4F09040087448F095
:100E8000904004E4F09040017402F090400B740430
:100E9000F09043A2E0FFEF440FFFEFF09043A1E09A
:100EA000FFEF4401FFEFF09043A0E0FFEF4480FF2D
:100EB000EFF0229000CBE4F0905120E0FFEF54805F
:100EC000FFEFF0905122E0FFEF54F0FF9000CBEFE6
:100ED000F09000CBE0FFEF440FFF905122EFF09035
:100EE0005123E0FFEF54F0FF9000CBEFF09000CBE8
:100EF000E0FF905123EFF0905124E0FFEF54F0FF1A
:100F00009000CBEFF09000CBE0FF905124EFF090F9
:100F10005120E0FFEF54DFFFEFF0905120E0FFEFB2
:100F20004440FFEFF07F007E001220D0905120E07F
:100F3000FFEF4410FFEFF07F017E001220D09051B0
:100F400021E0FF9000CBEFF0905120E0FFEF54EF55
:100F5000FFEFF09000CBE0FFEF5408FF9000CBEFE5
:100F6000F0905120E0FFEF4410FFEFF07F017E0092
:100F70001220D0905120E0FFEF54EFFFEFF09000EF
:100F8000CBE0FFEF709F905120E0FFEF54BFFFEFE9
:100F9000F0905120E0FFEF5480FFEFF0905122E0FD
:100FA000FFEF54F0FF9000CBEFF09000CBE0FF900C
:100FB0005122EFF0905123E0FFEF54F0FF9000CB6F
:100FC000EFF09000CBE0FFEF440FFF905123EFF0E4
:100FD000905124E0FFEF54F0FF9000CBEFF0900031
:100FE000CBE0FFEF440FFF905124EFF02244001BB1
:100FF00047C35000440068447A000044000040F8B1
:1010000089BA44000C0000000044001F00000000EA
:101010004400600000000044005A0000000041004D
:101020006E004400043FC0000044002D000000009A
:1010300044003E000000004400480000000044005E
:101040004C0000000044005044960000440044411D
:10105000F0000044005442DC000042003C006E42BC
:10106000003A0000420027000042000A000142004E
:101070006C000242001900034200580004420008BC
:101080000005420023000642002500004100180030
:10109000410039004200310000420042000042009D
:1010A0003700004400140000000044006400000009
:1010B000004400290000000044001000000000442B
:1010C00000330000000042005E009841011D004115
:1010D000011C0041011E0041011F0041012000418F
:1010E000012100410122004101230041012400416E
:1010F000012500410126004101270041012800444B
:10110000010E016E360044010900005DC041010D71
:10111000184401132EE000004301170000004101B4
:10112000290000C0E0C0F0C083C082C085C084C078
:1011300086758600C093759300C0D075D000C0003E
:10114000C001C002C003C004C005C006C007122809
:10115000BD900031EEF0A3EFF01228BD900042EEFA
:10116000F0A3EFF0900042E0FEA3E0FF900031E03A
:10117000FCA3E0FDC3ED9FFDEC9EFCE41203369062
:1011800000141205F97F007E007D407CC49000149D
:101190001205ED1200219000641205F99000291249
:1011A00005E19000641205ED12002190002912055E
:1011B000F99000101205ED9000641205E112001D77
:1011C0009000331205F99000641205E190001012AE
:1011D00005F97F007E407D1C7C469000141205EDD1
:1011E0001202B86002504A7FCD7ECC7DCC7C3D900F
:1011F00000641205ED1201127B007A007918784321
:1012000012002112036F90005EEEF0A3EFF0900049
:1012100023E0FEA3E0FF900025E0FCA3E0FDEDB598
:10122000070FECB5060B90005EE0FEA3E0FF122373
:10123000B7122935D007D006D005D004D003D0028C
:10124000D001D000D0D0D093D086D084D085D082A9
:10125000D083D0F0D0E0329000A7EEF0A3EFF09072
:1012600000B3E4F09000B4E4F09000A7E0FEA3E047
:10127000FFC3EF940AEE940040459000A7E0FEA360
:10128000E0FF7C007D0A12042DAF05EF2430FF90B3
:1012900000B3E0FE74AE2EF582E43400F583EFF087
:1012A0009000A7E0FEA3E0FF7C007D0A12042D90D1
:1012B00000A7EEF0A3EFF09000B3E004F080AA9056
:1012C00000A7E0FEA3E0FF7C007D0A12042DAF051D
:1012D000EF2430FF9000B3E0FE74AE2EF582E434CC
:1012E00000F583EFF09000B3E0FF9000B4EFF090D2
:1012F00000B3E0FFEF64FF603E9000B3E0FF74AE28
:101300002FF582E43400F583E0FF9000B3E0FEEEB9
:10131000FD7C009000B4E0FEEEFB7A00C3EB9DFD87
:10132000EA9CFC74A92DF58274003CF583EFF090E3
:1013300000B3E014F080B89000B4E0FF74AA2FF579
:1013400082E43400F583E4F07B017A0079A9121D70
:10135000152275930078007583467582E8E0440194
:10136000F0009046ECE0F99046FAE0FAB903225416
:1013700020B40012B8001AEA901FFFF07401901F09
:10138000FEF09046F6F0901FFEE06005901FFFE033
:10139000FA90480074C0F075810C900000780079D4
:1013A00020E4F0A3D8FCD9FAEA900112F00200116F
:1013B000750B1F750CFD120AF50213F702143CE4BD
:1013C00093A3F8E493A34003F68001F208DFF480CE
:1013D00029E493A3F85407240CC8C333C4540F441E
:1013E00020C8834004F456800146F6DFE4800B01F8
:1013F00002040810204080900FEDE47E019360BC51
:10140000A3FF543F30E509541FFEE493A360010E8F
:10141000CF54C025E060A840B8E493A3FAE493A3B6
:10142000F8E493A3C8C582C8CAC583CAF0A3C8C5D7
:1014300082C8CAC583CADFE9DEE780BE9000C0E487
:10144000F09000C1E4F0A3E4F0D2AF9044F4E0FFE8
:10145000EF54FDFFEFF01225C412284912286D1237
:1014600025D912260312236912259A12262D122538
:10147000857D007F00121C167BFF7A21799E121D4C
:10148000151226C07E077F7C1221C71226D37E1B31
:101490007FBF1221E51226E67E117F23122203125E
:1014A00026F97E1C7FC41222211225EE1223D112AE
:1014B000265712270C7E167F2212223F12268112F7
:1014C000271F7E167FA612225D1228851227327EE4
:1014D000157F0512227B9000541205E112036F1252
:1014E00022CD9000C0E0FF1227BA9000C1E0FEA319
:1014F000E0FFEFB410F4EEB427F09000C1E4F0A3E5
:10150000E4F080E622C0E0C0F0C083C082C085C0A5
:1015100084C086758600C093759300C0D075D000D6
:10152000C000C001C002C003C004C005C006C0079F
:1015300090006CE0FEA3E0FF900025E0FCA3E0FD3E
:10154000ED6F7002EC6E7032900019E0FEA3E0FFC8
:10155000900025EEF0A3EFF07D007F00121C1690A6
:101560000025E0FEA3E0FF1212577D007F01121C50
:10157000167BFF7A217994121D15D007D006D0056D
:10158000D004D003D002D001D000D0D0D093D086E8
:10159000D084D085D082D083D0F0D0E0327B0C7A5A
:1015A0000179CF1228919000C0EFF09000C0E0FFC9
:1015B000EF5407FF90586EEFF09000C0E0FFEFC4CB
:1015C000540FFFEF540FFF90586FEFF090514D7490
:1015D00004F090515D7414F0905A907420F0905A79
:1015E000987420F0905AC87401F0905ACB7440F06F
:1015F000905AD07440F0905AD47420F0905AD87415
:1016000004F07B027A5A79DB7D407C201228189006
:101610005B007401F0905B587401F090587674444C
:10162000F022C0E0C0F0C083C082C085C084C08604
:10163000758600C093759300C0D075D000C000C0FF
:1016400001C002C003C004C005C006C00790002747
:10165000E0FEA3E0FF900025E0FCA3E0FDEDB50770
:1016600022ECB5061E9000A57402F09000A5E0FFE4
:101670001227BA90000AE0FEA3E0FF900025EEF0EA
:10168000A3EFF0D007D006D005D004D003D002D00D
:1016900001D000D0D0D093D086D084D085D082D055
:1016A00083D0F0D0E032C0E0C0F0C083C082C085FB
:1016B000C084C086758600C093759300C0D075D075
:1016C00000C000C001C002C003C004C005C006C005
:1016D00007900019E0FEA3E0FF900025E0FCA3E0E6
:1016E000FDEDB50722ECB5061E9000BE7403F09028
:1016F00000BEE0FF1227BA900058E0FEA3E0FF9082
:101700000025EEF0A3EFF0D007D006D005D004D02E
:1017100003D002D001D000D0D0D093D086D084D0D6
:1017200085D082D083D0F0D0E032906475E0FFEFB6
:1017300054F8FF9000C3EFF09000C3E0FFEF4401C6
:10174000FF906475EFF0906475E0FFEF54E7FF9051
:1017500000C3EFF09000C3E0FFEF4408FF90647512
:10176000EFF01227DA7FFF7EFF7DFF7C001224EB73
:101770007F007E007D007C001224D57F1C12276A2A
:101780001229297F807E007D007C0012250112260F
:10179000AB9000C4EFF0906496E0FFEF4410FFEFD1
:1017A000F09000C4E0FF12241E227F287E007D00FE
:1017B0007C001218FC7F03121D637F057E007D00F4
:1017C0007C001218FC7F03121D637F0F7E007D00DA
:1017D0007C001218FC7F03121D637F017E007D00D8
:1017E0007C001218FC7F02121D637F057E007D00C5
:1017F0007C001218FC7F06121E3A7F0E121E3A7FE2
:101800002C121E3A7F08121E3A7F01121E3A7F0CDC
:10181000121E3A7F03121E3A7F057E007D007C0077
:101820001218FC22906473E0FFEF54F8FF9000C39D
:10183000EFF09000C3E0FF906473EFF0906473E00A
:10184000FFEF54E7FF9000C3EFF09000C3E0FF907C
:101850006473EFF01227E97F637E001223017F009B
:101860007E001222E77F0C12277A12292F7F317E09
:101870000012231B1226AB9000C4EFF0906493E09B
:10188000FFEF4410FFEFF09000C4E0FF12241E228F
:10189000904F00E0FFEF5401FFEFF0904F02E0FFA8
:1018A000EF54FCFFEFF0904F00E0FFEF4404FFEF38
:1018B000F0904F01E0FFEF4401FFEFF0904F0BE09D
:1018C000FFEF54CFFFEFF0904F0BE0FFEF4430FFFE
:1018D000EFF0904F0BE0FFEF54F0FFEFF0904F0B65
:1018E000E0FFEF440FFFEFF07FE87E031223EB7F72
:1018F000E87E03121B647F081227CA2290FFFC12A5
:1019000006491205F97F007E807D007C00850B83EF
:10191000850C821205EDD31205D0403090011312D0
:1019200005E1122000850B83850C82C083C08212E2
:1019300005E1C3EF9400FFEE9480FEED9400FDEC12
:101940009400FCD082D0831205F980B9900109126D
:1019500005E1850B83850C821205ED1204A512208A
:101960000090000412064922906577E0FFEF54C012
:10197000FF9000C3EFF09000C3E0FFEF4409FF9039
:101980006577EFF0906596E0FFEF4401FFEFF09090
:101990006597E0FFEF4401FFEFF07FE77E0312223F
:1019A000997FE77E031222B37FFA7E001222CD9048
:1019B0006587E4F01226AB9000C4EFF0906597E0E5
:1019C000FFEF4410FFEFF09000C4E0FF12241E125E
:1019D00025AF22906478E0FFEF54C0FF9000C3EF82
:1019E000F09000C3E0FFEF4409FF906478EFF090BF
:1019F0006498E0FFEF4401FFEFF0906499E0FFEF9F
:101A00004401FFEFF07FE77E031223837FE77E032D
:101A100012239D7F987E001223B7906489E4F01210
:101A200026AB9000C4EFF0906499E0FFEF4410FF04
:101A3000EFF09000C4E0FF12241E12264222900014
:101A4000C3EFF09000C3E0FFEF5403FF905842E073
:101A5000FEEE54FCFEEE4FFF905842EFF09000C3B4
:101A6000E0FFEFB4011D7B0C7A01791212289190EE
:101A70004634EFF07B0C7A017916122891904635A6
:101A8000EFF0227B0C7A0179B1122891904634EF65
:101A9000F07B0C7A0179B9122891904635EFF0224B
:101AA0009000C3EFF09000C3E0FFEF5403FF9058A5
:101AB00041E0FEEE54FCFEEE4FFF905841EFF090F7
:101AC00000C3E0FFEFB4011D7B0C7A0179111228ED
:101AD00091904632EFF07B0C7A01791512289190A3
:101AE0004633EFF0227B0C7A0179AF1228919046B1
:101AF00032EFF07B0C7A0179B7122891904633EFE0
:101B0000F0229000C3EFF09000C3E0FFEF5403FF1A
:101B1000905843E0FEEE54FCFEEE4FFF905843EF2A
:101B2000F09000C3E0FFEFB4011D7B0C7A01791344
:101B3000122891904636EFF07B0C7A017917122823
:101B400091904637EFF0227B0C7A0179B3122891FD
:101B5000904636EFF07B0C7A0179BB1228919046C3
:101B600037EFF022900078EEF0A3EFF09043A3E07F
:101B7000FFEF5401FF7E00EF4E601C9043A3E0FF97
:101B8000EF5401FF7E00EF4E70047F0180027F0062
:101B9000E4FCFDFE121FD89043A3E0FFEF4401FFD9
:101BA000EFF07B027A4F7906900078E0FCA3E0FD2D
:101BB0001228189043A3E0FFEF54FEFFEFF022C07D
:101BC000E0C0F0C083C082C085C084C08675860036
:101BD000C093759300C0D075D000C000C001C00292
:101BE000C003C004C005C006C00790006EE004F04A
:101BF000122929D007D006D005D004D003D002D0B6
:101C000001D000D0D0D093D086D084D085D082D0DF
:101C100083D0F0D0E0329000C3EFF09000C4EDF03C
:101C20009000C3E0FFEF1206231C39001C46011C84
:101C300053021C600300001C6C9000C4E0FFEF2402
:101C400080FF121E3A229000C4E0FFEF24C0FF1272
:101C50001E3A229000C4E0FFEF2494FF121E3A22A5
:101C60009000C4E0FFEF24D4FF121E3A229000CA75
:101C7000EFF0120EB3905120E0FFEF4420FFEFF0A1
:101C8000905120E0FFEF54BFFFEFF0905120E0FFB4
:101C9000EF54F0FFEFF0905120C083C082E0FF903E
:101CA00000CAE0FEEE4410FEEF4EFFD082D083EF7C
:101CB000F07F017E001220D0905120E0FFEF54EF22
:101CC000FFEFF022C0E0C0F0C083C082C085C084B6
:101CD000C086758600C093759300C0D075D000C0D3
:101CE00000C001C002C003C004C005C006C0071286
:101CF000292FD007D006D005D004D003D002D001C0
:101D0000D000D0D0D093D086D084D085D082D0835C
:101D1000D0F0D0E0329000C312060E9000C67401DD
:101D2000F09000C31206051203F0FF9000C7EFF019
:101D30009000C7E0FFEF602A9000C7E0FF121F6C21
:101D40009000C31206059000C6E0FFE92FF9E43ABF
:101D5000FA1203F0FF9000C7EFF09000C6E004F025
:101D600080CE229000C7EFF0905120E0FFEF549F0B
:101D7000FFEFF0905120E0FFEF54F0FFEFF09051B3
:101D800020C083C082E0FF9000C7E0FEEE4410FE5A
:101D9000EF4EFFD082D083EFF07F017E001220D083
:101DA000905120E0FFEF54EFFFEFF022905828E031
:101DB000FFEF540CFF7E00EF7802CEC313CE13D892
:101DC000F9FFEF2406FF9000C4EFF09000C4E0FF9D
:101DD000E4FCFDFEEF2428FFEE3401FEED340CFDA3
:101DE000EC3400FCA907AA06AB0512289190460A1C
:101DF000EFF02290582CE0FFEF540CFF7E00EF78BC
:101E000002CEC313CE13D8F9FFEF2406FF9000C40F
:101E1000EFF09000C4E0FFE4FCFDFEEF2438FFEE9D
:101E20003401FEED340CFDEC3400FCA907AA06AB2E
:101E30000512289190460BEFF0229000C5EFF0902C
:101E400000C5E0FFEFC4540FFF9000C6EFF0120E84
:101E5000B39000C6E0FFEF540FFF9000C6EFF09084
:101E600000C6E0FF121D639000C5E0FFEF540FFFB6
:101E70009000C6EFF09000C6E0FF121D63227F01C4
:101E8000121A3E905842E0FFEF4420FFEFF09058C6
:101E900042E0FFEF54FBFFEFF0905842E0FFEF44C9
:101EA00008FFEFF0905AD7E0FFEF54E7FFEFF09014
:101EB0005AD7E0FFEF4408FFEFF0227F00121AA08C
:101EC000905841E0FFEF4420FFEFF0905841E0FFD1
:101ED000EF54FBFFEFF0905841E0FFEF4408FFEFB5
:101EE000F0905ACFE0FFEF54E7FFEFF0905ACFE0C9
:101EF000FFEF4408FFEFF0227F00121B02905843CF
:101F0000E0FFEF4420FFEFF0905843E0FFEF54FB79
:101F1000FFEFF0905843E0FFEF4408FFEFF0905AD6
:101F2000DFE0FFEF54E7FFEFF0905ADFE0FFEF4410
:101F300008FFEFF0227FFF7EFF1223357FFF7EFF39
:101F400012234F1226AB9000C3EFF0906490E0FF95
:101F5000EF4410FFEFF09000C3E0FF12241E7F015A
:101F6000121FA21227F87F0212278A229000C8EFC0
:101F7000F0120EB39000C8E0FFEFC4540FFF9000C2
:101F8000C9EFF09000C9E0FF121C6D9000C8E0FF9F
:101F9000EF540FFF9000C9EFF09000C9E0FF121C52
:101FA0006D229000C4EFF09000C4E0FFEF5403FFF7
:101FB0009000C4EFF0906470E0FFEF54FCFFEFF08E
:101FC000906470C083C082E0FF9000C4E0FEEF4EDA
:101FD000FFD082D083EFF02290FFFF120649EFF08E
:101FE000850B83850C82E0FF850B83850C82EFF0E7
:101FF0009046EA7401F09000011206492232323212
:10200000EC4D4E700D78FCEF24E950032840FD2282
:1020100000007BF178DA0000EF28FF78FFEE38FE51
:10202000ED38FDEC38FC50E7EF2BFFEE38FEED38D5
:10203000FDEC38FC40F22205020304758600EF4EE9
:102040006027EF60010E7593009000CCE0F595A33A
:10205000E0F585A3E0F5848B938A838982E0A3056C
:1020600086F0A31586DFF6DEF4E4F593F59522906D
:1020700000C3EFF0905828E0FFEF54F3FFEFF0902B
:102080005828C083C082E0FF9000C3E0FEEE540CED
:10209000FEEF4EFFD082D083EFF0121DAC229000F5
:1020A000C3EFF090582CE0FFEF54F3FFEFF090589F
:1020B0002CC083C082E0FF9000C3E0FEEE540CFE13
:1020C000EF4EFFD082D083EFF0121DF32232323276
:1020D000EEFA90010DE0F88FF0A4FFAEF0E88AF080
:1020E000A42EFEE5F03400FDEF24C9FF78FFEE38A2
:1020F000FEED38FDE438FC500302200022ACEAADCE
:10210000A08B938A838982E0F96017A3E0F5EAA3A4
:10211000E0F5A0A3E060F4FAA3E0F8A3E0F2DAF8B7
:10212000D9E98DA08CEAE4F593229000C3EFF090FA
:102130005828E0FFEF54FDFFEFF0905828C083C00F
:1021400082E0FF9000C3E0FEEE5402FEEF4EFFD0AF
:1021500082D083EFF0229000C3EFF090582CE0FF84
:10216000EF54FDFFEFF090582CC083C082E0FF9049
:1021700000C3E0FEEE5402FEEF4EFFD082D083EFAC
:10218000F022747275650066616C73650073006C93
:102190006565700077616974206F766572005374AD
:1021A0006174653A009043A3E0FFEF4401FFEFF054
:1021B0009043B3E0FFEF4401FFEFF0904F00E0FFEA
:1021C000EF4401FFEFF0229000C3EEF0A3EFF07BAD
:1021D000027A4479089000C3E0FEA3E0FFAD07ACAB
:1021E00006122818229000C3EEF0A3EFF07B027ACB
:1021F00044790A9000C3E0FEA3E0FFAD07AC0612ED
:102200002818229000C3EEF0A3EFF07B027A447905
:10221000029000C3E0FEA3E0FFAD07AC0612281851
:10222000229000C3EEF0A3EFF07B027A4479009095
:1022300000C3E0FEA3E0FFAD07AC06122818229011
:1022400000C3EEF0A3EFF07B027A4479049000C360
:10225000E0FEA3E0FFAD07AC06122818229000C3F1
:10226000EEF0A3EFF07B027A4479069000C3E0FE23
:10227000A3E0FFAD07AC06122818229000C3EEF0D1
:10228000A3EFF07B027A4479229000C3E0FEA3E042
:10229000FFAD07AC06122818229000C5EEF0A3EFA0
:1022A000F07B027A6579069000C5E0FCA3E0FD12A0
:1022B0002818229000C5EEF0A3EFF07B027A657932
:1022C000469000C5E0FCA3E0FD122818229000C54E
:1022D000EEF0A3EFF07B027A6579269000C5E0FC72
:1022E000A3E0FD122818229000C5EEF0A3EFF07BCA
:1022F000027A6479029000C5E0FCA3E0FD12281880
:10230000229000C5EEF0A3EFF07B027A6479229070
:1023100000C5E0FCA3E0FD122818229000C5EEF0F5
:10232000A3EFF07B027A6479329000C5E0FCA3E071
:10233000FD122818229000C4EEF0A3EFF07B027A81
:102340006479209000C4E0FCA3E0FD1228182290DC
:1023500000C4EEF0A3EFF07B027A6479009000C431
:10236000E0FCA3E0FD12281822900123E0FFEF70AB
:10237000091226189001237401F012244D7FC11216
:10238000279A229000C5EEF0A3EFF07B027A6479E1
:10239000089000C5E0FCA3E0FD122818229000C5BB
:1023A000EEF0A3EFF07B027A6479489000C5E0FC80
:1023B000A3E0FD122818229000C5EEF0A3EFF07BF9
:1023C000027A6479289000C5E0FCA3E0FD12281889
:1023D00022900126E0FFEF700912266C900126740E
:1023E00001F012247B7FC81227AA22900078EEF019
:1023F000A3EFF07B027A4F7904900078E0FCA3E031
:10240000FD12281822EC4D6011ED60010C8B938AAF
:10241000838982E4F0A3DDFCDCFA75930022EF549B
:10242000016004D2AF8002C2AFEF5402FF9044F4C7
:10243000E054FD4FF0229043A7E0FFEF4404FFEF8C
:10244000F09043B7E0FFEF4404FFEFF0229043A881
:10245000E0FFEF4404FFEFF09043B8E0FFEF4404E7
:10246000FFEFF0229043A7E0FFEF4402FFEFF09070
:1024700043B7E0FFEF4402FFEFF0229043A8E0FFF4
:10248000EF4408FFEFF09043B8E0FFEF4408FFEFA0
:10249000F0229043A7E0FFEF4408FFEFF09043B72E
:1024A000E0FFEF4408FFEFF0229000C3EFF0900050
:1024B000C3E0FFEFC43354E0FF904484EFF0229078
:1024C00000C3EFF09000C3E0FFEFC43354E0FF908F
:1024D0004485EFF0229000C51205F97B027A6479F9
:1024E000049000C51205E112275A229000C512057A
:1024F000F97B027A6479249000C51205E112275A0B
:10250000229000C51205F97B027A6479349000C5E7
:102510001205E112275A229000C3EFF09000C3E0A9
:10252000FFEFC43354E0FF904481EFF0229000C3EA
:10253000EFF09000C3E0FFEFC43354E0FF9044801D
:10254000EFF0229000C3EFF09000C3E0FFEFC43340
:1025500054E0FF904482EFF0229000C3EFF090002F
:10256000C3E0FFEFC43354E0FF904483EFF02290C8
:1025700000C3EFF09000C3E0FFEFC43354E0FF90DE
:102580004491EFF02290011CE0FFEF70091217AAAE
:1025900090011C7401F01228252290011EE0FFEF2B
:1025A000700912196890011E7401F01228312290EE
:1025B0006567E0FFEF30E40B7B027A6579561228FD
:1025C0000980EC2290011FE0FFEF700912172A909A
:1025D000011F7401F012283D22900120E0FFEF70EE
:1025E000091218249001207401F01228552290013C
:1025F00021E0FFEF7009121F359001217401F012E4
:10260000286122900122E0FFEF7009121E7E9001E6
:10261000227401F012243622905828E4F0905829B0
:10262000E4F07F0012206F7F0012212A2290012403
:10263000E0FFEF70091219D39001247401F0122801
:102640007922906469E0FFEF30E40B7B027A6479D1
:102650005812280980EC22900125E0FFEF70091242
:102660001EBB9001257401F01224642290582CE4C2
:10267000F090582DE4F07F0012209E7F001221562A
:1026800022900127E0FFEF7009121EF890012774D5
:1026900001F012249222900128E0FFEF7009121835
:1026A000909001287401F01221A5229044F4E0F8E2
:1026B0004402F0E85402FF10AF012274014FFF22E0
:1026C0001228CE7E1F7FFD1221C77F071224A91278
:1026D00028C7221228DC7E1F7FFE1221E57F071209
:1026E00024BF1228D5221228EA7E1F7FFF12220360
:1026F0007F001225171228E3221228F87E207FCDB2
:102700001222217F0712252D1228F1221229067E7E
:10271000207FCE12223F7F071225431228FF22126C
:1027200029147E207FCF12225D7F0712255912299E
:102730000D221229227E297F3B12227B7F07122540
:102740006F12291B228B938A838982E0FFA3E0FE0C
:10275000A3E0FDE4FCF593228B938A838982EFF05A
:10276000A3EEF0A3EDF0759300229000C5EFF0907A
:1027700000C5E0FF906486EFF0229000C5EFF09076
:1027800000C5E0FF906483EFF0229000C4EFF0906A
:1027900000C4E0FF906480EFF0229000C3EFF0905F
:1027A00000C3E0FF905B82EFF0229000C3EFF09057
:1027B00000C3E0FF905B83EFF0229000C3EFF09046
:1027C00000C3E0FF906476EFF022900078EFF09085
:1027D0000078E0FF904F03EFF0221229297E00EFEE
:1027E00030E6051228A980F22212292F7E00EF3050
:1027F000E6051228B380F2221229357E00EF30E37D
:10280000051228BD80F2228B938A838982E0FFA380
:10281000E0FE759300228B938A838982EDF0A3EC0E
:10282000F0759300227F0C121E3A90011D7401F086
:1028300022906577E0FFEF4480FFEFF0229064750F
:10284000E0FFEF4480FFEFF0229043A2E0FFEF446F
:1028500002FFEFF022906473E0FFEF4480FFEFF09F
:1028600022906470E0FFEF4480FFEFF0229043A2DB
:10287000E0FFEF4404FFEFF022906478E0FFEF44C4
:1028800080FFEFF0229043A2E0FFEF4408FFEFF05B
:10289000228B938A838982E0759300FF228B938A2F
:1028A000838982EDF0759300227B027A6479441269
:1028B0002747227B027A647942122809227B027A16
:1028C000647940122809229044C07410F022904488
:1028D000C87410F0229044C07420F0229044C87450
:1028E00020F0229044C07402F0229044C87402F098
:1028F000229044C07401F0229044C87401F02290E8
:1029000044C07404F0229044C87404F0229044C07F
:102910007408F0229044C87408F0229044C27402F3
:10292000F0229044CA7402F022906466E0FF229084
:102930006463E0FF22906460E0FF2232004F0000F9
:102940000C00510000100051300010010000100078
:1029500001140008000140000A00014C00020001BF
:0A296000500000205B035B034020E1
:00000001FF
